:10000300E4F50AF50B750C08F50DD290C291F508CD
:10001300F5097F0A7E001200A1B2920509E5097075
:10002300020508C394C8E508940040E6C290D29143
:10003300E4F508F5097F147E001200A1B2920509C8
:10004300E50970020508C39464E508940040E6D20C
:1000530090C291E50B650D7004E50A650C6016D23C
:1000630092050BE50BAE0A7002050A14FF1200CCD1
:100073001200BF80DEC290D291E50B650D7004E5DE
:100083000A650C7003020003D292050BE50BAE0A5E
:0E0093007002050A14FF1200CC1200BF80DBC1
:1000A100D3EF9400EE940040147D6E7C00ED1D7042
:0D00B100011CED4C70F7EF1F70E61E80E3A0
:0100BE00221F
:0D00BF00C292C3E50D950BFFE50C950AFEFE
:0B00CC00EF1FAC0670011E4C70F62206
:030000000200D724
:0C00D700787FE4F6D8FD75810D0200036F
:00000001FF
