:04201C008000000040
:10267D001220FCE516241CF9E4351585141FF520F0
:08268D008921AB14AA15A9165E
:062695008B1C8A1D891E4A
:10269B00900128E51FF0A3E520F0A3E521F012221D
:1026AB005090011412232E900004122270900118E6
:1026BB0012232E90000812227090011C12232E90D0
:1026CB00000C12227090012012232E900010122267
:1026DB007090012412232EE490012BF090012BE03B
:1026EB00FFC394504003022A92EF24EC601824ECB1
:1026FB00602024EC6028243C702E90012D12233A8C
:10270B005A827999802290012D12233A6ED9EBA12E
:10271B00801690012D12233A8F1BBCDC800A90018E
:10272B002D12233ACA62C1D690012BE0FE540FA39F
:10273B00F0EEC3941050030227E7AB1FAA20A92188
:10274B00E02408540F75F004A4F58285F08312225F
:10275B0070C00790012CE0240D540F75F004A4F504
:10276B008285F0831222DED007EB6FFFEA6EFEE963
:10277B006DFDE86CFCC007AB1FAA20A92190012CB2
:10278B00E02402540F75F004A4F58285F083122225
:10279B00DED007EF6BFFEE6AFEED69FDEC68FCAB7C
:1027AB001FAA20A92190012CE075F004A4F58285C5
:1027BB00F0831222DEEF6BFFEE6AFEED69FDEC6833
:1027CB00FC78011225B5AB1FAA20A92190012CE0A2
:1027DB0075F004A4F58285F0831222BA90012BE0E8
:1027EB00C39414506B900118E0FCA3E0FDA3E0FE32
:1027FB00A3E0FF12220C900120E0F8A3E0F9A3E084
:10280B00FAA3E05FFFEA5EFEE95DFDE85CFCC00455
:10281B00C005C006AB0790011CE0FCA3E0FDA3E0E4
:10282B00FEA3E0FF900118E0F8A3E0F9A3E0FAA300
:10283B00E05FFFEA5EFEE95DFDE85CFCD002D001E3
:10284B00D000EF4BFFEE4AFEED49FDEC4802298C20
:10285B0090012BE0C39428504090011CE0FCA3E0B6
:10286B00FDA3E0FEA3E0FF900118E0F8A3E0F9A3BD
:10287B00E0FAA3E06FFFEA6EFEE96DFDE86CFC90F9
:10288B000120E0F8A3E0F9A3E0FAA3E06FFFEA6E02
:10289B00FEE96DFDE86C02298C90012BE0C3943CA2
:1028AB00400302294F900120E0FCA3E0FDA3E0FED2
:1028BB00A3E0FF900118E0F8A3E0F9A3E0FAA3E08E
:1028CB005FFFEA5EFEE95DFDE85CFCC004C005C08D
:1028DB0006AB07A3E0FCA3E0FDA3E0FEA3E0FF90A3
:1028EB000118A3A3A3E05FFFEA5EFEE95DFDE85CD0
:1028FB00FCD002D001D000EF4BFFEE4AFEED49FDBC
:10290B00EC48FCC004C005C006AB07900120E0FCFE
:10291B00A3E0FDA3E0FEA3E0FF90011CE0F8A3E021
:10292B00F9A3E0FAA3E05FFFEA5EFEE95DFDE85C78
:10293B00FCD002D001D000EB4FFFEA4EFEE94DFD7B
:10294B00E84C803D90011CE0FCA3E0FDA3E0FEA35E
:10295B00E0FF900118E0F8A3E0F9A3E0FAA3E06F21
:10296B00FFEA6EFEE96DFDE86CFC900120E0F8A338
:10297B00E0F9A3E0FAA3E06FFFEA6EFEE96DFDE874
:10298B006CFC90013112232E900131E0F8A3E0F999
:10299B00A3E0FAA3E0FBC000C001C002C00390019A
:1029AB0014E0FCA3E0FDA3E0FEA3E0FF78051225F5
:1029BB00B5900124E0F8A3E0F9A3E0FAA3E02FFF20
:1029CB00EA3EFEE93DFDE83CFCAB1FAA20A92190A5
:1029DB00012CE075F004A4F58285F0831222DEEF62
:1029EB002BFFEE3AFEED39FDEC38FC90012DE0F8B3
:1029FB00A3E0F9A3E0FAA3E02FFFEA3EFEE93DFDD9
:102A0B00E83CFCD003D002D001D000EB2FFFEA3E14
:102A1B00FEE93DFDE83CFCA312232E900120E0FCD7
:102A2B00A3E0FDA3E0FEA3E0FFA312232E90011C65
:102A3B00E0FCA3E0FDA3E0FEA3E0FFA312232E9096
:102A4B000118E0FCA3E0FDA3E0FEA3E0FF781E125B
:102A5B0025B590011C12232E900114E0FCA3E0FD80
:102A6B00A3E0FEA3E0FFA312232E900131E0FCA311
:102A7B00E0FDA3E0FEA3E0FF90011412232E9001D2
:102A8B002BE004F00226E7AB1CAA1DA91EC002C056
:102A9B0001122250900114E0F8A3E0F9A3E0FAA38D
:102AAB00E02FFFEA3EFEE93DFDE83CFCD001D00201
:102ABB001222A0AB1CE51E2404F9E4351DFAC0025A
:102ACB00C001122250900118E0F8A3E0F9A3E0FA3C
:102ADB00A3E02FFFEA3EFEE93DFDE83CFCD001D030
:102AEB00021222A0AB1CE51E2408F9E4351DFAC026
:102AFB0002C00112225090011CE0F8A3E0F9A3E000
:102B0B00FAA3E02FFFEA3EFEE93DFDE83CFCD001D5
:102B1B00D0021222A0AB1CE51E240CF9E4351DFAE1
:102B2B00C002C001122250900120E0F8A3E0F9A3EB
:102B3B00E0FAA3E02FFFEA3EFEE93DFDE83CFCD0C6
:102B4B0001D0021222A0AB1CE51E2410F9E4351DA6
:102B5B00FAC002C001122250900124E0F8A3E0F960
:102B6B00A3E0FAA3E02FFFEA3EFEE93DFDE83CFCC3
:102B7B00D001D0021222A090012412233A000000AF
:102B8B000090012012233A0000000090011C122338
:102B9B003A0000000090011812233A000000009048
:092BAB00011412233A000000009D
:012BB40022FE
:1038BA0012236B67452301900004122385EFCDABD9
:1038CA008990000812238598BADCFE90000C122316
:1038DA008510325476900010122385C3D2E1F090FD
:1038EA00001812238500000000900014122385009E
:0438FA0000000022A8
:0630A600AB11AA12A913F0
:0630AC008B148A15891641
:1030B200900014122270EF7803CEC313CE13D8F906
:1030C200543F900113F0E92414F9E43AFAC003C022
:1030D20002C001122250C004C005C006C007AE1AC9
:1030E200AF1BE4FCFD780312223DA804A905AA0641
:1030F200AB07D007D006D005D004EF2BFFEE3AFE87
:10310200ED39FDEC38FCD001D002D0031222A0C070
:1031120004C005C006C007AE1AAF1BE4FCFD78036D
:1031220012223DA804A905AA06AB07D007D006D0F3
:1031320005D004D3122219401FAB14AA15A9169068
:103142000018122270EF2401FFE43EFEE43DFDE48C
:103152003CFC9000181222BA900113E0FF7E002579
:103162001BFDEE351AFCD3ED943FEC9400500302A4
:1031720031FA74409FFDE49EFC900111F0A3EDF042
:10318200C004C005E516241CF9E43515FAE92FF947
:10319200EE3AA801FCAD14AB17AA18A919D007D0B2
:1031A2000612267D900111E0FEA3E0FF243FFDE41C
:1031B2003EFCC3ED951BEC951A5036AB17E5192F63
:1031C200F9E5183EFAC002C001E516241CF9E435FF
:1031D20015A801FCAD14D001D0027E007F4012265A
:1031E2007D900112E02440F0900111E03400F08063
:1031F200B3E4900113F08007E4900111F0A3F09082
:103202000111E0FEA3E0FFC3E51B9FFDE51A9EFC52
:10321200C004C005AB17E5192FF9E5183EFAC00244
:10322200C001E516241CF9E43515FAA3E07E002955
:10323200F9EE3AA801FCAD14D001D002D007D006B5
:033242000220FC6B
:063245008B0E8A0F8910B8
:10324B00E4900108F0900108E0FFC394085054ABE0
:10325B0011E5132414F9E43512FAEFC394047E003C
:10326B0040047F0080027F01EF7802C333CE33CE60
:10327B00D8F929F9EA3EFA122250900108E0FB54E2
:10328B0003FAC374039A75F008A4F9F812222A748E
:10329B00092BF582E43401F583EFF0900108E0048B
:1032AB00F080A27517FF75182075191C802CAB11B7
:1032BB00AA12A913900014122270EF54F8FFEE54C7
:1032CB0001FEE4FDFC7BC07A01F9F8C31222196000
:1032DB00147517FF75182075191E751A00751B01CB
:1032EB001230A680C9751701751801751909751A61
:1032FB0000751B081230A67E007F407D00AB11E5E8
:10330B0013241CF9E43512FA1225897E007F087DFF
:10331B0000AB11E5132414F9E43512FA1225897E5A
:10332B00007F087D007B017A017909122589E490E1
:10333B000108F0AB11AA12A913900108E0FF1313B7
:10334B00543F75F004A4F58285F08312227090012E
:10335B0008E05403FBC374039B75F008A4F9F8123F
:10336B00222AAB11E513241CF9E43AFAE07C00297C
:10337B00F9EC3AFAEF12213B900108E004F0E0B4CB
:10338B0014B17E007F147D00AB11AA12A913122574
:10339B0089AB11E513241CF9E43512FAA810AC0F14
:0933AB00AD0E7E007F140220FC2F
:0F200400C2AFEF54074280EF44F85280D2AF22B0
:1037D6001111111111111111000001020304050646
:1037E6000708090A0B0C0D0E0F10111213141516EB
:1037F6001718191A1B1C1D1E1F20212223242526DB
:103806002728292A2B2C2D2E2F30313233343536CA
:103816003738393A3B3C3D3E3F5566778899AABBD7
:01382600CCD5
:102BB50090000BE0FFD394FF40067530670230A20A
:102BC5007533028F0D900008E01223B92C05702C87
:102BD5003C712C97722CBC732D31822D86832DA6CA
:102BE500842DD4882E05A02E88A22EFFB02F3BB1B0
:102BF500302ECA2FCDD02FF8D63057D80000309FB1
:102C050090000BE06408600302305F780C7C007D67
:102C1500017BFF7A38791F7E007F08122565EF90CA
:102C2500000860097469F0A37482F080067490F05E
:102C3500E4A3F0753302227B017A0279081238BACF
:102C45007517FF7518377519FF751A00751B107BF9
:102C5500017A0279081230AC7517017518007519DB
:102C65000C90000BE0751A00F51B7B017A027908C0
:102C75001230AC7511017512027513087B017A00CB
:102C8500790A1232459000087490F0E4A3F0753388
:102C950016229000087490F0E4A3F090000CE0FF79
:102CA5007E007C027D7412216F7C007D641221817F
:102CB50090000AEF023052E532600890000BE064A4
:102CC500086003022F4775120175130075140C7502
:102CD500150175160075170C7B007A0079357F0193
:102CE5001235C390000CE0FF7E007C027D7412213A
:102CF5006F7C007D6412218190000AEFF07E007FD9
:102D0500077D007B017A00790B1225897512017503
:102D1500130075140A75150175160075170A7B00E1
:102D25007A007935E4FF1235C3022FBD90000BE020
:102D3500B4080A900009E07004A3E06003022F477D
:102D450075120175130075140C751501751600754E
:102D5500170A7BFF7A3779EF7F031235C3780A7C30
:102D6500007D017B017A0079007E007F08122565D0
:102D7500EF90000860087469F0A37482F0220230B5
:102D85009890000BE0B40C0A900009E07004A3E0F1
:102D95006003022F477B017A00790A123941022F1D
:102DA500BD900009E07004A3E06003022F477B019A
:102DB5007A00790AAD0D1238FE78007C007D017B22
:102DC500017A00790A7E007F081220FC022FBD904F
:102DD500000BE0B4080A900009E07004A3E060036A
:102DE500022F4775120175130075140C75150175C1
:102DF500160075170A7BFF7A3779DF7F02022EEFFF
:102E050090000BE0B4080A900009E07004A3E060AC
:102E150003022F477B017A0079007D081238FEE412
:102E2500F50C740C250CF582E43400F583C083C0E1
:102E350082E0FF7400250CF582E43400F583E0FEA2
:102E4500EF6ED082D083F0050CE50CB408D4751272
:102E55000175130075140C75150075160075173579
:102E65007BFF7A38790F7F021235C3780A7C007DA3
:102E7500017B017A0079007E007F081220FC753203
:102E850001806AE532601190000BE0B4080A9000F9
:102E950009E07004A3E06003022F47751201751362
:102EA5000075140C75150175160075170A7B007AE7
:102EB5000079357F011235C3E4F50C740A250CF54C
:102EC50082E43400F583E0F4F0050CE50CB408EB7E
:102ED50075120175130075140A75150175160075BF
:102EE500170A7B007A007935E4FF1235C390000894
:102EF5007490F0E4A3F075330A22900009E0FEA374
:102F0500E07C002400FFEC3EFEE48F0B8E0AF50901
:102F1500F508AF0DFE7B017A00790A850B16850A47
:102F2500158509148508131236EDEF900008600326
:102F3500022FF2022FC0E532600890000BE0540723
:102F4500600B900008746AF0A37486F02290000963
:102F5500E0FEA3E07C002400FFEC3EFEE48F0B8E38
:102F65000AF509F508AF0DFE7B017A00790A850B94
:102F750016850A158509148508131236EDEF6006C6
:102F8500900008023090E4F50CE50CC3950D50282F
:102F9500740A250CF9E434007B018B12F5138914AE
:102FA5008B15F51689171B7A007935E4FF1235C3A1
:102FB5007408250CF50C80D19000087490F0E4A3FA
:102FC500F0E50D2402F53322900009E0FEA3E07C34
:102FD500002400FFEC3EFEE48F0B8E0AF509F50890
:102FE500AD09AC08123874EF900008600302309008
:102FF500023098900009E0FEA3E07C002400FFEC7D
:103005003EFEE48F0B8E0AF509F5087B017A0079FF
:103015000CA3E0751500F516AD09AC0812365DEF89
:1030250090000860028064806A90000BE0B4010A99
:10303500900009E07004A3E06007900008746D80BB
:10304500549000087490F0E4A3F0A37421F0753354
:10305500032290000BE06408600790000874678005
:1030650034780C7C007D017BFF7A3779D67E007F32
:1030750008122565EF600B900008746AF0A3748050
:10308500F0221239E6EF90000860087465F0A37429
:1030950081F0227490F0E4A3F02275306E75310052
:0130A5002208
:103A0300E4FF122004E4F532F5F9F5FA123765E51F
:093A13002FB401F8122BB580F369
:1037650043EB8053EB0075F84475EB007534007539
:103775002F0030FBFDE5FD64A86030E5FDC2FBB41C
:1037850060DE758208758300752F0130FBFDE5FC51
:10379500F0E534B4FF028003A30534E5FDFAC2FB6E
:1037A500648060E7BAA0CB53F8BF227582087583A1
:1037B50000752F02E0F5FC75F844E5336006D53356
:1037C500028001A330FBFDE5FD64B860E753F8BF57
:0137D50022D1
:032000000239C9D9
:0120030032AA
:01201300329A
:01201B003292
:042023005398FC32A0
:01202B003282
:1039C90075808078FFE4F6D8FD9000007F007E07BF
:0D39D900E4F0A3DFFCDEFA7581BF023A03C3
:0439A6008F828E83FB
:1039AA00759028AFC5ED42C574FFF0E5C520E4085F
:0E39BA00E4F5908FC57FFC22E4F5908FC5FFE9
:0139C80022DC
:083979008F2D8E2C8D2B8C2A62
:103981007B03852D82852C8375902B74FFF0E4F5E4
:1039910090AF82AE837DC01239A61BEF6006EBD3D8
:0439A100940050DE60
:0139A50022FF
:103A1C008F828E83759028E52EF0E4F590E0B52E1C
:063A2C00037F00227F0170
:013A32002271
:072014008F828E83E0FF22A2
:0833B4008F1A8E198D188C1779
:1033BC00E4F529E5177526000234DCAF1EAE1DAD11
:1033CC001CAC1BAB26AA25A924A823D31222194076
:1033DC00030234E5E4F527F528E5282526FFE52743
:1033EC003525FEE43524FDE43523FCAB1AAA19A9D6
:1033FC0018A817D31222195020E5282526FFE527F7
:10340C003525FEE43524FDE43523FCAB1EAA1DA9AD
:10341C001CA81BC31222195024E5282526FFE527DA
:10342C003525FEE43524FDE43523FC122014740804
:10343C002528F582E43401F583EFF08027AB1FAA31
:10344C0020A921122122FF74082528F582E43401D9
:10345C00F583EFF0E522B4010B74012521F521E48D
:10346C003520F5200528E52870020527C3E52794AB
:10347C000150030233E5AF26AE25AD24AC2312393F
:10348C0079EF4229E4F527F528E5282526FFE527DD
:10349C003525FEE43524FDE43523FC74082528F598
:1034AC0082E43401F583E0F52E123A1CEF42290533
:1034BC0028E52870020527C3E527940140CBE425B5
:1034CC0026FFE5253401FEE43524FDE435238F2663
:0B34DC008E258D24F5230233C7AF2995
:0134E70022C2
:0A36ED008E0E8F0F8B108A118912C8
:1036F700E42516FFE5153480FEE43514FDE43513A3
:103707008F168E158D14F513E50F2516FFE50E356B
:1037170015FEE43514FDE43513FCE4FB7AA0F9F853
:10372700C312221950037F0122E4F517F518C3E5E8
:1037370018950FE517950E5022781312230E1220B5
:1037470014AB10AA11A912851882851783EF1221CD
:0D3757004D0518E51870D7051780D37F00C9
:013764002242
:10365D008F118E108D0F8C0E8B128A138914E42509
:10366D0011FFE5103480FEE4350FFDE4350E8F11AA
:10367D008E108D0FF50EE5162511FFE5153510FE93
:10368D00E4350FFDE4350EFCE4FBFA7901F8C312C5
:10369D00221950037F0122E51645156040E51625D8
:1036AD0011FFE5153510FEE4350FFDE4350EFCEF89
:1036BD0024FFFFEE34FFFEED34FFFDEC34FF8F1ED3
:1036CD008E1D8D1CF51B85121F85132085142175EC
:1036DD002201AF11AE10AD0FAC0E0233B47F00223C
:103874008F118E108D0F8C0EE42511FFE51034800E
:10388400FEE4350FFDE4350E8F118E108D0FF50E0D
:10389400E4FFFE7D01FCAB11AA10A90FA80ED31200
:1038A400221940037F0122E4FFE510FEE50FFDE548
:0638B4000EFC123979221E
:1039E6007FFF7E1F7D007C00122014BFA5037F0190
:0C39F600227F007E1F7D007C00123979CA
:013A020022A1
:0838FE008B0E8A0F89108D1159
:10390600E4F512E512C395115030E4F51312382789
:103916007C007D0A1221D6D3E5139DEC6480F874F1
:1039260080985004051380E5780EE475F0011223A3
:0A393600A9E5B512213B051280C976
:013940002264
:1034E800FFAB0FE5112408F9E43510FA85151C85A2
:0E34F800161D85171E85121F851320851421B1
:1035060053C0F743C00175C180E4F5C153C0DF90D5
:103516000108F0900108E0FEC39408501AC374171E
:103526009EF5C1122122F5C1740129F9E43AFA90F7
:103536000108E004F080DC43C008EF20E00543C04A
:1035460040800353C0BFE4900108F0AB1CAA1DA93C
:103556001E122122F5C17401251EF51EE4351DF546
:103566001D900108E004F0E0B408E0EF30E2054306
:10357600C010800353C0EF43C004E5C020E2FBA2A5
:10358600AFE433900109F0C2AF43C088E49001086C
:10359600F0AB1FAA20A921E5C112213B7401252108
:1035A600F521E43520F520900108E004F0E0B408A8
:0C35B600E053C07F900109E024FF92AFB9
:0135C20022E6
:1035C3008B0F8A108911AD07ED5403C39402501574
:1035D30085121C85131D85141E85151F85162085D0
:1035E30017210236595305FDED20E02954FEFF85CE
:1035F300121C85131D85141E85151F85162085171E
:1036030021AB0FAA10A911123506ED44011234E8BB
:10361300ED54FE8028ED4401FF85121C85131D85A2
:10362300141E85151F851620851721AB0FAA10A917
:1036330011123506ED54FE1234E8ED4401FF8512F4
:103643001C85131D85141E85151F851620851721BE
:0A365300AB0FAA10A91112350622D0
:063941008B0E8A0F8910B5
:10394700AF9D759D1F751180751200E4FE0512E588
:1039570012AC117002051114F5828C83E0AB0EAA2C
:103967000FA9108E8275830012214D0EBE0CDE8FBB
:013977009DB2
:01397800222C
:10202C00E709F608DFFA8046E709F208DFFA803E96
:10203C0088828C83E709F0A3DFFA8032E309F60883
:10204C00DFFA8078E309F208DFFA807088828C83EB
:10205C00E309F0A3DFFA806489828A83E0A3F6089F
:10206C00DFFA805889828A83E0A3F208DFFA804C79
:10207C0080D280FA80C680D4806980F28033801050
:10208C0080A680EA809A80A880DA80E280CA8033B9
:10209C0089828A83ECFAE493A3C8C582C8CCC58331
:1020AC00CCF0A3C8C582C8CCC583CCDFE9DEE78001
:1020BC000D89828A83E493A3F608DFF9ECFAA9F080
:1020CC00EDFB2289828A83ECFAE0A3C8C582C8CCD6
:1020DC00C583CCF0A3C8C582C8CCC583CCDFEADEEF
:1020EC00E880DB89828A83E493A3F208DFF980CC51
:1020FC0088F0EF60010E4E60C388F0ED2402B4044A
:10210C000050B9F582EB2402B4040050AF232345F0
:06211C00822390207C7379
:10212200BB010689828A83E0225002E722BBFE02BB
:09213200E32289828A83E49322EE
:10213B00BB010689828A83F0225002F722BBFE0183
:02214B00F3227D
:10214D00F8BB010DE58229F582E5833AF583E8F0C8
:10215D00225006E92582C8F622BBFE05E92582C874
:02216D00F2225C
:10216F00EF8DF0A4A8F0CF8CF0A428CE8DF0A42E84
:02217F00FE223E
:10218100BC000BBE0029EF8DF084FFADF022E4CC42
:10219100F875F008EF2FFFEE33FEEC33FCEE9DEC0B
:1021A100984005FCEE9DFE0FD5F0E9E4CEFD22ED51
:1021B100F8F5F0EE8420D21CFEADF075F008EF2F9B
:1021C100FFED33FD4007985006D5F0F222C398FD8C
:0521D1000FD5F0EA2229
:1021D600C2D5EC30E709B2D5E4C39DFDE49CFCEE24
:1021E60030E715B2D5E4C39FFFE49EFE122181C3FA
:1021F600E49DFDE49CFC800312218130D507C3E4F5
:062206009FFFE49EFE2292
:0D220C00CFF4CFCEF4CECDF4CDCCF4CC2267
:10221900EB9FF5F0EA9E42F0E99D42F0E89C45F01B
:012229002292
:10222A00E8600FECC313FCED13FDEE13FEEF13FF92
:03223A00D8F122B6
:10223D00E8600FEFC333FFEE33FEED33FDEC33FCFF
:03224D00D8F122A3
:10225000BB010789828A830225D55005E9F802254A
:10226000C9BBFE05E9F80225E189828A830225EDD2
:10227000BB010DE58229F582E5833AF5830225D578
:102280005007E92582F80225C9BBFE07E92582F837
:102290000225E1E58229F582E5833AF5830225ED01
:1022A000BB010789828A8302232E5005E9F80226A2
:0A22B00033BBFE05E9F802263F22C9
:1022BA00BB010DE58229F582E5833AF58302232ED7
:1022CA005007E92582F8022633BBFE07E92582F882
:0422DA0002263F2277
:1022DE00BB010DE58229F582E5833AF58302260AD4
:1022EE005007E92582F80225FDBBFE07E92582F895
:1022FE00022616E58229F582E5833AF58302262326
:10230E007401FF3395E0FEFDFC080808E6CF2FF6BA
:10231E0018E6CE3EF618E6CD3DF618E6CC3CF62293
:0C232E00ECF0A3EDF0A3EEF0A3EFF02222
:10233A00A8828583F0D083D08212235112235112AE
:10234A002351122351E473E493A3C583C5F0C583D3
:10235A00C8C582C8F0A3C583C5F0C583C8C582C8ED
:01236A002250
:10236B00BB010789828A8302233A5005E9F80226CA
:0A237B004BBBFE05E9F802266422C0
:10238500BB010DE58229F582E5833AF58302233AFF
:102395005007E92582F802264BBBFE07E92582F89E
:0423A5000226642286
:1023A900FAE6FB0808E6F925F0F618E6CA3AF62235
:1023B900D083D082F8E4937012740193700DA3A3B3
:1023C90093F8740193F5828883E4737402936860C7
:0623D900EFA3A3A380DFC7
:10382700AC3DAD3EAE3FAF407810EC4D4E4F70040F
:103837007CA57DA5C3EC13FCED13FDEE13FEEF1382
:10384700FF5010EC64CCFCED644CFDEE644EFEEFD3
:1038570064CEFFD8DF8C3D8D3E8E3F8F40EE547F88
:0D386700FE228E3D8F3E74A5F53FF54022F8
:1023DF00E3F5F009E208B5F06BDFF58067E3F5F0A0
:1023EF0009E608B5F05EDFF5805A87F009E608B513
:1023FF00F052DFF6804E87F009E208B5F046DFF6BF
:10240F00804288828C8387F009E0A3B5F036DFF62F
:10241F00803288828C8387F009E493A3B5F025DF9F
:10242F00F5802188828C83E3F5F009E0A3B5F014E1
:10243F00DFF5801088828C83E3F5F009E493A3B570
:10244F00F002DFF402250E808780E9809080D4802F
:10245F003E8015806E807E809D80B7808D80A380AA
:10246F00518074803C02251A89828A83ECFAE493A6
:10247F00F5F0A3C8C582C8CCC583CCE493A3C8C567
:10248F0082C8CCC583CCB5F076DFE3DEE1807089FE
:10249F00828A83E493F5F0A3E208B5F062DFF4805B
:1024AF005E89828A83E0F5F0A3E608B5F051DFF587
:1024BF00804D89828A83E0F5F0A3E208B5F040DF12
:1024CF00F5803C89828A83E493F5F0A3E608B5F0A2
:1024DF002EDFF4802A8002805789828A83ECFAE407
:1024EF0093F5F0A3C8C582C8CCC583CCE0A3C8C5FB
:1024FF0082C8CCC583CCB5F006DFE4DEE280007F76
:10250F00FFB5F0020F2240027F012289828A83ECFD
:10251F00FAE0F5F0A3C8C582C8CCC583CCE0A3C848
:10252F00C582C8CCC583CCB5F0D5DFE5DEE380CF5F
:10253F0089828A83ECFAE0F5F0A3C8C582C8CCC5BE
:10254F0083CCE493A3C8C582C8CCC583CCB5F0AF08
:10255F00DFE4DEE280A988F0EF60010E4E60ABEDA4
:10256F002402B404005098F582EB2402B404005006
:0A257F008E23234582239024567317
:10258900EF4E6012EF60010EEDBB010B89828A8369
:10259900F0A3DFFCDEFA2289F05007F709DFFCA976
:0C25A900F022BBFEFCF309DFFCA9F022CD
:1025B500EF08800C33CE33CECD33CDCC33CC92E087
:0425C500D8F2FF2227
:0C25C900E6FC08E6FD08E6FE08E6FF223E
:0C25D500E0FCA3E0FDA3E0FEA3E0FF2279
:0C25E100E2FC08E2FD08E2FE08E2FF2236
:1025ED00E493FC740193FD740293FE740393FF2234
:0D25FD00E6FB08E6F908E6FA08E6CBF8224E
:0C260A00E0F8A3E0F9A3E0FAA3E0FB2253
:0D261600E2FB08E2F908E2FA08E2CBF82244
:10262300E493F8740193F9740293FA740393FB220D
:0C263300ECF608EDF608EEF608EFF622D3
:0C263F00ECF208EDF208EEF208EFF222D7
:10264B00D083D082E493F608740193F60874029356
:09265B00F608740393F67404738D
:10266400D083D082E493F208740193F20874029345
:09267400F208740393F27404737C
:00000001FF
