:020000040800F2
:1000000090040020010100082701000829010008D0
:100010002D01000831010008350100080000000032
:10002000000000000000000000000000390100088E
:100030003B010008000000003D0100083F010008EE
:100040001B0100081B0100081B0100081B01000820
:100050001B0100081B0100081B0100081B01000810
:100060001B0100081B0100081B0100081B01000800
:100070001B0100081B0100081B0100081B010008F0
:100080001B0100081B0100081B0100081B010008E0
:100090001B0100081B0100081B0100081B010008D0
:1000A0001B0100081B0100081B0100081B010008C0
:1000B000410100085D0100081B0100081B01000848
:1000C0001B0100081B0100081B0100081B010008A0
:1000D0001B0100085F010008610100081B01000806
:1000E0001B0100081B0100081B010008DFF80CD0F1
:1000F00004F044F90048004741090008900400203A
:100100000648804706480047FEE7FEE7FEE7FEE7B1
:10011000FEE7FEE7FEE7FEE7FEE7FEE7C70B0008A7
:10012000ED0000087047704700BFFEE700BFFEE724
:1001300000BFFEE700BFFEE770477047704770479B
:1001400010B50121880702F0A6F8012805D1012188
:10015000800702F0B1F8FFF7E5FF10BD7047704768
:1001600070470000F84909780170F749491C09787F
:100170004170F549891C09788170F349C91C0978D7
:10018000C170F149091D09780171EF49491D0978CC
:100190004171ED49891D09788171EB49C91D0978C3
:1001A000C171E949083109780172E74909310978D3
:1001B0004172E5490A3109788172E3490B310978C6
:1001C000C172704700B587B001214FF4017001F092
:1001D00005F94FF4004001F065F80220ADF8040085
:1001E00000208DF8070001A9D84800F03BFED84850
:1001F00002F020FD002002908DF80C0001208DF807
:100200000D004FF4602004900020059001208DF82F
:10021000180002A9CE4802F034FD0121CC4802F0BA
:100220005CFDCB4802F07BFD00BFC94802F07CFDBD
:100230000028FAD1C64802F081FD00BFC44802F090
:1002400082FD0028FAD10121C14802F086FD07B0E5
:1002500000BD70B50024072301221146BC4802F0FE
:10026000A8FD0121BA4802F078FD002513E000BF87
:100270000221B74802F0E2FE0028F9D04FF6FF70E5
:1002800000EA0414B24802F0FBFD00F00F00204425
:1002900084B2681CC5B2042DE9DB0021AC4802F031
:1002A0005CFD204670BDF0B5AFB0AAA2D2E9013125
:1002B0001068D268CDE92C312E922B90A9A191E83B
:1002C0000D00C96827AC0DC42A91AAA30FCB23AC9B
:1002D0000FC4ACA30FCB1FAC0FC4AEA103C9CDE9B3
:1002E0001D0100201A901B901C90179018901990D7
:1002F0001590169013901490402103A803F0F5FF79
:10030000FFF760FFFFF7A5FF06461AA8FFF72AFFD1
:10031000A2A004F065F80C211AA800F096FBA3A097
:1003200004F05EF817A803F03FFC054625B1A0A035
:1003300004F056F800BFFEE7A4A004F051F80C2129
:1003400017A800F082FB99A004F04AF8002411E0FD
:100350001AA9601C085C095D00EB012087B27E4091
:1003600017A9601C085C095D00EB012087B27E4084
:10037000A01C84B2062CEBDB304603F095FF31461F
:1003800096A004F02DF808211DA803F079FC05467D
:1003900025B197A004F024F800BFFEE79BA004F06D
:1003A0001FF8002405E003F075FF15A90855601C2F
:1003B00084B2082CF7DB15A92BA803F0F8FC05463E
:1003C00025B198A004F00CF800BFFEE79CA004F053
:1003D00007F827A803F02FFD054625B19EA003F0DE
:1003E000FFFF00BFFEE7A3A003F0FAFF002405E033
:1003F00003F050FF03A90855601C84B2102CF7DBF2
:10040000102303AA194623A803F06EFC054625B164
:100410009EA003F0E5FF00BFFEE7A3A003F0E0FF0E
:1004200002208DF80C0002AB03AA012103A803F0FF
:1004300004FE054625B1A2A003F0D2FF00BFFEE7EF
:100440009DF80C10A5A003F0CBFF002405E003F0FD
:1004500021FF15A90855601C84B2082CF7DB13AAEC
:1004600015A91FA803F080FE054625B1A3A003F03F
:10047000B7FF00BFFEE7A9A003F0B2FF102303AA55
:10048000002113A803F050FD054625B1AAA003F0F2
:10049000A7FF00BFFEE7B1A003F0A2FF102103A851
:1004A00000F0D3FA102203A9002003F006FD054650
:1004B00025B1B1A003F094FF00BFFEE7B5A003F0A3
:1004C0008FFF102103A800F0C0FA002403E003A965
:1004D0000C55601C84B2102CF9DB102203A90020FB
:1004E00003F075FD054625B1B0A003F079FF00BF0C
:1004F000FEE7B6A003F074FF00208DF80C008DF825
:100500000D0003AB022203A913A803F078FE0546F1
:1005100025B1B4A003F064FF00BFFEE7B8A003F06C
:100520005FFF022103A800F090FA02208DF80C0072
:1005300002A803AB012203A9009013A803F0C1FD98
:10054000054605B166E16AE1E8F7FF1F00080140D2
:1005500000240140000102030405060708090A0BF4
:100560000C0D0E0F101112131415161718191A1B53
:100570001C1D1E1F202122232425262728292A2B43
:100580002C2D2E2F303132333435363738393A3B33
:100590003C3D3E3F5566778899AABBCC476574536E
:1005A000746D33325569643A200000000D0A000072
:1005B000534D45435F476574556964202D3E204582
:1005C00072726F7220210D0A00000000534D4543E6
:1005D0005F4765745569643A2000000052616E649B
:1005E0006F6D5365656B3A2025303478200D0A0015
:1005F000534D45435F436865636B50696E202D3EE4
:10060000204572726F7220210D0A0000534D454340
:100610005F436865636B50696E204F4B20210D0A64
:1006200000000000534D45435F496E74724175747C
:1006300068202D3E204572726F7220210D0A000045
:10064000534D45435F496E747241757468204F4B3A
:1006500020210D0A00000000534D45435F4578748A
:100660007241757468202D3E204572726F72202190
:100670000D0A0000534D45435F457874724175740F
:1006800068204F4B20210D0A00000000534D4543C8
:100690005F5368613141757468202D3E2045727248
:1006A0006F7220210D0A0000534D45435F5368616E
:1006B0003141757468204F4B20210D0A0000000065
:1006C000534D45435F436972636C65416C67202DF0
:1006D0003E204572726F7220210D0A00534D454332
:1006E0005F436972636C65416C67204F4B2C2043FC
:1006F000203D202530327820210D0A00534D4543FE
:100700005F47656E53657373696F6E4B6579202D16
:100710003E204572726F7220210D0A00534D4543F1
:100720005F47656E53657373696F6E4B6579204FD4
:100730004B20210D0A000000534D45435F43727961
:10074000707452656164466C617368202D3E20456B
:1007500072726F7220210D0A00000000534D454354
:100760005F437279707452656164466C617368208E
:100770004F4B3A0D0A000000534D45435F526561EF
:1007800064466C617368202D3E204572726F722042
:10079000210D0A00534D45435F52656164466C610B
:1007A0007368204F4B3A0D0A00000000534D45433B
:1007B0005F5772697465466C617368202D3E2045F1
:1007C00072726F7220210D0A00000000534D4543E4
:1007D0005F5772697465466C617368204F4B210DD9
:1007E0000A000000534D45435F4770696F416C67D5
:1007F000202D3E204572726F7220210D0A000000EC
:10080000534D45435F4770696F416C67204F4B3ACA
:100810000D0A000054A003F0E3FD00BFFEE79DF8C1
:100820000C105AA003F0DCFD2FB0F0BD08B5182065
:100830008DF803004FF40070ADF8000003208DF830
:10084000020069465B4800F00DFB04208DF80300B0
:100850000002ADF800006946564800F003FB08BDF1
:1008600008B54FF4C06000F02FFA25208DF8000085
:1008700000208DF8020001208DF80300684600F08A
:1008800028FA1C208DF8000001208DF801000020BE
:100890008DF8020001208DF80300684600F019FA77
:1008A0001C208DF8000001208DF8010000208DF83B
:1008B000020001208DF80300684600F00AFA0021CA
:1008C0004FF0006000F037FA08BD10B500F018FCDA
:1008D0004FF4803000F034FC00F071FC0446012C31
:1008E00024D1102001F0DCFE022001F0C5FE002022
:1008F00000F0ABFC002000F0BAFCA00200F0AEFC5F
:100900004FF4E011200400F083FC012000F08CFC87
:1009100000BF392000F037FC0028FAD0022000F098
:1009200086FC00BF00F08CFC0828FBD101210846A2
:1009300000F061FD012145F21D0000F04FFD10BDEA
:10094000FFF7C3FFFFF78CFFFFF770FF00F036F8EB
:1009500002F0BCFD0A2000F05CF817A003F040FD97
:10096000FFF7A1FC00BFFEE7534D45435F436972AB
:10097000636C65416C674372797074202D3E20452D
:1009800072726F7220210D0A00000000534D454322
:100990005F436972636C65416C6743727970742060
:1009A0004F4B2C2043203D202530327820210D0A4A
:1009B00000000000000801405A0D0A0000B587B091
:1009C0004FF4E13001900020ADF808004FF40050E2
:1009D000ADF80A000020ADF80C00ADF80E000C20B8
:1009E000ADF8100001A93F4801F096FC01213D48F7
:1009F00001F041FD07B000BD002107E0002201E049
:100A0000531CDAB2072AFBDB4B1CD9B28142F5DB5F
:100A1000704708E042F26C0100BF4A1E92B2111EFC
:100A2000FBD1421E90B20028F4DC704710B504469A
:100A3000E1B22C4801F087FD00BF8021294801F078
:100A4000D9FD0028F9D0204610BD2DE9F041074618
:100A5000884600241DE0385D05110A2D03DA05F1F2
:100A60003000C5B202E005F13700C5B2385D00F0D4
:100A70000F060A2E03DA06F13000C6B202E006F1D4
:100A80003700C6B22846FFF7D1FF3046FFF7CEFF4A
:100A9000641C4445DFD30D20FFF7C8FF0A20FFF791
:100AA000C5FFBDE8F08110B500BF20210D4801F061
:100AB000A1FD0028F9D00B4801F049FD044620466D
:100AC00010BD70B504460D46E1B2064801F03BFD8D
:100AD00000BF8021034801F08DFD0028F9D0204699
:100AE00070BD0000003801400CB50020019000905E
:100AF0006C48006840F480306A49086000BF69486B
:100B0000006800F4003000900198401C01900098AB
:100B100018B90198B0F5A06FF1D16248006800F4EF
:100B2000003010B10120009001E0002000900098FA
:100B3000012843D15C48006840F010005A49086021
:100B40000846006820F0030008600846006840F08E
:100B500002000860534840685249486008464068AF
:100B600048600846406840F4806048600846406835
:100B700020F47C1048600846406840F4E810486063
:100B80000846006840F08070086000BF4548006873
:100B900000F000700028F9D04248406820F00300BF
:100BA000404948600846406840F00200486000BF85
:100BB0003C48406800F00C000828F9D10CBD10B585
:100BC000FFF792FF10BD10B53648006840F00100F5
:100BD0003449086008464068344908403149486053
:100BE00008460068324908402E49086008460068F7
:100BF00020F4802008600846406820F4FE00486029
:100C00004FF41F008860FFF7DAFF4FF000602949BA
:100C1000086010BD10B5002100200022214B5B6848
:100C200003F00C0121B1042906D0082928D107E0DE
:100C3000214B224C236027E01F4B204C236023E0F4
:100C4000184B5B6803F47010164B5B6803F480323A
:100C5000022303EB904022B9194B4343174C236006
:100C60000DE0104B5B6803F4003323B1144B434396
:100C7000124C236003E0104B4343104C236003E00D
:100C80000D4B0E4C236000BF00BF064B5B68C3F3E7
:100C900003130C4CE15C094B1B68CB40074C2360F1
:100CA00010BD000000100240002002400000FFF8CC
:100CB000FFFFF6FE08ED00E000127A0000000020C1
:100CC00000093D000400002031490143314A116010
:100CD000704770B5002100230F22C47804B32D4C57
:100CE000246804F4E064C4F5E064210AC1F104035B
:100CF000CA40447804FA03F184781440214309017E
:100D0000254C0678A155047804F01F050124AC4059
:100D100005786D11AD0005F1E025C5F8004109E049
:100D2000047804F01F050124AC401C4D06787611B0
:100D300045F8264070BD1A4A0A400243154B1B1F56
:100D40001A60704739B1134A121D12680243114BE1
:100D50001B1D1A6006E00F4A121D126882430D4BDC
:100D60001B1D1A607047042808D14FF0E021096963
:100D700041F004014FF0E022116107E04FF0E02163
:100D8000096921F004014FF0E02211617047000071
:100D90000000FA050CED00E000E400E080E100E076
:100DA00080FFFF1F10B50446CC48844208D10121C2
:100DB000042000F02DFB0021042000F029FB46E078
:100DC000C748844208D10121082000F021FB0021FE
:100DD000082000F01DFB3AE0C248844208D10121FE
:100DE000102000F015FB0021102000F011FB2EE078
:100DF000BD48844208D10121202000F009FB0021D8
:100E0000202000F005FB22E0B848844208D10121EF
:100E1000402000F0FDFA0021402000F0F9FA16E031
:100E2000B348844208D10121802000F0F1FA00216A
:100E3000802000F0EDFA0AE0AE48844207D101219B
:100E4000801500F0E5FA0021A01500F0E1FA10BDD0
:100E500010B50121084600F0DBFA0021012000F066
:100E6000D7FA10BD2DE9F0410246002500260020EA
:100E700000230024002791F803C00CF00F0591F81F
:100E800003C00CF0100CBCF1000F03D091F802C0AD
:100E90004CEA050591F800C0BCF1000F31D0146890
:100EA00000202BE04FF0010C0CFA00F3B1F800C069
:100EB0000CEA03069E4220D183004FF00F0C0CFA7F
:100EC00003F7BC4305FA03FC4CEA040491F803C0A1
:100ED000BCF1280F06D14FF0010C0CFA00FCC2F84F
:100EE00014C00AE091F803C0BCF1480F05D14FF0DF
:100EF000010C0CFA00FCC2F810C0401C0828D1D329
:100F00001460B1F800C0BCF1FF0F34DD546800205C
:100F10002EE000F1080C4FF0010808FA0CF3B1F8CC
:100F200000C00CEA03069E4221D183004FF00F0C53
:100F30000CFA03F7BC4305FA03FC4CEA040491F8ED
:100F400003C0BCF1280F05D100F1080C08FA0CF819
:100F5000C2F8148091F803C0BCF1480F07D100F12A
:100F6000080C4FF0010808FA0CF8C2F81080401C79
:100F70000828CED35460BDE8F0814FF6FF710180A0
:100F8000022181700421C1707047024600209368DD
:100F90000B400BB1012000E000207047014688683B
:100FA00080B2704702460020D3680B400BB101208D
:100FB00000E0002070470146C86880B270470161B8
:100FC0007047416170470AB1016100E041617047BB
:100FD000C16070474FF480320A438261816182614F
:100FE00082698269704702460020434B18684FF6B9
:100FF0008073184040EA021008433F4B1860704766
:101000003E49C8617047F0B50A460023002400211C
:10101000002500F00046B6F1004F02D1364EF169CE
:1010200001E0354E7168C0F3034583B200F4401609
:10103000B6F5401F08D121F070612F4E766826F07A
:1010400070662D4F7E6012E000F48016B6F5801FAA
:1010500006D1032606FA05F4A14341F0706106E0CB
:10106000460D360103FA06F6B14341F0706122B134
:10107000460D360103FA06F6314300F00046B6F19C
:10108000004F02D11C4EF16101E01B4E7160F0BDBA
:1010900030B500228B071C0F0F2303FA04F2164B06
:1010A00008338C1053F824309343134C08348D10BC
:1010B00044F8253023468C1053F824308C07240F35
:1010C00000FA04F423430C4C08348D1044F8253006
:1010D00030BD0A49DC31086070470000000801405B
:1010E000000C0140001001400014014000180140B4
:1010F000001C01400020014000000140000020428F
:10110000DF48006840F00100DD490860084640689B
:10111000DC490840DA49486008460068DA49084076
:10112000D74908600846006820F480200860084617
:10113000406820F4FE0048604FF41F00886070474C
:10114000CF49096821F48031CD4A11601146096800
:1011500021F480211160B0F5803F03D0B0F5802FDD
:101160000ED106E0C649096841F48031C44A1160D5
:1011700007E0C349096841F4A021C14A116000E0B9
:1011800000BF00BF704710B50146002200230020B9
:101190004A11012A02D1BA4C236806E0022A02D180
:1011A000B74C236A01E0B64C636A01F01F020124C8
:1011B00094401C400CB1012000E0002010BD38B567
:1011C000002000900024002500BF3120FFF7DBFF46
:1011D00005460098401C00900098B0F5A06F01D023
:1011E000002DF2D03120FFF7CEFF08B1012400E03E
:1011F0000024204638BD01460020A14A106820F096
:10120000F80040EAC10010607047A04908607047CC
:10121000024600209A4B586820F47C1042EA0103F1
:101220001843974B586070479849086670470146C5
:101230000020934A506820F0030008435060704734
:101240008F48406800F00C007047014600208C4A2F
:10125000506820F0F00008435060704701460020BD
:10126000874A506820F4E0600843506070470146A8
:101270000020834A506820F4605040EAC10050606A
:10128000704729B17E4A527A02437D4B5A7204E07C
:101290007B4A527A82437A4B5A7270477B49D831E3
:1012A0000860704701460020754A506820F44040AD
:1012B0000843506070470021714A20321170704A13
:1012C00082F82010012802D004280AD104E001216C
:1012D0006B4A2032117005E00521694A20321170F5
:1012E00000E000BF00BF704769490860704764496B
:1012F000096A0143624A11627047654944390860CE
:10130000704730B500210022002400235C4D6D6839
:1013100005F00C0121B1042905D0082923D105E0ED
:101320005C4D056022E05B4D05601FE0544D6D682B
:1013300005F47012524D6D6805F48034022505EBFA
:1013400092421CB9544D554305600BE04C4D6D68FD
:1013500005F400351DB1504D5543056002E04D4D7B
:101360005543056002E04B4D056000BF00BF444D92
:101370006D6805F0F0010909484D6B5C0568DD40BA
:1013800045603F4D6D6805F4E061090A434D6B5CB3
:101390004568DD4085603A4D6D6805F46051C90AC5
:1013A0003E4D6B5C4568DD40C560354D6D6805F4AC
:1013B0004041890B3A4D6B5CC568B5FBF3F505619F
:1013C00030BD29B12E4A526902432D4B5A6104E0C7
:1013D0002B4A526982432A4B5A61704729B1284AE5
:1013E00092690243264B9A6104E0254A926982433E
:1013F000234B9A61704729B1214AD2690243204B9D
:10140000DA6104E01E4AD26982431D4BDA617047FB
:1014100029B11B4AD2680243194BDA6004E0184A2A
:10142000D2688243164BDA60704729B1144A1269B8
:101430000243134B1A6104E0114A12698243104BB4
:101440001A61704712494039086070470F49C864F3
:1014500070470B49C87170470948406A40F0807076
:1014600007494862704701460020054A92680A40D1
:101470000AB1012000E000207047014988727047DE
:10148000001002400000FFF8FFFFF6FE000042429D
:101490008004424200127A0000093D00140000203E
:1014A0002400002010B50446FE48844208D10121E2
:1014B000C014FFF7ADFF0021E014FFF7A9FFC4E05F
:1014C000B4F1804F08D101210846FFF7AEFF00219B
:1014D0000120FFF7AAFFB8E0F348844208D10121B8
:1014E0000220FFF7A2FF00210220FFF79EFFACE0E1
:1014F000EE48844208D101210420FFF796FF002125
:101500000420FFF792FFA0E0E948844208D10121BE
:101510000820FFF78AFF00210820FFF786FF94E0EC
:10152000E448844208D101211020FFF77EFF00210A
:101530001020FFF77AFF88E0DF48844208D10121BC
:101540002020FFF772FF00212020FFF76EFF7CE0D4
:10155000DA48844208D101214014FFF759FF0021E5
:101560006014FFF755FF70E0D548844209D101218E
:10157000C804FFF74DFF00214FF40020FFF748FF9C
:1015800063E0D048844209D101210805FFF740FFFC
:1015900000214FF48010FFF73BFF56E0CA48844219
:1015A00009D101214805FFF733FF00214FF4001056
:1015B000FFF72EFF49E0C548844208D101214020B1
:1015C000FFF733FF00214020FFF72FFF3DE0C04829
:1015D000844208D101218020FFF727FF00218020CD
:1015E000FFF723FF31E0BB48844208D10121801579
:1015F000FFF71BFF0021A015FFF717FF25E0B648F6
:10160000844209D101210804FFF702FF00214FF4B1
:101610008030FFF7FDFE18E0B048844209D1012177
:101620004804FFF7F5FE00214FF40030FFF7F0FE0D
:101630000BE0AB48844208D101218804FFF7E8FEA3
:1016400000214FF48020FFF7E3FE10BD0022028846
:10165000944B98420ED0994B98420BD0B0F1804FEA
:1016600008D0914B984205D0904B984202D0904BB5
:10167000984204D14FF68F731A404B881A438D4B12
:10168000984207D08C4B984204D04FF6FF431A4043
:10169000CB881A4302808B8883850B880385814B16
:1016A00098420BD0854B984208D08B4B984205D07E
:1016B0008A4B984202D08A4B984201D10B7A03861A
:1016C00001238382704770B5002400220023058C1B
:1016D0004FF6FE7635400584028C8388048B4FF6E6
:1016E0008F752C40B51E2C400D882C43751E2A404A
:1016F0000D892A434D882A436A4DA8420BD06F4D6D
:10170000A84208D0744DA84205D0744DA84202D01A
:10171000734DA84213D14FF6F7752A404D892A43DD
:101720004FF6FB752A408D882A434FF6FF652B4004
:101730004FF6FF552B408D892B43CD892B4383805A
:101740000483CD888586028470BD70B50024002294
:101750000023058C4FF6EF7635400584028C838894
:10176000048B48F6FF752C404FF6FF452C400D8842
:101770004FF6FF7606EA05252C434FF6DF752A4023
:101780000D8906EA05152A434D8806EA05152A4300
:10179000444DA84202D0494DA8421DD14FF67F7555
:1017A0002A404D894FF6FF7606EA05152A434FF683
:1017B000BF752A408D8806EA05152A434FF6FF3586
:1017C0002B404FF2FF752B408D8906EA85052B4390
:1017D000CD8906EA85052B4383800483CD88058760
:1017E000028470BD70B5002400220023058C4FF6E2
:1017F000FF6635400584028C8388848B4FF68F7595
:101800002C404FF6FC752C400D882C434FF6FF55AD
:101810002A400D894FF6FF7606EA05252A434D88B2
:1018200006EA05252A431F4DA84202D0234DA842AF
:101830001DD14FF2FF752A404D894FF6FF7606EA1B
:1018400005252A434FF6FF352A408D8806EA0525EF
:101850002A434EF6FF752B404DF6FF752B408D89C0
:1018600006EA05152B43CD8906EA05152B4383802F
:101870008483CD888587028470BD70B500220023E3
:101880000024058C4EF6FF7635400584038C848851
:10189000828B48F6FF752A404FF6FF452A400D8897
:1018A00020E00000002C014000040040000800403F
:1018B000000C0040001000400014004000340140C3
:1018C000004C01400050014000540140001800400D
:1018D000001C004000200040004001400044014046
:1018E000004801404FF6FF7606EA05252A434DF6EB
:1018F000FF752B400D8906EA05352B434D8806EA16
:1019000005352B43FA4DA84202D0FA4DA84208D122
:101910004BF6FF752C408D894FF6FF7606EA85154C
:101920002C4384808283CD88A0F84050038470BD0E
:10193000828B4FF2FF331A408283828B4FF6FF7304
:1019400003EA01231A4382837047F0B50C4615461B
:10195000002200210026078C4EF6FF7C07EA0C07C8
:101960000784828B018C4FF6FF7707EA043640F636
:10197000FF473A404FF6FF7707EA05273A434FF60D
:10198000FF7707EA03373A43D94FB8420ED0D94F11
:10199000B8420BD0B0F1804F08D0D74FB84205D035
:1019A000D64FB84202D0D64FB84206D14DF6FF7797
:1019B000394046F48057394305E047F6FF57394030
:1019C00044F48057394382830184F0BD828B4FF603
:1019D000F3731A408283828B0A4382837047F0B587
:1019E0000C461546002200210026078C4FF6FF6C9E
:1019F00007EA0C070784828B018C4FF6FF7707EA12
:101A000004264FF60C773A404FF6FF7707EA0317A4
:101A10002F433A43B64FB8420ED0B64FB8420BD020
:101A2000B0F1804F08D0B44FB84205D0B34FB842A0
:101A300002D0B34FB84206D14FF6FF57394046F4B3
:101A40008077394305E04FF2FF57394044F48077FF
:101A5000394382830184F0BD028B4FF2FF331A4079
:101A60000283028B4FF6FF7303EA01231A430283BA
:101A70007047F0B50C461546002200210026078C61
:101A80004FF6EF7C07EA0C070784028B018C4FF6B8
:101A9000FF7707EA041640F6FF473A404FF6FF7714
:101AA00007EA03373A434FF6FF7707EA05273A4339
:101AB0008F4FB8420ED08F4FB8420BD0B0F1804F4D
:101AC00008D08D4FB84205D08C4FB84202D08C4F11
:101AD000B84206D14FF6DF77394046F01007394358
:101AE00005E04FF65F77394044F010073943028331
:101AF0000184F0BD028B4FF6F3731A400283028B10
:101B00000A4302837047F0B50C46154600220021B7
:101B1000068C4FF6FE773E400684028B018C4FF612
:101B20000C7632407E1C06EA03162E433243704E7A
:101B3000B0420ED06F4EB0420BD0B0F1804F08D003
:101B40006D4EB04205D06D4EB04202D06C4EB042E8
:101B500006D14FF6FD76314044F00106314305E0F1
:101B60004FF6F576314044F001063143028301849B
:101B7000F0BD70B505460C465D4885420ED05D4807
:101B800085420BD0B5F1804F08D05B48854205D027
:101B90005A48854202D05A48854200D100E000BF31
:101BA000208850B92389A28861882846FFF7ABFFB7
:101BB000E1882846FFF79EFF25E0208804280AD107
:101BC0002389A28861882846FFF753FFE1882846C9
:101BD000FFF742FF17E0208808280AD12389A2884E
:101BE00061882846FFF7FBFEE1882846FFF7EEFEF6
:101BF00009E02389A28861882846FFF7A6FEE188CC
:101C00002846FFF795FE70BD2DE9F04105460C46CC
:101C100000260127608808B9022600E00026A08877
:101C2000012801D1022700E001272088A0B92389DB
:101C3000A28861882846FFF766FFE1882846FFF7FB
:101C400059FF23893A4631462846FFF712FFE188BB
:101C50002846FFF701FF13E02389A2886188284600
:101C6000FFF707FFE1882846FFF7F6FE23893A468B
:101C700031462846FFF747FFE1882846FFF73AFF3D
:101C8000BDE8F0810A884B881A438B881A43CB88B9
:101C90001A430B891A434B891A438B891A43A0F8BC
:101CA000442070474FF6FF71818000210180C18080
:101CB0004180017270470021018041808180C18094
:101CC000018141818181C181704700210180418072
:101CD000012181800021C1800181704700210180A4
:101CE00041808180C18001814181818170470000F4
:101CF000002C014000340140000400400008004076
:101D0000000C004021B1028842F00102028004E090
:101D100002884FF6FE731A400280704731B1B0F866
:101D2000442042F40042A0F8442005E0B0F84420EA
:101D3000C2F30E02A0F8442070471AB183890B4306
:101D4000838102E083898B4383817047818270475E
:101D500041EA0203A0F8483070471AB183890B4367
:101D6000838102E083898B438381704701894FF629
:101D7000F8721140018170470A46002101894FF62F
:101D80008F73194011430181704730B504460D46E9
:101D900029462046FFF7F0FF208940F00700208108
:101DA00030BD2DE9F04104460D4616461F46602D14
:101DB00006D13B46012231462046FFF75AFE05E098
:101DC0003B46012231462046FFF79DFE294620462C
:101DD000FFF7D2FF208940F007002081BDE8F081A5
:101DE00030B50C4600210189C9B24FF6FF7505EAEE
:101DF0000325154325432943018130BD2DE9F041D9
:101E000005460E4617469846002443463A46314654
:101E10002846FFF7E5FF2C894FF6F870044044F0A0
:101E200007044FF68F70044044F070042C81BDE825
:101E3000F081F0B504460D4616461F463B46324635
:101E400029462046FFF7CCFF208940F480402081BE
:101E5000F0BD0185828270470A46002101884FF655
:101E60008F731940114301807047F0B50C46154639
:101E70001E460021002200230189028B038C4FF6AD
:101E8000F877394021434FF6FC473A4040F20117BA
:101E90003A434FF6DD773B404FF6FF7707EA0617E8
:101EA0002F433B43018102830384F0BD0A46002196
:101EB000018B4FF68F7319401143018370470A4617
:101EC0000021018B48F6FF7319404FF6FF7303EAB8
:101ED00002231943018370470A460021818B4FF684
:101EE0008F7319401143818370470A460021818B0B
:101EF00048F6FF7319404FF6FF7303EA02231943B4
:101F00008183704721B1028842F08002028004E0A0
:101F100002884FF67F731A400280704721B1828891
:101F200042F00402828004E082884FF6FB731A407C
:101F30008280704721B1828842F00802828004E0EA
:101F400082884FF6F7731A408280704721B18288E9
:101F500042F00102828004E082884FF6FE731A404C
:101F6000828070470A460021018B4FF6F7731940B3
:101F70001143018370470A460021018B4FF2FF7322
:101F800019404FF6FF7303EA022319430183704798
:101F90000A460021818B4FF6F77319401143818364
:101FA00070470A460021818B4FF2FF7319404FF6AC
:101FB000FF7303EA02231943818370470A46002115
:101FC000018B4FF6FB7319401143018370470A469A
:101FD0000021018B4FF6FF3319404FF6FF7303EAE0
:101FE00002231943018370470A460021818B4FF673
:101FF000FB7319401143818370470A460021818B8E
:102000004FF6FF3319404FF6FF7303EA02231943DB
:10201000818370470A460021018B4FF67F73194078
:102020001143018370470A460021018BC1F30E0161
:102030004FF6FF7303EA02231943018370470A46F0
:102040000021818B4FF67F731940114381837047C4
:102050000A460021818BC1F30E014FF6FF7303EA9C
:1020600002231943818370470A460021018C4FF6F1
:10207000FD7319401143018470470A460021018C09
:102080004FF6F77319401143018470470A46002147
:10209000018C4FF6DF7319404FF6FF7303EA02130A
:1020A0001943018470470A460021018C4FF67F7363
:1020B00019404FF6FF7303EA021319430184704776
:1020C0000A460021018C4FF6FF5319404FF6FF736B
:1020D00003EA02231943018470470A460021018C58
:1020E0004FF2FF7319404FF6FF7303EA02231943BF
:1020F000018470470A460021018C4DF6FF73194098
:102100004FF6FF7303EA023319430184704730B579
:10211000002301248C40A3B2048C9C430484048CCF
:1021200002FA01F5ADB22C43048430BD30B5002372
:1021300004248C40A3B2048C9C430484048C02FAD3
:1021400001F5ADB22C43048430BD70B503460020C8
:1021500000241846183001258D40ACB21D8CA543D3
:102160001D8409B1082909D100EB6100056825F03B
:10217000700505600568154305600EE00D1FC5F389
:102180004E052844056825F4E045056005684FF6CE
:10219000FF7606EA02263543056070BD21B102884C
:1021A00042F00202028004E002884FF6FD731A40FA
:1021B0000280704721B1028842F00402028004E0EC
:1021C00002884FF6FB731A400280704721B1828863
:1021D00042F08002828004E082884FF67F731A40CA
:1021E0008280704702884FF6F7731A400280028897
:1021F0000A430280704782884FF68F731A408280AC
:1022000082880A438280704702894FF6F8731A4029
:10221000028102890A430281704702894FF67F7367
:102220001A40028102890A43028170478184704703
:102230008185704781867047018770478187704725
:10224000A0F84010704702884FF6FF431A40028002
:1022500002880A43028070470146888E7047014613
:10226000088F70470146888F70470146B1F84000DB
:1022700070470146888C70470146088D70470246BA
:102280000020138A0B400BB1012000E000207047B2
:10229000CA430282704730B5024600200023002462
:1022A000158A05EA0103958905EA010413B10CB109
:1022B000012000E0002030BDCA43028270470000C8
:1022C00010B50446EA48204478B1B0F5806F16D0C6
:1022D000B0F5744F1DD101218803FFF799F8002153
:1022E0004FF48040FFF794F814E001214804FFF711
:1022F0009CF800214FF40030FFF797F80AE0012125
:102300008804FFF792F800214FF48020FFF78DF842
:1023100000E000BF00BF10BD2DE9F04786B00546C4
:102320000E460024A24600BF00BF00272F462C8A7D
:102330004CF6FF700440F08804432C82AC894EF6C2
:10234000F3100440B08831890843B189084304433D
:10235000AC81AC8A4FF6FF40044070890443AC82E4
:1023600001A8FEF7CEFFC348874202D1DDF810A0D6
:1023700001E0DDF80CA00AEBCA0000EB0A1031689E
:102380008900B0FBF1F86420B8FBF0F004012009EB
:10239000642101FB1089322000EB0910B0FBF1F041
:1023A00000F00F0004432C8106B0BDE8F0872DE952
:1023B000F04385B006460D460024A14600BF00BF8D
:1023C000348A4CF2FF000440E888E9890843298AEE
:1023D0000843698A0843A98A0843044334820024D5
:1023E000B4894EF6F3100440A88829890843A989C6
:1023F00008430443B4810024B48A4FF6FF400440EC
:1024000068890443B48200BF6846FEF77AFF9948A2
:10241000864202D1DDF80C9001E0DDF8089009EB6E
:10242000C90000EB091029688900B0FBF1F76420AE
:10243000B7FBF0F004012009642101FB1078322081
:1024400000EB0810B0FBF1F000F00F000443348102
:1024500005B0BDE8F0834FF4165101600021818082
:10246000C180018141810C2181810021C1810182D2
:1024700041828182704721B1828942F40052828177
:1024800004E082894DF6FF731A4082817047F0B5EF
:1024900003460024002600250020C1F3421401F069
:1024A0001F06012707FA06F51846012C01D10C304A
:1024B00004E0022C01D1103000E014301AB107689A
:1024C0002F43076002E00768AF430760F0BD1AB111
:1024D000838A0B43838202E0838A8B438382704723
:1024E000028A4FF6F0731A400282028A0A4302827D
:1024F000704782894FF2FF731A40828182890A43B2
:102500008281704721B1828942F00202828104E017
:1025100082894FF6FD731A4082817047028A4FF616
:10252000DF731A400282028A0A430282704721B195
:10253000028A42F48042028204E0028A4BF6FF7370
:102540001A4002827047C1F3080282807047014638
:102550008888C0F308007047818941F001018181BA
:102560007047028BD2B20283028B42EA01220283BD
:102570007047028B02F47F420283028B0A4302837C
:10258000704721B1828A42F02002828204E0828A6E
:102590004FF6DF731A408282704721B1828A42F07F
:1025A0001002828204E0828A4FF6EF731A40828220
:1025B000704721B1828A42F00802828204E0828A56
:1025C0004FF6F7731A4082827047828A4FF6FB7388
:1025D0001A408282828A0A438282704721B1828AAB
:1025E00042F00202828204E0828A4FF6FD731A40B2
:1025F000828270470246002013880B400BB10120F5
:1026000000E00020704702888A430280704770B55E
:1026100002460B460024002100250020C3F342158A
:1026200003F01F01012606FA01F1012D02D196895E
:10263000314006E0022D02D1168A314001E0968A2F
:1026400031401C12012606FA04F41688344011B1F8
:102650000CB1012000E0002070BD10B50022002365
:102660000A12012404FA02F304889C43048010BD7A
:1026700000BCFFBF0038014001460020FE4A106840
:1026800000F03800084310607047FB49096821F0EA
:102690000801F94A11601146096801431160704749
:1026A000F549096821F01001F34A116011460968E3
:1026B000014311607047F148EF494860F0484860B5
:1026C0007047EE48EC494860ED4848607047EA487A
:1026D000006940F08000E84908617047E6480069F9
:1026E00040F08000E449086170470420E249C9686D
:1026F00001F0010109B101200EE0DF49C96801F0D4
:10270000040109B1022007E0DB49C96801F01001AA
:1027100009B1032000E00420704700B502460423FD
:10272000FFF7E3FF034603E0FFF7DFFF0346521E18
:10273000012B01D1002AF7D102B90523184600BDAB
:1027400030B5044604254FF43020FFF7E6FF054678
:10275000042D17D1C848006940F00200C64908613D
:1027600008464461006940F0400008614FF43020A1
:10277000FFF7D3FF0546C048006941F6FD710840E8
:10278000BD490861284630BD10B504244FF43020FF
:10279000FFF7C3FF0446042C16D1B748006940F088
:1027A0000400B54908610846006940F0400008612E
:1027B0004FF43020FFF7B1FF0446AF48006941F6FF
:1027C000FB710840AC490861204610BD00B50246C7
:1027D0000423FFF78AFF034603E0FFF786FF034663
:1027E000521E012B01D1002AF7D102B90523184648
:1027F00000BD10B504244FF43020FFF7E7FF044676
:10280000042C16D19C48006940F004009A490861E4
:102810000846006940F0400008614FF43020FFF79F
:10282000D5FF04469448006941F6FB71084092497F
:102830000861204610BD00208F49C96901F00201DE
:1028400009B1012000E00020704730B5A52504241F
:10285000FFF7F1FF00B100254FF43020FFF75DFFD7
:102860000446042C3AD185488349886084488860AE
:102870000846006940F0200008610846006940F001
:10288000400008614FF43020FFF747FF0446042C56
:102890001BD17948006941F6DF710840764908612B
:1028A0000846006940F01000086176480580E002A3
:1028B000FFF733FF0446052C10D06F48006941F63E
:1028C000EF7108406C49086108E0052C06D06A48A1
:1028D000006941F6EF71084067490861204630BD44
:1028E00078B506460C46042500200090E802FFF764
:1028F00014FF0546042D24D15F48006940F0010013
:102900005D4908613480E802FFF707FF0546042DA2
:1029100010D1B01C0090200C00990880E802FFF74D
:10292000FCFE05465448006941F6FE7108405249D4
:10293000086106E05048006941F6FE7108404E49C2
:102940000861284678BD70B504460D460426F0029D
:10295000FFF7E3FE0646042E11D14748006940F018
:102960000100454908612580F002FFF7D6FE0646C2
:102970004148006941F6FE7108403F490861304610
:1029800070BD70B505460E460424E002FFF7C5FE93
:102990000446042C17D13948374988603848886084
:1029A0000846006940F0100008612E80E002FFF741
:1029B000B4FE0446052C06D02F48006941F6EF719D
:1029C00008402D490861204670BD2DE9F0430446BA
:1029D0004FF6FF763746B046B1460425E443E6B2EB
:1029E000C4F30727C4F307484FEA1469E802FFF766
:1029F00094FE0546042D49D120481F49886020488F
:102A000088600846006940F010000861FF2E06D07B
:102A10001C4808300680E802FFF77FFE0546042DBB
:102A200008D1FF2F06D017480A300780E802FFF7C9
:102A300074FE0546042D0AD1B8F1FF0F07D01148E6
:102A40000C30A0F80080E802FFF767FE0546042D71
:102A50000AD1B9F1FF0F07D00A480E30A0F8009054
:102A6000E802FFF75AFE0546052D0FD0024800691F
:102A700041F6EF71084007E000200240230167455E
:102A8000AB89EFCD00F8FF1F664908612846BDE815
:102A9000F08330B5054604244FF43020FFF73DFEA7
:102AA0000446042C41D160485E4988605F488860D4
:102AB0000846006940F0200008610846006940F0BF
:102AC000400008614FF43020FFF727FE0446042C35
:102AD00022D15448006941F6DF710840514908612C
:102AE0000846006940F0100008611DB100205049FF
:102AF000088002E0A5204E4908804FF43020FFF7FF
:102B00000CFE0446052C10D04648006941F6EF71D2
:102B100008404449086108E0052C06D04148006996
:102B200041F6DF7108403F490861204630BDF0B5ED
:102B300005460E46174604243B483A4988603B4800
:102B40008860E002FFF7E9FD0446042C19D13548FE
:102B5000006940F010003349086147F0F800304345
:102B600028433349891C0880E002FFF7D6FD04465C
:102B7000052C06D02B48006941F6EF710840294921
:102B800008612046F0BD2748C06980087047254885
:102B9000006A704700202349096801F0200109B14B
:102BA000012000E00020704729B11E4A126902434B
:102BB0001C4B1A6104E01B4A12698243194B1A61CB
:102BC000704701460020012908D1164AD26902F057
:102BD00001020AB1012008E0002006E0114AD26893
:102BE0000A400AB1012000E0002070470D49C8608A
:102BF000704704200B49C96801F0010109B10120A7
:102C00000EE00849C96801F0040109B1022007E09B
:102C10000449C96801F0100109B1032000E0042053
:102C2000704700000020024023016745AB89EFCDCB
:102C300000F8FF1F10B50446FA48844208D101216C
:102C40004015FEF7E5FB00216015FEF7E1FB17E0FC
:102C5000F548844208D101210015FEF7D9FB002177
:102C60002015FEF7D5FB0BE0F048844208D1012186
:102C7000C803FEF7CDFB00214FF40040FEF7C8FB70
:102C800010BD30B50246002000235068E84C2040BB
:102C90000D790C6844EA0524204350609068E54CA7
:102CA0002040D1E902542C434D7944EA45042043A5
:102CB0009060D06A20F470000C7C641EE4B2234360
:102CC00040EA0350D06230BD0021016001714171C2
:102CD0008160C16001210174704721B1826842F0B6
:102CE0000102826003E0826822F001028260704784
:102CF00021B1826842F48072826003E0826822F42B
:102D000080728260704710B50023CBB21AB144685C
:102D10001C43446002E044689C43446010BD8168E9
:102D200041F0080181607047014600208A6802F086
:102D300008020AB1012000E000207047816841F0DC
:102D4000040181607047014600208A6802F0040295
:102D50000AB1012000E00020704721B1826842F4EE
:102D6000A002826003E0826822F4A00282607047C1
:102D7000014600208A6802F480020AB1012000E0C6
:102D80000020704710B50A4600210023416821F455
:102D90006041531E41EA4331416010BD21B1426898
:102DA00042F40062426003E0426822F40062426042
:102DB0007047F0B504460D4600200021092D11DDB5
:102DC000E068A5F10A0606EB4607072606FA07F1B2
:102DD0008843A5F10A0606EB460603FA06F1084306
:102DE000E0600CE0206905EB4507072606FA07F1CD
:102DF000884305EB450603FA06F108432061072ADC
:102E00000FDA606B561E06EB86071F2606FA07F1DF
:102E10008843561E06EB860605FA06F108436063F2
:102E200022E00D2A0FDA206BD61F06EB86071F263D
:102E300006FA07F18843D61F06EB860605FA06F167
:102E40000843206310E0E06AA2F10D0606EB860756
:102E50001F2606FA07F18843A2F10D0606EB860647
:102E600005FA06F10843E062F0BD21B1826842F440
:102E70008012826003E0826822F4801282607047D0
:102E80000146C86C80B2704766484C300068704795
:102E900021B1426842F48062426003E0426822F459
:102EA00080624260704721B1426842F480524260C1
:102EB00003E0426822F48052426070470A460021D3
:102EC000816821F4E04111438160704721B182683B
:102ED00042F40042826003E0826822F40042826091
:102EE000704721B1826842F40212826003E0826876
:102EF00022F4021282607047014600208A6802F4C0
:102F000000120AB1012000E000207047F0B504462D
:102F10001546002000220026092911DDE068A1F1F4
:102F20000A0707EB470C072707FA0CF29043A1F1B9
:102F30000A0707EB470703FA07F21043E0600CE0CB
:102F4000206901EB410C072707FA0CF2904301EBD3
:102F5000410703FA07F210432061A06BC0F301564A
:102F6000EF1C06F1010CA7EB0C0707EB870C1F27E2
:102F700007FA0CF29043EF1C06F1010CA7EB0C07CB
:102F800007EB870701FA07F21043A063F0BD10B505
:102F90000A4600210023816B21F44011531E41EAAF
:102FA0000351816310BD08B5002300930090009B7E
:102FB0000B440093009B1A6008BD08B50246002030
:102FC0000090009201F12800009B184400900098A6
:102FD000006880B208BD0A4600214168164B1940BE
:102FE0001143416070474162826270470A46002186
:102FF000416821F01F0111434160704740B1094908
:103000000831096841F40001064A0832116007E0FE
:1030100004490831096821F40001024A08321160AC
:10302000704700000024014000280140003C01409E
:10303000FFFEF0FFFDF7F1FFFFFD3FFF024600201E
:1030400013680B400BB1012000E000207047CA4319
:103050000260704770B502460020002300240B1266
:103060005568CEB205EA060415681D4015B10CB1CD
:10307000012000E0002070BD00220A12D34303604B
:103080007047000010B50346002003E01C5C0C54A0
:10309000441CE0B29042F9DB10BD30B5034600207D
:1030A00005E01C5C0D5C6C401C54441CE0B290427A
:1030B000F7DB30BDF0B50B46154601225C1EE71765
:1030C00004EB5777C7F3C7015C1EE71704EB57778C
:1030D000FF10A4EBC707C7F10707FEB202FA06F418
:1030E000E2B21DB1445C1443445404E0D443E2B260
:1030F000445C14404454F0BD70B502460123481EA0
:10310000C61700EB5676C6F3C704C61700EB567613
:10311000F610A0EBC606C6F10706F5B203FA05F0F5
:10312000C3B2105D184008B1012070BD0020FCE75B
:103130002DE9F04380460D4616461F4600240CE05C
:10314000295D4046FFF7D8FF8146601CC1B24A4660
:103150003046FFF7AFFF601CC4B2BC42F0DBBDE8F5
:10316000F083F0B5054601212846FFF7C5FF064666
:10317000002412E0285D4006000E2855062C0AD0D7
:10318000611C68180121FFF7B7FF074628193A4666
:103190000821FFF78FFF601CC4B2072CEADB1C215B
:1031A0002846FFF7A9FF07463A4638212846FFF789
:1031B00081FF32461C212846FFF77CFFF0BDF0B5A9
:1031C000054638212846FFF797FF064606240FE0FC
:1031D000285D4010285554B1611E48190821FFF799
:1031E0008BFF074628193A460121FFF763FF641E4B
:1031F000002CEDDA1D212846FFF77EFF07463A46F0
:1032000001212846FFF756FF32461D212846FFF7C9
:1032100051FFF0BD2DE9FC4380460F4600248BE0B2
:10322000002006460090019004EB4400012202EBCE
:103230008000C1B24046FFF75FFF81464A46072142
:103240006846FFF737FF04EB4400062202EB8000DC
:10325000C1B24046FFF750FF81464A460821684602
:10326000FFF728FF022510E004EB440005EB800087
:10327000C1B24046FFF740FF8146E81CC1B24A4652
:1032800001A8FFF717FF681CC5B2062DECDB8749C4
:1032900001EBC4109DF8001000EB01109DF8041024
:1032A000465C3007060E00200190009004EB4400BD
:1032B000072202EB8000C1B24046FFF71DFF8146A6
:1032C0004A4607216846FFF7F5FE04EB44000C224E
:1032D00002EB8000C1B24046FFF70EFF81464A462E
:1032E00008216846FFF7E6FE022512E004EB4400E1
:1032F000062202EB80002844C1B24046FFF7FCFEE4
:103300008146E81CC1B24A4601A8FFF7D3FE681CFB
:10331000C5B2062DEADB012000EB4400634901EB56
:1033200080109DF8001000EB01109DF80410405C27
:1033300006433E55601CC4B2042CFFF671AFBDE8D5
:10334000FC832DE9F04786B004460E46174640231D
:1033500003AA57492046FFF7EBFE0822214603A89F
:10336000FFF790FE382301AA52493046FFF7E0FEEE
:1033700000254AE0302303AA4F49201DFFF7D8FE5D
:10338000012F03D1AFF2252AA94605E0C5F11000AF
:1033900000F0FF09AFF2D91A4FF0000805E001A8CC
:1033A000D04708F1010000F0FF08444810F8090078
:1033B0004045F4DC30230DF11202414901A8FFF72A
:1033C000B7FE06220DF1120103A8FFF766FE0DF10C
:1033D000120103A8FFF71EFF202303AA3949901DFD
:1033E000FFF7A6FE0422214603A8FFF756FE0F2D85
:1033F00009DA04222146201DFFF744FE0422211D84
:1034000003A8FFF73FFE681CC5B2102DB2DB0422F3
:10341000214603A8FFF736FE402303AA2A49204687
:10342000FFF786FE0822214603A8FFF72BFE06B011
:10343000BDE8F0877CB504460E461546206800902E
:1034400060680190012231466846FFF77AFF0098D4
:103450002860019868607CBD7CB504460E46154620
:103460002068009060680190002231466846FFF7AE
:1034700068FF00982860019868607CBD70B588B0CE
:1034800005460C46164604AA21462846FFF7D2FFF9
:103490006A4604F1080104A8FFF7DEFF3246214620
:1034A0006846FFF7C7FF08B070BD0000024900087A
:1034B00082480008524B0008024B0008BA4B000833
:1034C0008A4B0008324B0008C248000808B580202B
:1034D000ADF8000003208DF8020014208DF80300E1
:1034E0006946C548FDF7BEFC4020ADF8000003204A
:1034F0008DF8020010208DF803006946BE48FDF7E4
:10350000B1FC08BD08B58020ADF8000003208DF89F
:10351000020048208DF803006946B748FDF7A2FC79
:1035200008BD08B58020ADF8000003208DF802002A
:1035300010208DF803006946AF48FDF793FC08BDE5
:10354000002107E082B201E0531E9AB2002AFBDCA0
:103550004B1C99B28142F5D3704710B5012240212E
:10356000A548FDF730FD10BD10B500224021A2484E
:10357000FDF729FD10BD10B5012280219E48FDF701
:1035800022FD10BD10B5002280219B48FDF71BFDD8
:1035900010BD10B580219848FDF7F7FC10BD10B59F
:1035A000FFF7F7FF10BD10B5044614B1FFF7D5FFC4
:1035B00001E0FFF7D9FF10BD10B5044614B1FFF7C5
:1035C000DAFF01E0FFF7DEFF10BD10B5FFF7A9FF3E
:1035D0000120FFF7F1FF0120FFF7E5FF0220FFF7D1
:1035E000AFFF0020FFF7E8FF0220FFF7A9FF002050
:1035F000FFF7D9FF10BD10B5FFF793FF0020FFF7CD
:10360000DBFF0120FFF7CFFF0220FFF799FF01202A
:10361000FFF7D2FF0220FFF793FF10BD2DE9F04125
:103620000446FFF77EFF002719E00020FFF7BBFFED
:103630000220FFF785FFC4F3C010FFF7BDFF022093
:10364000FFF77EFF0120FFF7AEFF0220FFF778FFB4
:103650000220FFF775FF6006040E781CC7B2082F22
:10366000E3DB0020FFF79FFFFFF74CFF0220FFF78F
:1036700067FF0220FFF764FF0120FFF794FF02209D
:10368000FFF75EFF0220FFF75BFF0126002509E040
:10369000FFF77FFF08B9002607E00220FFF750FF81
:1036A000681C85B2B5F5FA6FF2DB00BF0020FFF7AA
:1036B0007AFF3046BDE8F08170B50646FFF722FF7D
:1036C0000024002520E06006040E0020FFF76BFFB9
:1036D0000220FFF735FF0220FFF732FF0220FFF73D
:1036E0002FFF0120FFF75FFF0220FFF729FF0220D5
:1036F000FFF726FFFFF74DFF10B144F0010401E092
:1037000004F0FE04681CC5B2082DDCDB0020FFF7C6
:103710004AFFFFF706FF0220FFF712FF3046FFF7D0
:103720004BFF0220FFF70CFF0120FFF73CFF0220B8
:10373000FFF706FF0220FFF703FF0020FFF733FF2C
:10374000204670BD2DE9F04107460D4616460A2475
:103750000DE0FFF73AFF3846FFF760FF00B908E0D9
:10376000601EC0B2041E02D10120BDE8F081002C11
:10377000EFD100BF002405E00020FFF79DFF285592
:10378000601CC4B2701EA042F6DC0120FFF794FF5B
:103790002855FFF730FF0020E7E72DE9F041074605
:1037A0000D4616460A240DE0FFF70FFF3846FFF7D7
:1037B00035FF00B908E0601EC0B2041E02D101202E
:1037C000BDE8F081002CEFD100BF002407E0285DA8
:1037D000FFF724FF08B10120F2E7601CC4B2B44235
:1037E000F5DB0220FFF7ACFE0220FFF7A9FEFFF792
:1037F00002FF0020E4E70000000C014070B5024623
:103800000846CE1701EBD6667611A1EB4616F1B24B
:1038100002FA01F3C1F1200022FA00F443EA0405A0
:10382000284670BD78B50246D3B28DF80030130A31
:103830008DF80130130C8DF80230130E8DF8033023
:103840009DF8002012029DF801301A4412029DF8E2
:1038500002301A4412029DF803301A440B46CE1768
:1038600001EBD6667611A1EB4616F1B202FA01F52C
:10387000C1F1200322FA03F445EA0400C3B28DF833
:103880000030030A8DF80130030C8DF80230030E6E
:103890008DF803309DF8000000029DF801301844B7
:1038A00000029DF80230184400029DF803301844CD
:1038B00078BDB4490160B4494160B249C9438160EF
:1038C000B149C943C160B1490161002282614261CD
:1038D00070472DE9F04F85B0044688462068039074
:1038E0006668D4F80890D4F80CA0206902900027EC
:1038F0008CE037B1142F07D0282F08D03C2F0CD1E3
:1039000008E0A348019008E0A248019005E0A24821
:10391000019002E0A148019000BF00BF07F00F0B2B
:10392000102F1CDBABF1030101F00F0158F821103F
:103930000BF1080202F00F0258F8222051400BF15F
:10394000020202F00F0258F82220514058F82B20B2
:1039500081EA02000121FFF765FF48F82B00142FD0
:1039600006DA06EA09002AEA06010843009018E090
:10397000282F05DA86EA090080EA0A00009010E0A4
:103980003C2F09DA06EA090006EA0A01084309EAB7
:103990000A010843009004E086EA090080EA0A0070
:1039A000009058F82B50E8B28DF81000280A8DF8D6
:1039B0001100280C8DF81200280E8DF813009DF8C8
:1039C00010502D029DF8110005442D029DF81200A3
:1039D00005442D029DF81300054405210398FFF7C7
:1039E0000DFF0299084441190198014400980844C8
:1039F0000090CDF808A0CA461E213046FFF7FEFE13
:103A00008146039E00980390781CC7B2502FFFF6A2
:103A100070AF21680398084420606068304460609B
:103A2000A0684844A060E0685044E06021690298C2
:103A30000844206100208246814606460290039099
:103A400005B0BDE8F08F2DE9F041044688461646E2
:103A5000A08AC0F3C507606900EBC6006061B0EBE7
:103A6000C60F02D2A069401CA061B8193F2824D912
:103A7000C7F140018DB22A4604F11C01C819414624
:103A800000F01AFC04F11C012046FFF722FF0EE0B3
:103A900008EB0501402204F11C0000F00DFC04F1CC
:103AA0001C012046FFF715FF05F1400085B205F126
:103AB0003F00B042ECD3002700E00025721B08EB6A
:103AC000050104F11C03D81900F0F6FBBDE8F081F4
:103AD0007CB506460D46002413E0042C01DA0121D2
:103AE00000E0002105F1140050F8210004F003016A
:103AF000C1F10301C900C840C0B20DF80400601C48
:103B0000C4B2082CE9DB012225A12846FFF79BFF60
:103B100004E0012223A12846FFF795FFA88A00F4BC
:103B2000FC70B0F5E07FF4D1082269462846FFF723
:103B30008AFF402105F11C0000F0D7FB00206861DE
:103B4000A8610090019000240EE0A01055F820001C
:103B500004F00301C1F10301C900C840C1B205F17D
:103B60001C000155601CC4B2142CEEDB1421284645
:103B700000F0BBFB142205F11C01304600F09CFB59
:103B80007CBD00000123456789ABCDEFF0E1D2C3D6
:103B90009979825AA1EBD96EDCBC1B8FD6C162CA5F
:103BA000800000000000000070B5A0B00646802133
:103BB000684600F09AFB83208DF8000000208DF805
:103BC00001008DF802000C2005468DF80300042248
:103BD00069460020FFF7E1FD044614B1012020B042
:103BE00070BDA81CC2B269460120FFF7ABFD0446B8
:103BF00034B99DF80000902802D19DF8010008B169
:103C00000120ECE72A460DF10201304600F054FB9A
:103C10000020E4E770B5A0B006468021684600F0B9
:103C200064FB84208DF8000000208DF801008DF8E1
:103C30000200082005468DF8030004226946002092
:103C4000FFF7ABFD044614B1012020B070BDA81CE5
:103C5000C2B269460120FFF775FD044634B99DF8EC
:103C60000000902802D19DF8010008B10120ECE786
:103C70002A460DF10201304600F01EFB0020E4E769
:103C800070B5A0B005460C468021684600F02DFBBB
:103C900070208DF8000000208DF801008DF80200E2
:103CA0008DF803402246294601A800F005FB201D9F
:103CB000C2B269460020FFF770FD064616B101202A
:103CC00020B070BD022269460120FFF73BFD064689
:103CD00036B99DF80000902802D19DF8010008B186
:103CE0000120EDE70020EBE72DE9F041AAB0054601
:103CF0000E4617461C4680210AA800F0F6FA142149
:103D000005A800F0F2FA1421684600F0EEFA7120DE
:103D10008DF8280000208DF829008DF82A008DF8F4
:103D20002B40224639460BA800F0C6FA201DC2B22D
:103D30000AA90020FFF731FD8046B8F1000F03D03B
:103D400001202AB0BDE8F08116220AA90120FFF760
:103D5000F9FC8046B8F1000F06D19DF828009028A4
:103D600002D19DF8290008B10120EAE714220DF1E3
:103D70002A0105A800F0A0FAFA48FFF79AFD32469A
:103D80002946F848FFF75FFE22463946F548FFF717
:103D90005AFEF4496846FFF79BFE1422694605A8BF
:103DA00000F0AEFA08B10120CBE70020C9E770B5FA
:103DB000A2B005460C46802102A800F096FA002029
:103DC0000090019088208DF8080000208DF80900EF
:103DD0008DF80A0008208DF80B00206803906068B9
:103DE00004900C2202A90020FFF7D7FC064616B16A
:103DF000012022B070BD0A2202A90120FFF7A2FC17
:103E0000064636B99DF80800902802D19DF80900B1
:103E100008B10120EDE76A4629462046FFF72EFB50
:103E2000082269460DF10A0000F06AFA08B1012083
:103E3000DFE70020DDE730B5A5B00546802105A805
:103E400000F053FA0020039004900190029001A822
:103E5000FFF7E0FE10B1012025B030BD03AA2946CE
:103E600001A8FFF70BFB82208DF8140000208DF8CD
:103E700015008DF8160008208DF81700DDE9030104
:103E8000CDE906010C2205A90020FFF786FC0446B7
:103E90000CB10120E0E7022205A90120FFF752FC46
:103EA000044634B99DF81400902802D19DF81500FD
:103EB00008B10120D0E70020CEE7F0B5A1B004465C
:103EC0000E461546802101A800F00FFAB0208DF8AB
:103ED000040020128DF80500E0B28DF806008DF880
:103EE0000750042201A90020FFF757FC074617B12D
:103EF000012021B0F0BDA81CC2B201A90120FFF72A
:103F000021FC074637B99DF80400902802D19DF89E
:103F1000050008B10120ECE72A460DF10601304604
:103F200000F0CAF90020E4E72DE9F047A0B0804690
:103F30000D4691461E468021684600F0D6F9F01DD8
:103F4000C11700EB5171C910C9060F0EB1208DF8D1
:103F5000000028128DF80100E8B28DF802008DF8FB
:103F60000370042269460020FFF717FC8246BAF16D
:103F7000000F03D0012020B0BDE8F087B81CC2B20A
:103F800069460120FFF7DEFB8246BAF1000F06D139
:103F90009DF80000902802D19DF8010008B1012091
:103FA000E9E7002409E0A11C6B46CA18C81841467D
:103FB000FFF752FA04F10800C4B2BC42F3DB324608
:103FC0000DF10201484600F077F90020D3E7F0B583
:103FD000A1B004460F461546802101A800F085F9DE
:103FE000D6208DF8040020128DF80500E0B28DF87F
:103FF00006008DF807502A46394602A800F05CF901
:10400000281DC2B201A90020FFF7C7FB064616B162
:10401000012021B0F0BD022201A90120FFF792FB8F
:10402000064636B99DF80400902802D19DF8050097
:1040300008B10120EDE70020EBE72DE9F041A0B049
:1040400006460C4617461D468021684600F04DF98D
:1040500072208DF8000000208DF801008DF802001C
:104060008DF803402246314601A800F025F9201DB5
:10407000C2B269460020FFF790FB8046B8F1000FFE
:1040800003D0012020B0BDE8F08103226946012061
:10409000FFF758FB8046B8F1000F06D19DF80000ED
:1040A000902802D19DF8010008B10120EAE7012023
:1040B00028702A780DF10201384600F0FDF8002042
:1040C000E0E72DE9F043A3B00446894615461E46B5
:1040D0002A9F802103A800F008F900200190029097
:1040E00073208DF80C0000208DF80D008DF80E0067
:1040F00008208DF80F002A46494601A800F0DCF898
:1041000004AA214601A8FFF795F90C2203A9002073
:10411000FFF743FB8046B8F1000F03D0012023B026
:10412000BDE8F0830A2203A90120FFF70BFB8046BC
:10413000B8F1000F06D19DF80C00902802D19DF82F
:104140000D0008B10120EAE701AA21460DF10E0099
:10415000FFF782F93D703A7801A9304600F0ACF8DB
:104160000020DCE7300000202DE9F041A2B0064637
:104170000D469046802102A800F0B7F8002000907C
:104180000190A0208DF8080000208DF809008DF81E
:104190000A0008208DF80B002868039068680490D6
:1041A0000C2202A90020FFF7F8FA07461FB10120F0
:1041B00022B0BDE8F0810A2202A90120FFF7C2FA6D
:1041C000074637B99DF80800902802D19DF80900EC
:1041D00008B10120ECE7002408E0285DA11C02AA38
:1041E000515C48400DF80400601CC4B2082CF4DB9C
:1041F000424631466846FFF741F90020D8E72DE9ED
:10420000F041A2B004460F4690461D46802102A808
:1042100000F06BF8002000900190A2208DF80800BB
:1042200000208DF809008DF80A0008208DF80B0099
:1042300042463946684600F03FF803AA21466846E0
:10424000FFF7F8F80C2202A90020FFF7A6FA0646AD
:104250001EB1012022B0BDE8F0810A2202A901208E
:10426000FFF770FA064636B99DF80800902802D18B
:104270009DF8090008B10120ECE76A4621460DF1DE
:104280000A00FFF7E9F842466946284600F014F8AC
:104290000020DFE70649074A0868504343F2390225
:1042A00010440860400870470149086070470000EA
:1042B000280000206D4EC64140EA01039B0703D051
:1042C00009E008C9121F08C0042AFAD203E011F855
:1042D000013B00F8013B521EF9D27047D2B201E017
:1042E00000F8012B491EFBD270470022F6E710B5FB
:1042F00013460A4604461946FFF7F0FF204610BD54
:1043000030B504460020034600E05B1C934203D214
:10431000E05CCD5C401BF8D030BD2DE9F05F054678
:10432000002092469B4688460646814640241BE074
:10433000284641464746224600F041F853465A4631
:10434000C01A914110D311461846224600F028F8B1
:104350002D1A67EB01084F4622460120002100F08C
:104360001FF817EB00094E41201EA4F10104DFDC09
:10437000484631462A464346BDE8F09F064C074D65
:1043800006E0E06840F0010394E807009847103425
:10439000AC42F6D3FBF7AEFECC4B0008EC4B00086A
:1043A000202A04DB203A00FA02F1002070479140F5
:1043B000C2F1200320FA03F3194390407047202AEA
:1043C00004DB203A21FA02F00021704721FA02F3BF
:1043D000D040C2F1200291400843194670470000C6
:1043E0000FB4054B10B503A9044A029800F018F861
:1043F00010BC5DF814FB0000C30A00082C0000206C
:1044000002E008C8121F08C1002AFAD1704770479D
:10441000002001E001C1121F002AFBD170470000FB
:104420002DE9FF4F8DB00F460546002606E02528F2
:104430000BD0DDE90F1290476D1C761C2878002800
:10444000F5D111B03046BDE8F08F0024A246A14658
:104450000122EC4900E0044315F8013F203B02FA39
:1044600003F00842F7D128782A2810D06FF02F02E5
:104470002878A0F13001092914D80AEB8A0102EB4F
:10448000410144F0020400EB010A6D1CF0E701CF8A
:104490005FEA000A03D544F40054CAF1000A44F06C
:1044A00002046D1C28782E2817D115F8010F44F04E
:1044B00004042A280ED06FF02F022878A0F13001D2
:1044C00009290AD809EB890102EB410100EB010936
:1044D0006D1CF2E757F8049B6D1C28786C280FD0F0
:1044E00006DC4C2817D068280DD06A2814D104E0C7
:1044F000742810D07A280FD10DE044F400140AE09B
:1045000044F4801401E044F440146978814202D1FB
:1045100004F580146D1C6D1C2A786E2A1FD00CDCEB
:10452000632A31D004DC002A8BD0582A11D1A3E0B1
:10453000642A68D0692A0CD165E0732A2ED004DC85
:104540006F2A73D0702A04D19BE0752A6FD0782A25
:104550006ED01046DDE90F129047761C50E1C4F38F
:104560000250022806D0032809D0042801CF09D020
:10457000066045E101CFF117C0E9006140E101CFDC
:1045800006803DE106703BE117F8040B8DF8000052
:1045900000208DF80100EB46012003E057F804BB32
:1045A0004FF0FF3061074FF0000102D40DE008F139
:1045B0000101884649450FDA8045F8DB1BF80810F1
:1045C0000029F4D108E008F1010188468142FADBB4
:1045D0001BF808100029F6D1DDE90F23AAEB08002B
:1045E0008146214600F036F9304400EB080604E02D
:1045F000DDE90F121BF8010B9047B8F10108F7D263
:1046000021464846F7E00A21C4F302534FF0000B5D
:104610000891022B04D001CFC117032B09D00AE067
:10462000FF1D27F00707F7E8020108E032E01FE06E
:1046300020E000B2C117042B01D140B2C117031E04
:1046400071F1000307DA4FF0000CD0EB0C006CEBBB
:1046500001012D2302E0230504D52B238DF82430FE
:10466000012303E0E30701D02023F7E7984658E051
:104670000A2110E010210EE010204FF0000B0890EE
:104680000CE010214FF0000B44F004044FF0080937
:10469000089103E008214FF0000B0891C4F3025386
:1046A000022B04D001CF0021032B06D006E0FF1D12
:1046B00027F00707F7E8020103E080B2042B00D1DE
:1046C000C0B24FF0000823072BD5702A07D0DDF8C1
:1046D00020C08CF0100C5CEA0B0C05D00EE04023DF
:1046E0008DF82430012308E050EA010306D030237E
:1046F0008DF824308DF8252002239846DDF820C05F
:104700008CF0080C5CEA0B0C0BD150EA010301D1D0
:10471000630706D530238DF824304FF00108A9F146
:104720000109582A04D038A20B9208AA0A920BE079
:104730003AA2F9E75B46089AFFF7EFFD0B9B9B5CFB
:104740000A9A521E0A92137050EA0102F2D10A9894
:10475000ADEB000000F1200B600702D524F480349B
:1047600001E04FF00109D94502DDA9EB0B0000E0A3
:10477000002000EB0B0141440890AAEB010AE00382
:1047800006D4DDE90F232146504600F063F80644C5
:104790004FF0000908E009A911F80900DDE90F123E
:1047A000904709F10109761CC145F4DBE0030CD503
:1047B000DDE90F232146504600F04CF8064404E0A2
:1047C000DDE90F1230209047761C0899481E0890AA
:1047D0000029F5DC08E00A980A990078491C0A913A
:1047E000DDE90F129047761CBBF10001ABF1010B24
:1047F000F1DC21465046DDE90F2300F019F80644AC
:104800006D1C1BE609280100303132333435363750
:10481000383961626364656600000000303132330C
:1048200034353637383941424344454600000000AC
:104830002DE9F041044600251E461746880404D49D
:1048400005E039462020B0476D1C641EF9D5284686
:10485000BDE8F0812DE9F041044600251E46904652
:10486000C80301D5302700E02027880404D505E0DF
:1048700041463846B0476D1C641EF9D52846BDE850
:10488000F0813A322A221A120A023C342C241C14D7
:104890000C043E362E261E160E06403830282018F0
:1048A000100839312921191109013B332B231B131E
:1048B0000B033D352D251D150D053F372F271F17E0
:1048C0000F07280830103818402027072F0F3717F8
:1048D0003F1F26062E0E36163E1E25052D0D3515BC
:1048E0003D1D24042C0C34143C1C23032B0B3313CC
:1048F0003B1B22022A0A32123A1A210129093111DC
:1049000039190E040D01020F0B08030A060C0509E4
:104910000007000F07040E020D010A060C0B090523
:10492000030804010E080D06020B0F0C0907030A09
:1049300005000F0C080204090107050B030E0A000D
:10494000060D0F01080E060B03040907020D0C00EB
:10495000050A030D04070F02080E0C00010A0609E0
:104960000B05000E070B0A040D0105080C060903D0
:10497000020F0D080A01030F04020B06070C0005C5
:104980000E090A00090E06030F05010D0C070B04A2
:1049900002080D0700090304060A0208050E0C0BA5
:1049A0000F010D060409080F03000B01020C050A94
:1049B0000E07010A0D0006090807040F0E030B0578
:1049C000020C070D0E030006090A010208050B0C74
:1049D000040F0D080B05060F00030407020C010A63
:1049E0000E090A0609000C0B070D0F01030E050244
:1049F0000804030F00060A010D080904050B0C0743
:104A0000020E020C0401070A0B060805030F0D0035
:104A10000E090E0B020C04070D0105000F0A030915
:104A200008060402010B0A0D07080F090C0506030E
:104A3000000E0B080C07010E020D060F00090A04F8
:104A400005030C010A0F09020608000D03040E07F6
:104A5000050B0A0F0402070C090506010D0E000BD9
:104A60000308090E0F0502080C030700040A010DD4
:104A70000B060403020C09050F0A0B0E01070600C2
:104A8000080D040B020E0F00080D030C0907050AA0
:104A900006010D000B070409010A0E03050C020FA5
:104AA000080601040B0D0C03070E0A0F060800058B
:104AB0000902060B0D0801040A070905000F0E0282
:104AC000030C0D020804060F0B010A09030E050072
:104AD0000C07010F0D080A0307040C05060B000E56
:104AE0000902070B0401090C0E0200060A0D0F0350
:104AF000050802010E07040A080D0F0C0900030542
:104B0000060B20010203040504050607080908092D
:104B10000A0B0C0D0C0D0E0F1011101112131415A1
:104B200014151617181918191A1B1C1D1C1D1E1FE9
:104B30002001100714151D0C1C11010F171A051266
:104B40001F0A0208180E201B0309130D1E06160B60
:104B5000041939312921191109013A322A221A126C
:104B60000A023B332B231B130B033C342C243F370B
:104B70002F271F170F073E362E261E160E063D3511
:104B80002D251D150D051C140C040E110B18010507
:104B9000031C0F06150A17130C041A0810071B1420
:104BA0000D0229341F252F371E28332D21302C319B
:104BB000273822352E2A32241D200101020202024A
:104BC000020201020202020202010000EC4B000894
:104BD0000000002030000000004400081C4C0008C9
:104BE00030000020600400001044000800A24A04C5
:104BF000000000000000000001020304060708098D
:104C00000000000001020304010203040607080972
:0C4C100002040608000000000000000084
:04000005080000ED02
:00000001FF
