:102DF000534D45435F476574556964202D3E20451A
:102E000072726F7220210D0A00534D45435F476572
:102E1000745569643A20000D0A00534D45435F47DD
:102E2000657452616E646F6D202D3E204572726F25
:102E30007220210D0A0052616E646F6D5365656BDF
:102E40003A00534D45435F436865636B50696E209C
:102E50002D3E204572726F7220210D0A00534D45A0
:102E6000435F436865636B50696E204F4B20210DB3
:102E70000A00534D45435F496E7472417574682072
:102E80002D3E204572726F7220210D0A00534D4570
:102E9000435F496E747241757468204F4B20210D59
:102EA0000A00534D45435F4578747241757468203C
:102EB0002D3E204572726F7220210D0A00534D4540
:102EC000435F4578747241757468204F4B20210D23
:102ED0000A00534D45435F53686131417574682062
:102EE0002D3E204572726F7220210D0A00534D4510
:102EF000435F5368613141757468204F4B20210D49
:102F00000A00534D45435F436972636C65416C67CA
:102F1000202D3E204572726F7220210D0A00534D04
:102F200045435F436972636C65416C67204F4B2C6E
:102F30002043203D2000534D45435F47656E536558
:102F40007373696F6E4B6579202D3E204572726FE9
:102F50007220210D0A00534D45435F47656E53654E
:102F60007373696F6E4B6579204F4B20210D0A00FA
:102F7000534D45435F437279707452656164466C8A
:102F8000617368202D3E204572726F7220210D0AF8
:102F900000534D45435F43727970745265616446D6
:102FA0006C617368204F4B3A0D0A00534D45435FE7
:102FB00052656164466C617368202D3E20457272D3
:102FC0006F7220210D0A00534D45435F52656164C5
:102FD000466C617368204F4B3A0D0A00534D4543D0
:102FE0005F5772697465466C617368202D3E204599
:102FF00072726F7220210D0A00534D45435F577264
:10300000697465466C617368204F4B210D0A00534B
:103010004D45435F4770696F416C67202D3E2045E9
:1030200072726F7220210D0A00534D45435F477045
:10303000696F416C67204F4B3A0D0A00534D454371
:103040005F436972636C65416C6743727970742089
:103050002D3E204572726F7220210D0A00534D459E
:10306000435F436972636C65416C67437279707446
:10307000204F4B2C2043203D20000001020304057B
:10308000060708090A0B0C0D0E0F10111213141568
:10309000161718191A1B1C1D1E1F20212223242558
:1030A000262728292A2B2C2D2E2F30313233343548
:1030B000363738393A3B3C3D3E3F5566778899AACA
:1030C000BBCC000000000000000000000000000079
:1030D00000000000000000000000000000000000F0
:1030E00000000000000000000000000000000000E0
:1030F00000000000000000000000000000000000D0
:1031000000000000000000000000000000000000BF
:0E3110000000000000000000000000000000B1
:1025090078007C007D017BFF7A30797A7E007F102C
:1025190012204E78107C007D017BFF7A30798A7E0B
:10252900007F1012204E78207C007D017BFF7A30DD
:10253900799A7E007F1012204E78307C007D017BD5
:10254900FF7A3079AA7E007F1012204E78407C00F5
:102559007D017BFF7A3079BA7E007F0812204E78A0
:10256900487C007D017BFF7A3079C27E007F0C12A6
:10257900204EE4900054F0A3F078567C007D017B56
:10258900FF7A3079CEFE7F0812204E785E7C007D7E
:10259900017BFF7A3079D67E007F0812204E78665B
:1025A9007C007D017BFF7A3079DE7E007F4012203E
:1025B9004E7B017A0079481240409000A6EFF06006
:1025C9000B7BFF7A2D79F01245DB80FE7BFF7A2E9B
:1025D90079091245DB7B017A0079487D0C7C001270
:1025E90041727BFF7A2E79171245DB7B017A0079DC
:1025F900661240D4EF600B7BFF7A2E791A1245DB05
:1026090080FEE49000A8F0A3F0C39000A9E0940430
:102619009000A8E094005044E0FCA3E0FD2466F596
:102629008274003CF583E0FE74672DF582E4340082
:10263900F583E07C002400FFEC3EFE9000AAF0A3A5
:10264900EFF0900054E06EF0A3E06FF09000A9E085
:102659002402F09000A8E03400F080ADE49000A8D6
:10266900F0A3F0C39000A9E094069000A8E09400BC
:102679005044E0FCA3E0FD2448F58274003CF58356
:10268900E0FE74492DF582E43400F583E07C0024F2
:1026990000FFEC3EFE9000AAF0A3EFF0900054E09A
:1026A9006EF0A3E06FF09000A9E02402F09000A87A
:1026B900E03400F080AD900054E0FEA3E0FF124545
:1026C900007BFF7A2E79361245DB7B017A0079543B
:1026D9007D027C001241727B017A0079407D0812EB
:1026E90042869000A6EFF0600B7BFF7A2E794212AA
:1026F90045DB80FE7BFF7A2E795D1245DBE4900095
:10270900A8F0A3F01244C29000A8A3E02456F582D1
:10271900E43400F583EFF09000A9E004F07006902E
:1027290000A8E004F0C39000A9E094089000A8E094
:10273900940040D09000AF7401F0A37400F0A3742A
:1027490056F07B017A007900123C819000A6EFF0E7
:10275900600B7BFF7A2E79721245DB80FE7BFF7A54
:102769002E798D1245DB7B017A007910123D60903C
:1027790000A6EFF0600B7BFF7A2E79A21245DB8071
:10278900FE7BFF7A2E79BD1245DBE49000A8F0A309
:10279900F01244C29000A8A3E02466F582E4340054
:1027A900F583EFF09000A9E004F070069000A8E02E
:1027B90004F0C39000A9E094109000A8E0940040B0
:1027C900D09000B07401F0A37400F0A37466F0A374
:1027D9007410F07B017A007920FD1236E59000A68D
:1027E900EFF0600B7BFF7A2E79D21245DB80FE7BFE
:1027F900FF7A2E79ED1245DB9000667402F07B01B9
:102809009000B014F0A37400F0A37466F0A3EBF089
:10281900A37400F0A374A7F07A0079667D01123ED3
:102829003C9000A6EFF0600B7BFF7A2F79021245EE
:10283900DB80FE7BFF7A2F791E1245DB7D01124179
:102849006AE49000A8F0A3F01244C29000A8A3E0A3
:102859002456F582E43400F583EFF09000A9E004F2
:10286900F070069000A8E004F0C39000A9E0940875
:102879009000A8E0940040D09000AF7401F0A374D8
:1028890000F0A37456F0A37401F0A37400F0A374CC
:102899005EF07B017A007930123B849000A6EFF05C
:1028A900600B7BFF7A2F79361245DB80FE7BFF7A3E
:1028B9002F79561245DB9000B17401F0A37400F032
:1028C900A37466F0A37410F07B017A00795EE4FDCD
:1028D900FC1239659000A6EFF0600B7BFF7A2F7927
:1028E900701245DB80FE7BFF7A2F79911245DB124E
:1028F90041687B017A0079669000B17410F0E4FFB9
:10290900FE123F029000A6EFF0600B7BFF7A2F7951
:10291900AB1245DB80FE7BFF7A2F79C71245DB12AC
:102929004168E49000A8F0A3F09000A8E0FEA3E0BD
:10293900FFC39410EE9400501C74662FF582E434A2
:1029490000F583EFF09000A9E004F070069000A86C
:10295900E004F080D47B017A0079669000B17410AC
:10296900F0E4FFFE123FA59000A6EFF0600B7BFF9D
:102979007A2F79DC1245DB80FE7BFF7A2F79F912F9
:1029890045DBE4900066F0A3F07B019000AF04F012
:10299900A37400F0A37466F0A37402F0A314F0A367
:1029A9007400F0A37466F07A00795E123A799000A7
:1029B900A6EFF0600B7BFF7A30790F1245DB80FEC2
:1029C9007BFF7A3079291245DB7B017A0079667DB4
:1029D900027C001241729000667402F07B01900043
:1029E900AF14F0A37400F0A37466F0A37401F0A30C
:1029F900F0A37400F0A37466F0A3EBF0A37400F0E5
:102A0900A374A7F07A00795E12383A9000A6EFF025
:102A1900600B7BFF7A30793C1245DB80FE7BFF7AC5
:102A290030795D1245DB7B017A0079667D017C0096
:032A3900024172E5
:1046260075BB30E4F5A212463DD2AF7F147E001270
:0746360045BD12250980FEBD
:1045BD00D3EF9400EE940040147D2C7C06ED1D701D
:0D45CD00011C144C70F7EF1F70E61E80E318
:0145DA0022BE
:10463D00759850758921758DFF758BFF758780D2A3
:04464D008ED2AC223B
:0300230002465141
:0C465100309803C29832309902C29932AE
:084687008F993099FDC29922C0
:1045DB00E4FDFC122074FF6011124687740129F967
:0A45EB00E43AFA0DBD00010C80E96E
:0145F50022A3
:0A4168007D107B017A0079667C006F
:104172009000ACEBF0A3EAF0A3E9F0A3ECF0A3ED1E
:01418200F04C
:10418300E4FDFC9000AFE0FEA3E0D39DEE9C405A1B
:104193009000ACE0FBA3E0FAA3E0F98D828C8312DC
:1041A300208DFFC4540F9000B1F0C3940A5006E071
:1041B3002430F080079000B1E02437F0EF540F90E3
:1041C30000B2F0C3940A5006E02430F08007900058
:1041D300B2E02437F09000B1E0FF124687A3E0FF7E
:1041E3001246870DBD00010C80997F0D1246877F13
:0441F3000A024687EF
:10311E000101020202020202010202020202020185
:10312E000E040D01020F0B08030A060C0509000719
:10313E00000F07040E020D010A060C0B0905030809
:10314E0004010E080D06020B0F0C0907030A0500F9
:10315E000F0C080204090107050B030E0A00060DE9
:10316E000F01080E060B03040907020D0C00050AD9
:10317E00030D04070F02080E0C00010A06090B05C9
:10318E00000E070B0A040D0105080C060903020FB9
:10319E000D080A01030F04020B06070C00050E09A9
:1031AE000A00090E06030F05010D0C070B04020899
:1031BE000D0700090304060A0208050E0C0B0F0189
:1031CE000D060409080F03000B01020C050A0E0779
:1031DE00010A0D0006090807040F0E030B05020C69
:1031EE00070D0E030006090A010208050B0C040F59
:1031FE000D080B05060F00030407020C010A0E0949
:10320E000A0609000C0B070D0F01030E0502080438
:10321E00030F00060A010D080904050B0C07020E28
:10322E00020C0401070A0B060805030F0D000E0918
:10323E000E0B020C04070D0105000F0A0309080608
:10324E000402010B0A0D07080F090C050603000EF8
:10325E000B080C07010E020D060F00090A040503E8
:10326E000C010A0F09020608000D03040E07050BD8
:10327E000A0F0402070C090506010D0E000B0308C8
:10328E00090E0F0502080C030700040A010D0B06B8
:10329E000403020C09050F0A0B0E01070600080DA8
:1032AE00040B020E0F00080D030C0907050A060198
:1032BE000D000B070409010A0E03050C020F080688
:1032CE0001040B0D0C03070E0A0F06080005090278
:1032DE00060B0D0801040A070905000F0E02030C68
:1032EE000D020804060F0B010A09030E05000C0758
:1032FE00010F0D080A0307040C05060B000E090248
:10330E00070B0401090C0E0200060A0D0F03050837
:10331E0002010E07040A080D0F0C09000305060B27
:0813CB00E0FBA3E0FAA3E0F946
:0B13D3009001F1EBF0A3EAF0A3E9F0B9
:1013DE00E49001F7F09001F1E0FBA3E0FAA3E0F94D
:1013EE009001F7E0FFF58275830012208DFE745D8B
:1013FE002FF582E43402F583EEF09001F7E004F06D
:10140E00E0B408D1900264E0FF339203900263E0EF
:10141E00FE339202900262E0FD339201900261E08F
:10142E00FB339200900260E0F933920F90025FE07E
:10143E0033920E90025EE033920D90025DE0339295
:10144E000CEFA2E6920BEEA2E6920AEDA2E692094C
:10145E00EBA2E69208E9A2E6921790025FE0A2E6FE
:10146E00921690025EE0A2E6921590025DE0A2E670
:10147E009214900264E0A2E59213900263E0A2E55A
:10148E009212900262E0A2E59211900261E0A2E552
:10149E009210E9A2E5921F90025FE0A2E5921E90E3
:1014AE00025EE0A2E5921D90025DE0A2E5921CEFC5
:1014BE00A2E4921BEEA2E4921AEDA2E49219EBA220
:1014CE00E49218900264E0A2E19223900263E0A2FB
:1014DE00E19222900262E0A2E19221900261E0A2EA
:1014EE00E19220E9A2E1922F90025FE0A2E1922E1A
:1014FE0090025EE0A2E1922D90025DE0A2E1922CBC
:10150E00EFA2E2922BEEA2E2922AEDA2E29229EB58
:10151E00A2E29228E9A2E2923790025FE0FFA2E2F5
:10152E00923690025EE0FEA2E2923590025DE0FD00
:10153E00A2E29234900264E0A2E39233900263E05E
:10154E00A2E39232900262E0A2E39231900261E055
:10155E00A2E39230E9A2E3923FEFA2E3923EEEA223
:10156E00E3923DEDA2E3923CE9A2E4923B90025F4E
:10157E00E0A2E4923A90025EE0A2E4923990025D1B
:10158E00E0A2E4923853200FAF20E4FCFDFE900160
:10159E00F91221F09001F9E0FCA3E0FDA3E0FEA317
:1015AE00E0FF780812211F9001F91221F09001F945
:1015BE00E0F8A3E0F9A3E0FAA3E0FBE4FCFDFEEB08
:1015CE002521FFEE3AFEED39FDEC38FC9001F912C3
:1015DE0021F09001F9E0FCA3E0FDA3E0FEA3E0FF03
:1015EE00780812211F9001F91221F09001F9E0F80C
:1015FE00A3E0F9A3E0FAA3E0FBE4FCFDFEEB252259
:10160E00FFEE3AFEED39FDEC38FC9001F91221F0B7
:10161E009001F9E0FCA3E0FDA3E0FEA3E0FF780853
:10162E0012211F9001F91221F09001F9E0F8A3E0C8
:10163E00F9A3E0FAA3E0FBE4FCFDFEEB2523FFEEAD
:10164E003AFEED39FDEC38FC9001F91221F05324ED
:10165E000FAF24E4FCFDFE9001FD1221F09001FD80
:10166E00E0FCA3E0FDA3E0FEA3E0FF780812211F3B
:10167E009001FD1221F09001FDE0F8A3E0F9A3E046
:10168E00FAA3E0FBE4FCFDFEEB2525FFEE3AFEEDB2
:10169E0039FDEC38FC9001FD1221F09001FDE0FCCB
:1016AE00A3E0FDA3E0FEA3E0FF780812211F900146
:1016BE00FD1221F09001FDE0F8A3E0F9A3E0FAA3FA
:1016CE00E0FBE4FCFDFEEB2526FFEE3AFEED39FDD8
:1016DE00EC38FC9001FD1221F09001FDE0FCA3E03E
:1016EE00FDA3E0FEA3E0FF780812211F9001FD127A
:1016FE0021F09001FDE0F8A3E0F9A3E0FAA3E0FBEE
:10170E00E4FCFDFEEB2527FFEE3AFEED39FDEC384D
:10171E00FC9001FD1221F0E49001F7F0E4FB900142
:10172E00F7E090311E93FFEBC39F40030217C59065
:10173E0001F9E0FCA3E0FDA3E0FEA3E0FF780112B7
:10174E00211F9001F91221F09001F9E0FCEC5410E8
:10175E00601F9001F9E0FCA3E0FDA3E0FEA3E024EE
:10176E0001FFE43EFEE43DFDE43CFC9001F9122154
:10177E00F09001FDE0FCA3E0FDA3E0FEA3E0FF7806
:10178E000112211F9001FD1221F09001FDE0FCECF1
:10179E005410601F9001FDE0FCA3E0FDA3E0FEA34A
:1017AE00E02401FFE43EFEE43DFDE43CFC9001FD3F
:1017BE001221F00B02172C9001F9E0FCA3E0FDA31F
:1017CE00E0FEA3E0FF781812210C90025DEFF0907E
:1017DE0001F9E0FCA3E0FDA3E0FEA3E0FF78101208
:1017EE00210C90025EEFF09001F9E0FCA3E0FDA366
:1017FE00E0FEA3E0FF780812210C90025FEFF0905C
:10180E0001F9A3A3A3E0900260F09001FDE0FCA318
:10181E00E0FDA3E0FEA3E0FF781812210C90026118
:10182E00EFF09001FDE0FCA3E0FDA3E0FEA3E0FFDE
:10183E00781012210C900262EFF09001FDE0FCA3F3
:10184E00E0FDA3E0FEA3E0FF780812210C900263F6
:10185E00EFF09001FDA3A3A3E0FF900264F09002CD
:10186E005FE0A2E69207A2E3920690025EE0FEA27D
:10187E00E19205900260E0FDA2E4920490025DE028
:10188E00FBA2E39203EE339202EBA2E19201ED137F
:10189E00920090025FE0FEA2E5920F90025EE0FDE4
:1018AE00A2E6920E900260E0FB33920DEDA2E29260
:1018BE000CEBA2E5920BEEA2E1920A90025EE0FE24
:1018CE0013920990025DE0FD139208900260E0A26F
:1018DE00E29217EEA2E4921690025FE0FEA2E4926C
:1018EE001590025EE0A2E59214EBA2E19213EE13C4
:1018FE009212A3E0339211EDA2E29210900263E0F5
:10190E00FE33921FA3E0FDA2E4921E900261E0FB63
:10191E00A2E1921DA3E0FAA2E3921CEEA2E1921BB9
:10192E00EDA2E1921AEBA2E29219EA13921890023A
:10193E0064E0FEA2E59227900263E0FDA2E3922608
:10194E00900262E0FB339225ED139224A3E0A2E411
:10195E009223EE339222EBA2E19221A3E013922086
:10196E00900262E0A2E6922FEEA2E3922EEDA2E2A8
:10197E00922DA2E6922CEFA2E6922BEBA2E4922AF3
:10198E00900261E0A2E39229139228E49001F8F00C
:10199E009001F8E0FFC39406503674202FF8E6FD50
:1019AE009001F7E075F006A4FF9001F4E0FBA3E0D0
:1019BE00FAA3E02FF9EA35F0FA9001F8E07E00295B
:1019CE00F9EE3AFAED1220BA9001F8E004F080C078
:0E19DE009001F7E004F0E06410600302172AA5
:0119EC0022D8
:0B2A3C009001F1EBF0A3EAF0A3E9F039
:102A4700E4FF9001F1E0FBA3E0FAA3E0F98F8275C0
:102A5700830012208DFE745D2FF582E43402F58326
:102A6700EEF00FEFB406DB90025DE0FF339205EF67
:102A7700A2E29204A2E69203A2E59202A2E49201E4
:102A8700A2E39200A2E1920DA3E0FFA2E4920C90D0
:102A9700025DE013920BEF33920AA3E0A2E69209DC
:102AA700A2E59208A2E39215A3E0FFA2E692149092
:102AB700025EE0A2E29213A2E19212139211EF33A7
:102AC7009210A3E0A2E5921D13921CEFA2E4921BC1
:102AD700A2E3921AA2E29219A2E19218A3E0FF33AD
:102AE7009225EFA2E29224A2E69223A2E59222A2E5
:102AF700E49221A2E39220A2E1922DA3E0FFA2E4B7
:102B0700922C900260E013922BEF33922AA3E0A25B
:102B1700E69229A2E59228A2E39235A3E0FFA2E676
:102B27009234900261E0A2E29233A2E192321392D0
:102B370031EF339230A3E0A2E5923D13923CEFA22E
:102B4700E4923BA2E3923AA2E29239A2E19238E4FC
:102B5700FF74202FF8E6FE74F72FF582E43401F5B1
:102B670083EEF074F72FF582E43401F583E0543FE8
:102B7700F00FEFB408DB9001F7E0FF540FFEEFC44E
:102B8700540FC454F0242EF582E43431F583E582E2
:102B97002EF582E43583F583E4939001F7F0A3E003
:102BA700FF540FFEEFC4540FC454F0246EF582E4B3
:102BB7003431F583E5822EF582E43583F583E4939A
:102BC7009001F8F0A3E0FF540FFEEFC4540FC45474
:102BD700F024AEF582E43431F583E5822EF582E404
:102BE7003583F583E4939001F9F0A3E0FF540FFEDA
:102BF700EFC4540FC454F024EEF582E43431F58366
:102C0700E5822EF582E43583F583E4939001FAF0AB
:102C1700A3E0FF540FFEEFC4540FC454F0242EF565
:102C270082E43432F583E5822EF582E43583F58339
:102C3700E4939001FBF0A3E0FF540FFEEFC4540FA1
:102C4700C454F0246EF582E43432F583E5822EF520
:102C570082E43583F583E4939001FCF0A3E0FF540D
:102C67000FFEEFC4540FC454F024AEF582E434329F
:102C7700F583E5822EF582E43583F583E4939001AD
:102C8700FDF0A3E0FF540FFEEFC4540FC454F0242B
:102C9700EEF582E43432F583E5822EF582E435835E
:102CA700F583E4939001FEF09001F7E0C454F0FF40
:102CB700A3E02F9001F7F09001F9E0C454F0FFA3CF
:102CC700E02F9001F8F09001FBE0C454F0FFA3E07F
:102CD7002F9001F9F09001FDE0C454F0FFA3E02F1D
:102CE7009001FAF0E4FF74F72FF582E43401F583DD
:102CF700E0FE745D2FF582E43402F583EEF00FEF0A
:102D0700B404E390025EE0FF13920790025DE0FED9
:102D1700A2E1920690025FE0A2E49205A2E3920488
:102D2700A3E0FDA2E39203EFA2E49202EDA2E492F4
:102D37000190025FE0FF339200EE33920F90025E44
:102D4700E0FEA2E1920EEFA2E1920D900260E0F99F
:102D5700A2E6920C90025DE0FFA2E3920B90025F65
:102D6700E0FDA2E6920AE9A2E19209EEA2E6920844
:102D7700EFA2E6921790025D139216ED139215A338
:102D8700E0A2E29214E9139213E9A2E59212EFA2EC
:102D9700E59211EE339210A3E0FFA2E5921F900295
:102DA7005EE0A2E3921EE9A2E2921D90025DE0FDC1
:102DB700A2E2921CEFA2E2921BEEA2E5921AEDA20A
:102DC700E49219E9339218E4FF74202FF8E6FE9095
:102DD70001F4E0FBA3E0FAA3E0F98F82758300EE2C
:082DE7001220CC0FEFB404E14F
:012DEF0022C1
:0B0D6700900171EBF0A3EAF0A3E9F0AB
:100D72009001F47401F0A37401F0A3747AF090016D
:100D8200741213CBE49001DAF0900171E0FBA3E05E
:100D9200FAA3E0F99001DAE0FFF5827583001220F0
:100DA2008DFE745D2FF582E43402F583EEF090013E
:100DB200DAE004F0E0B408D1900264E0FFA2E69227
:100DC20007900263E0FEA2E69206900262E0FDA2B4
:100DD200E69205900261E0FBA2E69204900260E0D6
:100DE200F9A2E6920390025FE0A2E6920290025E0E
:100DF200E0A2E6920190025DE0A2E69200EFA2E498
:100E0200920FEEA2E4920EEDA2E4920DEBA2E49216
:100E12000CE9A2E4920B90025FE0A2E4920A900233
:100E22005EE0A2E4920990025DE0A2E492089002E0
:100E320064E0A2E29217900263E0A2E292169002AC
:100E420062E0A2E29215900261E0A2E29214E9A2AB
:100E5200E2921390025FE0A2E2921290025EE0A29E
:100E6200E2921190025DE0A2E29210EF13921FEE65
:100E720013921EED13921DEB13921CE913921B9019
:100E8200025FE013921A90025EE013921990025DE3
:100E9200E0139218900264E0339227900263E033E9
:100EA2009226900262E0339225900261E03392240E
:100EB200E933922390025FE033922290025EE033A4
:100EC200922190025DE0339220EFA2E5922FEEA2F2
:100ED200E5922EEDA2E5922DEBA2E5922CE9A2E598
:100EE200922B90025FE0A2E5922A90025EE0A2E5D8
:100EF200922990025DE0A2E59228900264E0A2E3CA
:100F02009237900263E0A2E39236900262E0A2E39B
:100F12009235900261E0A2E39234E9A2E392339027
:100F2200025FE0A2E3923290025EE0A2E39231908D
:100F3200025DE0A2E39230EFA2E1923FEEA2E192E3
:100F42003EEDA2E1923DEBA2E1923CE9A2E1923BAD
:100F520090025FE0A2E1923A90025EE0A2E1923951
:100F620090025DE0A2E19238E49001DAF09001DAB9
:100F7200E0FF2420F8E6FE74DB2FF582E43401F56D
:100F820083EEF09001DAE004F0E0B404E0E49001D2
:100F9200DAF09001DAE0FF2424F8E6FE74DF2FF5A0
:100FA20082E43401F583EEF09001DAE004F0E0B47B
:100FB20004E0E49001DAF0E4FF74DF2FF582E43418
:100FC20001F583E0FE74E32FF582E43401F583EE4C
:100FD200F074DF2FF582E43401F583E0FE745D2FB7
:100FE200F582E43402F583EEF00FEFB404CB900205
:100FF20060E0FF13920790025DE0FE339206EEA2DC
:10100200E69205A2E59204A2E49203A2E39202A26E
:10101200E49201A2E39200A2E2920FA2E1920E13E5
:10102200920DA3E0FE33920C90025DE0FD13920B51
:10103200EE33920AA3E0A2E69209A2E59208A2E4A4
:101042009217A2E39216A2E49215A2E39214A2E2EC
:101052009213A2E19212139211A3E0FE3392109026
:10106200025EE013921FEE33921EA3E0A2E6921DEF
:10107200A2E5921CA2E4921BA2E3921AA2E49219A4
:10108200A2E39218A2E29227A2E19226139225EFFE
:10109200339224EE139223A3E0339222EFA2E6923C
:1010A20021A2E59220A2E4922FA2E3922EA2E49240
:1010B2002DA2E3922CA2E2922BA2E1922A13922970
:1010C200ED339228E4FF74202FF8E6FE74EB2FF53F
:1010D20082E43401F583EEF00FEFB406E9E4FF7425
:1010E200EB2FF582E43401F583C083C082E0FE90E9
:1010F20001DAE075F006A4247AF582E43401F5837E
:10110200E5822FF582E43583F583E0FDEE6DD08232
:10111200D083F00FEFB406C79001F47401F0A3740A
:1011220001F0A374DFF07B017A0179EB122A3CE42F
:10113200FF74DB2FF582E43401F583E0FE74DF2FC8
:10114200F582E43401F583E06EFE74E72FF582E464
:101152003401F583EEF00FEFB404D6E4FF74E72F09
:10116200F582E43401F583E0FE74DF2FF582E43486
:1011720001F583EEF074E32FF582E43401F583E0A8
:10118200FE74DB2FF582E43401F583EEF00FEFB449
:1011920004CB9001DAE004F0E0C394105003020F94
:1011A200B9E49001DAF09001DAE0FF24DFF582E49D
:1011B2003401F583E0FE745D2FF582E43402F58399
:1011C200EEF09001DAE004F0E0B404DAE49001DA3F
:1011D200F09001DAE0FF24DBF582E43401F583E0EC
:1011E200FE74612FF582E43402F583EEF09001DAA9
:1011F200E004F0E0B404DA900261E0FF1392079099
:10120200025DE0FE139206900262E0FD13920590E9
:10121200025EE0FB139204900263E0F913920390E2
:10122200025FE0139202900264E013920190026066
:10123200E0139200EFA2E1920FEEA2E1920EEDA274
:10124200E1920DEBA2E1920CE9A2E1920B90025F16
:10125200E0A2E1920A900264E0A2E19209900260A7
:10126200E0A2E19208A3E0A2E2921790025DE0A25E
:10127200E29216900262E0A2E2921590025EE0A271
:10128200E29214E9A2E29213A3E0A2E29212900285
:1012920064E0A2E29211900260E0A2E29210EFA258
:1012A200E3921FEEA2E3921EEDA2E3921DEBA2E3F4
:1012B200921CE9A2E3921B90025FE0A2E3921A90D1
:1012C2000264E0A2E39219900260E0A2E39218A302
:1012D200E0A2E4922790025DE0A2E49226900262EC
:1012E200E0A2E4922590025EE0A2E49224E9A2E464
:1012F2009223A3E0A2E49222900264E0A2E492216B
:10130200900260E0A2E49220EFA2E5922FEEA2E525
:10131200922EEDA2E5922DEBA2E5922CE9A2E592A6
:101322002B90025FE0A2E5922A900264E0A2E5928D
:1013320029900260E0A2E59228A3E0A2E69237900B
:10134200025DE0A2E69236900262E0A2E692359059
:10135200025EE0A2E69234E9A2E69233A3E0A2E6BC
:101362009232900264E0A2E69231900260E0A2E63C
:101372009230EF33923FEE33923EED33923DEB33B8
:10138200923CE933923B90025FE033923A900264DE
:10139200E0339239900260E0339238E49001DAF05F
:1013A2009001DAE0FF2420F8E6FE900177E0FBA34B
:1013B200E0FAA3E0F98F82758300EE1220CC90014F
:0813C200DAE004F0E0B408D801
:0113CA002200
:0B06FE00900171EBF0A3EAF0A3E9F01B
:100709009001F47401F0A37401F0A3747AF09001DC
:10071900741213CBE49001DAF0900171E0FBA3E0CD
:10072900FAA3E0F99001DAE0FFF58275830012205F
:100739008DFE745D2FF582E43402F583EEF09001AD
:10074900DAE004F0E0B408D1900264E0FFA2E69296
:1007590007900263E0FEA2E69206900262E0FDA223
:10076900E69205900261E0FBA2E69204900260E045
:10077900F9A2E6920390025FE0A2E6920290025E7D
:10078900E0A2E6920190025DE0A2E69200EFA2E407
:10079900920FEEA2E4920EEDA2E4920DEBA2E49286
:1007A9000CE9A2E4920B90025FE0A2E4920A9002A3
:1007B9005EE0A2E4920990025DE0A2E49208900250
:1007C90064E0A2E29217900263E0A2E2921690021C
:1007D90062E0A2E29215900261E0A2E29214E9A21B
:1007E900E2921390025FE0A2E2921290025EE0A20E
:1007F900E2921190025DE0A2E29210EF13921FEED5
:1008090013921EED13921DEB13921CE913921B9088
:10081900025FE013921A90025EE013921990025D52
:10082900E0139218900264E0339227900263E03358
:100839009226900262E0339225900261E03392247D
:10084900E933922390025FE033922290025EE03313
:10085900922190025DE0339220EFA2E5922FEEA261
:10086900E5922EEDA2E5922DEBA2E5922CE9A2E507
:10087900922B90025FE0A2E5922A90025EE0A2E547
:10088900922990025DE0A2E59228900264E0A2E339
:100899009237900263E0A2E39236900262E0A2E30B
:1008A9009235900261E0A2E39234E9A2E392339097
:1008B900025FE0A2E3923290025EE0A2E3923190FD
:1008C900025DE0A2E39230EFA2E1923FEEA2E19253
:1008D9003EEDA2E1923DEBA2E1923CE9A2E1923B1D
:1008E90090025FE0A2E1923A90025EE0A2E19239C1
:1008F90090025DE0A2E19238E49001DAF09001DA29
:10090900E0FF2420F8E6FE74DB2FF582E43401F5DC
:1009190083EEF09001DAE004F0E0B404E0E4900141
:10092900DAF09001DAE0FF2424F8E6FE74DF2FF50F
:1009390082E43401F583EEF09001DAE004F0E0B4EA
:1009490004E0E49001DAF0E4FF74DF2FF582E43487
:1009590001F583E0FE74E32FF582E43401F583EEBB
:10096900F074DF2FF582E43401F583E0FE745D2F26
:10097900F582E43402F583EEF00FEFB404CB900274
:1009890060E0FF13920790025DE0FE339206EEA24B
:10099900E69205A2E59204A2E49203A2E39202A2DE
:1009A900E49201A2E39200A2E2920FA2E1920E1355
:1009B900920DA3E0FE33920C90025DE0FD13920BC1
:1009C900EE33920AA3E0A2E69209A2E59208A2E414
:1009D9009217A2E39216A2E49215A2E39214A2E25C
:1009E9009213A2E19212139211A3E0FE3392109096
:1009F900025EE013921FEE33921EA3E0A2E6921D5F
:100A0900A2E5921CA2E4921BA2E3921AA2E4921913
:100A1900A2E39218A2E29227A2E19226139225EF6D
:100A2900339224EE139223A3E0339222EFA2E692AB
:100A390021A2E59220A2E4922FA2E3922EA2E492AF
:100A49002DA2E3922CA2E2922BA2E1922A139229DF
:100A5900ED339228E4FF74202FF8E6FE74EB2FF5AE
:100A690082E43401F583EEF00FEFB406E9E4FF7494
:100A7900EB2FF582E43401F583C083C082E0FE9058
:100A890001DAE0FDC3740F9D75F006A4247AF5829E
:100A9900E43401F583E5822FF582E43583F583E0BB
:100AA900FDEE6DD082D083F00FEFB406C29001F451
:100AB9007401F0A37401F0A374DFF07B017A01796A
:100AC900EB122A3CE4FF74DB2FF582E43401F58351
:100AD900E0FE74DF2FF582E43401F583E06EFE74E5
:100AE900E72FF582E43401F583EEF00FEFB404D675
:100AF900E4FF74E72FF582E43401F583E0FE74DF47
:100B09002FF582E43401F583EEF074E32FF582E4E6
:100B19003401F583E0FE74DB2FF582E43401F583BB
:100B2900EEF00FEFB404CB9001DAE004F0E0C394E7
:100B3900105003020950E49001DAF09001DAE0FF65
:100B490024DFF582E43401F583E0FE745D2FF5823C
:100B5900E43402F583EEF09001DAE004F0E0B40445
:100B6900DAE49001DAF09001DAE0FF24DBF582E4BF
:100B79003401F583E0FE74612FF582E43402F583D4
:100B8900EEF09001DAE004F0E0B404DA900261E0FA
:100B9900FF13920790025DE0FE139206900262E055
:100BA900FD13920590025EE0FB139204900263E04C
:100BB900F913920390025FE0139202900264E0132A
:100BC9009201900260E0139200EFA2E1920FEEA26F
:100BD900E1920EEDA2E1920DEBA2E1920CE9A2E104
:100BE900920B90025FE0A2E1920A900264E0A2E116
:100BF9009209900260E0A2E19208A3E0A2E29217B2
:100C090090025DE0A2E29216900262E0A2E29215E1
:100C190090025EE0A2E29214E9A2E29213A3E0A29A
:100C2900E29212900264E0A2E29211900260E0A2C4
:100C3900E29210EFA2E3921FEEA2E3921EEDA2E36D
:100C4900921DEBA2E3921CE9A2E3921B90025FE0E2
:100C5900A2E3921A900264E0A2E39219900260E082
:100C6900A2E39218A3E0A2E4922790025DE0A2E435
:100C79009226900262E0A2E4922590025EE0A2E44C
:100C89009224E9A2E49223A3E0A2E49222900264CE
:100C9900E0A2E49221900260E0A2E49220EFA2E5B2
:100CA900922FEEA2E5922EEDA2E5922DEBA2E5920E
:100CB9002CE9A2E5922B90025FE0A2E5922A90022C
:100CC90064E0A2E59229900260E0A2E59228A3E0FF
:100CD900A2E6923790025DE0A2E69236900262E0C7
:100CE900A2E6923590025EE0A2E69234E9A2E6928B
:100CF90033A3E0A2E69232900264E0A2E692319038
:100D09000260E0A2E69230EF33923FEE33923EED7D
:100D190033923DEB33923CE933923B90025FE033EF
:100D2900923A900264E0339239900260E03392384B
:100D3900E49001DAF09001DAE0FF2420F8E6FE9071
:100D49000177E0FBA3E0FAA3E0F98F82758300EE57
:0D0D59001220CC9001DAE004F0E0B408D8DC
:010D6600226A
:10455300C002C00190016BE0F9A3E0FAA3E090016F
:1045630074C9F0A3EAF0A3E9F090016EE0F9A3E0C7
:10457300FAA3E0900177C9F0A3EAF0A3E9F0D00130
:05458300D002020D67EB
:10458800C002C00190016BE0F9A3E0FAA3E090013A
:1045980074C9F0A3EAF0A3E9F090016EE0F9A3E092
:1045A800FAA3E0900177C9F0A3EAF0A3E9F0D001FB
:0545B800D0020206FE26
:1041F700C002C001900142E0F9A3E0FAA3E09001F8
:104207006BC9F0A3EAF0A3E9F0A37401F0A374016A
:10421700F0A37448F0D001D002124553900142E058
:10422700FBA3E0FAA3E02408F9E43AFA90016BEB68
:10423700F0A3EAF0A3E9F0A37401F0A37401F0A3DB
:104247007458F07B017A017948124588900142E061
:10425700F9A3E0FAA3E090016BC9F0A3EAF0A3E9A0
:10426700F0900145E0F9A3E0FAA3E090016EC9F0F0
:0F427700A3EAF0A3E9F07B017A017958024553DD
:090003007F011246737F057E00A7
:10000C00D3EF9400EE9400400D9001C97401F0EF11
:06001C001F70ED1E80EADA
:0100220022BB
:0A466900EFB40103D29122C29122A6
:0A467300EFB40103D29022C290229E
:03469300D291229F
:014696002201
:1045F6001246967F01124669120005E4FF124669CB
:08460600120008E4FF024673F4
:10460E00124696E4FF1246690F1200057F0112460C
:08461E00697F057E0002000C1B
:09467D003091047F018002E4FF8A
:014686002211
:02440F00AD07F7
:10441100124696E4FCE4FF120005ED30E7047F014B
:1044210080027F0012466912000812000312000880
:10443100ED25E0FD0CECB408DCE4FF1200051200F0
:10444100081200031200087D01124693E4FBFA12E0
:10445100467DEF7003FD800E1200080BBB00010AC0
:0D446100BA02ECBB58E9E4FF124673AF0548
:01446E00222B
:02446F00AD0797
:10447100E4FC124693FBEC25E0FCE4FF120005127C
:10448100000812000812000312000812467DEF60B6
:1044910006EC4401FC8004EC54FEFC0BEBB408D6A2
:1044A100E4FF124673124696120008AF05124669E0
:1044B100120008120003120008E4FF124673AF0451
:0144C10022D8
:0E4313009001C3EFF0A3EBF0A3EAF0A3E9F0F2
:104321009001C8740AF09001C8E060181245F69037
:1043310001C3E0FF12440FEF600A9001C8E014F0DE
:1043410070E4D322E49001C8F09001C7E014FFA308
:10435100E0C39F5025E4FF12446F9001C4E0FBA32A
:10436100E0FAA3E0F99001C8E0F582758300EF124D
:1043710020CC9001C8E004F080CF7F0112446F90FF
:1043810001C4E0FBA3E0FAA3E0F99001C8E0F582E3
:0B439100758300EF1220CC12460EC313
:01439C0022FE
:0E439D009001C3EFF0A3EBF0A3EAF0A3E9F068
:1043AB009001C8740AF09001C8E060181245F690AD
:1043BB0001C3E0FF12440FEF600A9001C8E014F054
:1043CB0070E4D322E49001C8F09001C7E0FFA3E0B2
:1043DB00FEC39F50249001C4E0FBA3E0FAA3E0F9D5
:1043EB008E8275830012208DFF12440FEF6002D373
:1043FB00229001C8E004F080D012000812000812CD
:03440B00460EC397
:01440E00228B
:04468F0080000000A7
:1019ED0012204E90016BE0FBA3E0FAA3E0241CF95A
:1019FD00E43AFA900179EBF0A3EAF0A3E9F0900153
:071A0D006BA3E0FAA3E0F96E
:0B1A1400900176EBF0A3EAF0A3E9F0EC
:101A1F00A3E0F9A3E0FAA3E0900190C9F0A3EAF0E4
:101A2F00A3E9F0900176E0FBA3E0FAA3E0F912211D
:101A3F003290017C1221F09000041221529001800B
:101A4F001221F09000081221529001841221F0907F
:101A5F00000C1221529001881221F09000101221D7
:101A6F005290018C1221F0E4900193F0900193E0D9
:101A7F00FFC394504003021E42EF24EC601824EC85
:101A8F00602024EC6028243C702E9001951221FCDC
:101A9F005A82799980229001951221FC6ED9EBA17F
:101AAF0080169001951221FC8F1BBCDC800A9001DF
:101ABF00951221FCCA62C1D6900193E0FE540FA388
:101ACF00F0EEC394105003021B92900179E0FBA338
:101ADF00E0FAA3E0F9900194E02408540F75F004A4
:101AEF00A4F58285F083122152C007900194E0245F
:101AFF000D540F75F004A4F58285F0831221C0D028
:101B0F0007EB6FFFEA6EFEE96DFDE86CFCC0079016
:101B1F000179E0FBA3E0FAA3E0F9900194E024023D
:101B2F00540F75F004A4F58285F0831221C0D007FD
:101B3F00EF6BFFEE6AFEED69FDEC68FC900179E05A
:101B4F00FBA3E0FAA3E0F9900194E075F004A4F58B
:101B5F008285F0831221C0EF6BFFEE6AFEED69FD07
:101B6F00EC68FC7801122441900179E0FBA3E0FAC4
:101B7F00A3E0F9900194E075F004A4F58285F08359
:101B8F0012219C900193E0C39414506B900180E05C
:101B9F00FCA3E0FDA3E0FEA3E0FF1220EE9001887E
:101BAF00E0F8A3E0F9A3E0FAA3E05FFFEA5EFEE945
:101BBF005DFDE85CFCC004C005C006AB0790018466
:101BCF00E0FCA3E0FDA3E0FEA3E0FF900180E0F8BE
:101BDF00A3E0F9A3E0FAA3E05FFFEA5EFEE95DFD93
:101BEF00E85CFCD002D001D000EF4BFFEE4AFEEDD7
:101BFF0049FDEC48021D37900193E0C394285040F3
:101C0F00900184E0FCA3E0FDA3E0FEA3E0FF9001C0
:101C1F0080E0F8A3E0F9A3E0FAA3E06FFFEA6EFE1D
:101C2F00E96DFDE86CFC900188E0F8A3E0F9A3E012
:101C3F00FAA3E06FFFEA6EFEE96DFDE86C021D3757
:101C4F00900193E0C3943C4003021CFA900188E09A
:101C5F00FCA3E0FDA3E0FEA3E0FF900180E0F8A36A
:101C6F00E0F9A3E0FAA3E05FFFEA5EFEE95DFDE8BD
:101C7F005CFCC004C005C006AB07A3E0FCA3E0FDFD
:101C8F00A3E0FEA3E0FF900180A3A3A3E05FFFEA20
:101C9F005EFEE95DFDE85CFCD002D001D000EF4BA9
:101CAF00FFEE4AFEED49FDEC48FCC004C005C0063E
:101CBF00AB07900188E0FCA3E0FDA3E0FEA3E0FFEB
:101CCF00900184E0F8A3E0F9A3E0FAA3E05FFFEA54
:101CDF005EFEE95DFDE85CFCD002D001D000EB4F69
:101CEF00FFEA4EFEE94DFDE84C803D900184E0FC9B
:101CFF00A3E0FDA3E0FEA3E0FF900180E0F8A3E0E6
:101D0F00F9A3E0FAA3E06FFFEA6EFEE96DFDE86C60
:101D1F00FC900188E0F8A3E0F9A3E0FAA3E06FFFDD
:101D2F00EA6EFEE96DFDE86CFC9001991221F090CE
:101D3F000199E0F8A3E0F9A3E0FAA3E0FBC000C02B
:101D4F0001C002C00390017CE0FCA3E0FDA3E0FE14
:101D5F00A3E0FF780512244190018CE0F8A3E0F98D
:101D6F00A3E0FAA3E02FFFEA3EFEE93DFDE83CFCCD
:101D7F00900179E0FBA3E0FAA3E0F9900194E075FC
:101D8F00F004A4F58285F0831221C0EF2BFFEE3A09
:101D9F00FEED39FDEC38FC900195E0F8A3E0F9A3D6
:101DAF00E0FAA3E02FFFEA3EFEE93DFDE83CFCD060
:101DBF0003D002D001D000EB2FFFEA3EFEE93DFD3C
:101DCF00E83CFCA31221F0900188E0FCA3E0FDA306
:101DDF00E0FEA3E0FFA31221F0900184E0FCA3E05A
:101DEF00FDA3E0FEA3E0FFA31221F0900180E0FC31
:101DFF00A3E0FDA3E0FEA3E0FF781E1224419001B3
:101E0F00841221F090017CE0FCA3E0FDA3E0FEA38F
:101E1F00E0FFA31221F0900199E0FCA3E0FDA3E005
:101E2F00FEA3E0FF90017C1221F0900193E004F0FB
:101E3F00021A7B900176E0FBA3E0FAA3E0F9C0025F
:101E4F00C00112213290017CE0F8A3E0F9A3E0FA7F
:101E5F00A3E02FFFEA3EFEE93DFDE83CFCD001D0B8
:101E6F0002122182900176E0FBA3E0FAA3E02404A2
:101E7F00F9E43AFAC002C001122132900180E0F871
:101E8F00A3E0F9A3E0FAA3E02FFFEA3EFEE93DFD50
:101E9F00E83CFCD001D002122182900176E0FBA336
:101EAF00E0FAA3E02408F9E43AFAC002C0011221D3
:101EBF0032900184E0F8A3E0F9A3E0FAA3E02FFF4A
:101ECF00EA3EFEE93DFDE83CFCD001D00212218242
:101EDF00900176E0FBA3E0FAA3E0240CF9E43AFAD0
:101EEF00C002C001122132900188E0F8A3E0F9A3EB
:101EFF00E0FAA3E02FFFEA3EFEE93DFDE83CFCD00F
:101F0F0001D002122182900176E0FBA3E0FAA3E058
:101F1F002410F9E43AFAC002C00112213290018C68
:101F2F00E0F8A3E0F9A3E0FAA3E02FFFEA3EFEE911
:101F3F003DFDE83CFCD001D00212218290018C12B1
:101F4F0021FC000000009001881221FC000000001D
:101F5F009001841221FC000000009001801221FCEE
:0E1F6F000000000090017C1221FC0000000028
:011F7D002241
:10450F0012222D67452301900004122247EFCDABF5
:10451F008990000812224798BADCFE90000C1222F4
:10452F004710325476900010122247C3D2E1F09018
:10453F0000181222470000000090001412224700BA
:04454F000000002246
:0C332E00F090015FE0FBA3E0FAA3E0F9DF
:0B333A0090016BEBF0A3EAF0A3E9F0B8
:10334500900014122152EF7803CEC313CE13D8F98F
:10335500543F900175F0E92414F9E43AFAC003C02A
:1033650002C001122132C004C005C006C007900189
:1033750071E0FEA3E0FFE4FCFD780312211FA80421
:10338500A905AA06AB07D007D006D005D004EF2BB8
:10339500FFEE3AFEED39FDEC38FCD001D002D0034A
:1033A500122182C004C005C006C007900171E0FE6D
:1033B500A3E0FFE4FCFD780312211FA804A905AAD8
:1033C50006AB07D007D006D005D004D31220FB40AA
:1033D5002490016BE0FBA3E0FAA3E0F9900018123A
:1033E5002152EF2401FFE43EFEE43DFDE43CFC9068
:1033F500001812219C900175E0FFFD900172E02DEF
:10340500FD900171E03400FCD3ED943FEC94005045
:10341500030234CA7E0074409FFDE49EFC90017354
:10342500F0A3EDF0C004C00590016BE0FBA3E0FA4A
:10343500A3E0241CF9E43AFAE92FF9EE3AA801FCD5
:10344500AD03A3E0FBA3E0FAA3E0F9D007D0061291
:1034550019ED900174E0243FFF900173E03400FE04
:10346500D3900172E09F900171E09E405190016EF2
:10347500E0FBA3E0FAA3E0F9900173E0FEA3E0FF0F
:10348500E92FF9EA3EFAC003C002C00190016BE0E2
:10349500FBA3E0FAA3E0241CF9E43AA801FCAD0380
:1034A500D001D002D0037E007F401219ED90017447
:1034B500E02440F0900173E03400F0023457E490CA
:1034C5000175F08007E4900173F0A3F0900173E0BB
:1034D500FEA3E0FFC3900172E09FFF900171E09EA3
:1034E500FE90016EE0FBA3E0FAA3E0F9900173E022
:1034F500FCA3E0FDE92DF9EA3CFAC003C002C001D6
:1035050090016BE0FBA3E0FAA3E0241CF9E43AFA8E
:10351500900175E07C0029F9EC3AA801FCAD03D0D7
:0835250001D002D00302204E88
:0B352D0090015CEBF0A3EAF0A3E9F0D2
:10353800E4900162F0900162E0FFC3940850599052
:10354800015FE0FBA3E0FAA3E02414F9E43AFAEF00
:10355800C394047E0040047F0080027F01EF78025C
:10356800C333CE33CED8F929F9EA3EFA1221329084
:103578000162E0FB5403FAC374039A75F008A4F9D6
:10358800F812210C74632BF582E43401F583EFF013
:10359800900162E004F0809D90016E74FFF0A374C6
:1035A80046F0A3748F803590015FE0FBA3E0FAA397
:1035B800E0F9900014122152EF54F8FFEE5401FE86
:1035C800E4FDFC7BC07A01F9F8C31220FB60189077
:1035D800016E74FFF0A37446F0A37491F0A3E4F0B5
:1035E800A30412332E80C090016E7401F0A37401FD
:1035F800F0A37463F0A3E4F0A3740812332E7E00E2
:103608007F407D0090015FE0FBA3E0FAA3E0241C6B
:10361800F9E43AFA1224157E007F087D0090015FD4
:10362800E0FBA3E0FAA3E02414F9E43AFA12241523
:103638007E007F087D007B017A017963122415E4FE
:10364800900162F090015FE0FBA3E0FAA3E0F9A328
:10365800E0FF1313543F75F004A4F58285F083123C
:103668002152900162E05403FBC374039B75F00878
:10367800A4F9F812210C90015FE0FBA3A3E0241C3D
:10368800F9E43AFAA3E07C0029F9EC3AFAEF1220BF
:10369800BA900162E004F0E0B414A97E007F147DC2
:1036A8000090015FE0FBA3E0FAA3E0F91224159073
:1036B800015FE0FBA3E0FAA3E0241CF9E43AFAC0B6
:1036C80003C00290015CE0FBA3E0FAA3E0F8AC02BF
:0D36D800AD03D002D0037E007F1402204E0F
:1000260000000000000000000000000000000000CA
:1000360000000000000000000000000000000000BA
:1000460000000000000000000000000000000000AA
:10005600000000000000000000000000000000009A
:0B4040009000ACEBF0A3EAF0A3E9F065
:10404B0078AF7C007D017BFF7A0079267E007F8034
:10405B0012204E9000AF7483F0E4A3F0A3F0900114
:10406B002F740CF09000B2F07B017A0079AF9001C5
:10407B00C77404F0E4FF12439DE43360037F012215
:10408B007B017A0079AF90012FE024029001C7F0F9
:10409B007F01124313E433700B9000AFE0B4900434
:1040AB00A3E060037F012290012FE0FF7E009000D0
:1040BB00ACE0FBA3E0FAA3E0F8AC02AD037B017A22
:0840CB000079B112204E7F00C4
:0140D30022CA
:0B40D40090013FEBF0A3EAF0A3E9F03D
:1040DF0078427C017D017BFF7A0079A67E007F808C
:1040EF0012204E9001427484F0E4A3F0A3F09001EB
:1040FF00C27408F0900145F07B017A01794290017A
:10410F00C77404F0E4FF12439DE43360037F012280
:10411F007B017A0179429001C2E024029001C7F03D
:10412F007F01124313E433700B900142E0B490040B
:10413F00A3E060037F01229001C2E0FF7E009001A7
:10414F003FE0FBA3E0FAA3E0F8AC02AD037B017AFA
:08415F0001794412204E7F009B
:014167002235
:0E4286009000ACEBF0A3EAF0A3E9F0A3EDF09A
:1042940078B07C007D017BFF7A0179267E007F80E7
:1042A40012204E9000B07470F0E4A3F0A3F09000DC
:1042B400AFE0FF9000B3F07E0078B47C007D019005
:1042C40000ACE0FBA3E0FAA3E0F912204E7B017AF4
:1042D4000079B09000AFE024049001C7F0E4FF122D
:1042E400439DE43360037F01227B017A0079B0901F
:1042F40001C77402F07F01124313E433700B900082
:0E430400B0E0B49004A3E060037F01227F00CC
:014312002288
:0E36E5009000ACEBF0A3EAF0A3E9F0A3EDF047
:1036F30078B47C007D017BFF7A0179A67E007F8010
:1037030012204E78347C017D017BFF7A0279267E7C
:10371300007F1412204E78487C017D017BFF7A02E2
:10372300793A7E007F1412204E9000B47471F0E455
:10373300A3F0A3F09000B3E0FF9000B7F07E007811
:10374300B87C007D019000B0E0FBA3E0FAA3E0F9B0
:1037530012204E7B017A0079B49000B3E0240490E8
:1037630001C7F0E4FF12439DE43360037F01227B32
:10377300017A0079B49001C77416F07F01124313E4
:10378300E433700B9000B4E0B49004A3E060037FD3
:10379300012278347C017D017B017A0079B67E00B9
:1037A3007F1412204E7B017A02790112450F90009B
:1037B300ACE0F9A3E0FAA3E090016EC9F0A3EAF04C
:1037C300A3E9F09000AFE0FF900171E4F0A3EFF004
:1037D3007B017A02790112333A9000B0E0F9A3E059
:1037E300FAA3E090016EC9F0A3EAF0A3E9F0900018
:1037F300B3E0FF900171E4F0A3EFF07B017A02796B
:103803000112333A90015F7401F0A37402F0A374C0
:1038130001F07B017A01794812352D78347C017DE2
:10382300017B017A0179487E007F141223F1EF6056
:06383300037F01227F006B
:01383900226C
:0B3C81009000ACEBF0A3EAF0A3E9F028
:103C8C0078B27C007D017BFF7A02794E7E007F80CA
:103C9C0012204E78327C017D017BFF7A0279CE7E38
:103CAC00007F0812204E9000B27488F0E4A3F0A3B9
:103CBC00F0A37408F078B67C007D019000AFE0FBB7
:103CCC00A3E0FAA3E0F97E007F0812204E7B017A74
:103CDC000079B29001C7740CF0E4FF12439DE433F9
:103CEC0060037F01227B017A0079B29001C7740ACC
:103CFC00F07F01124313E433FF700B9000B2E0B479
:103D0C009004A3E060037F01229000ACE0F9A3E0F3
:103D1C00FAA3E0900142C9F0A3EAF0A3E9F0A3747E
:103D2C0001F0A37401F0A37432F09000AFE0FBA398
:103D3C00E0FAA3E0F91241F778B47C007D017B0135
:103D4C007A0179327E007F081223F1EF60037F0144
:033D5C00227F00C3
:013D5F002241
:0B3D60009000ACEBF0A3EAF0A3E9F048
:103D6B0078AF7C007D017BFF7A0279D67E007F8065
:103D7B0012204E782F7C017D017BFF7A0379567ED2
:103D8B00007F0812204E78377C017D017BFF7A0380
:103D9B00795E7E007F0812204E7B017A0179371203
:103DAB0040D4EF60037F01229000ACE0F9A3E0FA6E
:103DBB00A3E0900142C9F0A3EAF0A3E9F0A37401D8
:103DCB00F0A37401F0A3742FF07B017A0179371201
:103DDB0041F79000AF7482F0E4A3F0A3F0A3740852
:103DEB00F078B37C007D017B017A01792F7E00FF97
:103DFB0012204E7B017A0079AF9001C7740CF0E46E
:103E0B00FF12439DE43360037F01227B017A00792B
:103E1B00AF9001C77402F07F01124313E433700BB0
:103E2B009000AFE0B49004A3E060037F01227F0019
:013E3B002264
:103F02009000ACEEF0A3EFF0A3EBF0A3EAF0A3E98C
:013F1200F0BE
:103F130078B27C007D017BFF7A0379667E007F8027
:103F230012204E9000B274B0F09000ACE0FCA3E01D
:103F3300FDEC9000B3F0A3EDF09000B1E09000B57C
:103F4300F07B017A0079B29001C77404F0E4FF12A8
:103F5300439DE43360037F01227B017A0079B290B1
:103F630000B1E024029001C7F07F01124313E43350
:103F7300700B9000B2E0B49004A3E060037F0122D1
:103F83009000B1E0FF7E009000AEE0FBA3E0FAA357
:103F9300E0F8AC02AD037B017A0079B412204E7FC6
:013FA300001D
:013FA40022FA
:103965009000ACEBF0A3EAF0A3E9F0A3ECF0A3ED33
:01397500F061
:1039760078B57C007D017BFF7A0379E67E007F8047
:1039860012204E9000B4E02407FFE433FEEF7803E4
:10399600CEC313CE13D8F975F008A4900135F0FD07
:1039A6009000B574B1F09000AFE0FAA3E0FBEA90A6
:1039B60000B6F0A3EBF0A3EDF07B017A0079B590A9
:1039C60001C77404F0E4FF12439DE43360037F01F2
:1039D600227B017A0079B5900135E024029001C777
:1039E600F07F01124313E433700B9000B5E0B490FE
:1039F60004A3E060037F0122E4900136F0900135D4
:103A0600E0FFA3E0C39F5049E0FF24B7F9E4340088
:103A1600FA7B01C003C002C0019000ACE0F9A3E04C
:103A2600FAA3E090016BC9F0A3EAF0A3E9F074B73A
:103A36002FF9E43400FAA3EBF0A3EAF0A3E9F0D0FF
:103A460001D002D003124588900136E02408F080A8
:103A5600AC9000B4E0FF7E009000B1E0FBA3E0FA7A
:103A6600A3E0F8AC02AD037B017A0079B712204ED1
:023A76007F00CF
:013A7800222B
:103FA5009000ACEEF0A3EFF0A3EBF0A3EAF0A3E9E9
:013FB500F01B
:103FB60078B27C007D017BFF7A0479667E007F8083
:103FC60012204E9000B274D6F09000ACE0FCA3E054
:103FD600FDEC9000B3F0A3EDF09000B1E0FF90008F
:103FE600B5F07E0078B67C007D019000AEE0FBA3C4
:103FF600E0FAA3E0F912204E7B017A0079B2900034
:10400600B1E024049001C7F0E4FF12439DE433605D
:10401600037F01227B017A0079B29001C77402F016
:104026007F01124313E433700B9000B2E0B49004A6
:09403600A3E060037F01227F007A
:01403F00225E
:0E3E3C009000ACEBF0A3EAF0A3E9F0A3EDF0E8
:103E4A0078B67C007D017BFF7A0479E67E007F806C
:103E5A0012204E9000B67472F0E4A3F0A3F0900022
:103E6A00AFE0FF9000B9F07E0078BA7C007D019047
:103E7A0000ACE0FBA3E0FAA3E0F912204E7B017A42
:103E8A000079B69000AFE024049001C7F0E4FF1275
:103E9A00439DE43360037F01227B017A0079B69067
:103EAA0001C77403F07F01124313E433700B9000CF
:103EBA00B6E0B49004A3E060037F01229000B3E06F
:103ECA00FBA3E0FAA3E0F974011220BA9000B3E070
:103EDA00FBA3E0FAA3E0F9122074FF7E009000B081
:103EEA00E0FBA3E0FAA3E0F8AC02AD037B017A00A1
:073EFA0079B812204E7F0091
:013F0100229D
:0B383A009000ACEBF0A3EAF0A3E9F073
:1038450078B97C007D017BFF7A0579667E007F80F3
:1038550012204E78397C017D017BFF7A0579E67E61
:10386500007F0812204E9000B97473F0E4A3F0A312
:10387500F0A37408F09000B2E0FF7E0078397C0177
:103885007D019000AFE0FBA3E0FAA3E0F912204E22
:103895009000ACE0F9A3E0FAA3E090016BC9F0A3B6
:1038A500EAF0A3E9F0A37401F0A37400F0A374BDDA
:1038B500F07B017A0179391245537B017A0079B998
:1038C5009001C7740CF0E4FF12439DE43360037F5D
:1038D50001227B017A0079B99001C7740AF07F0152
:1038E500124313E433FF700B9000B9E0B49004A3C6
:1038F500E060037F01229000ACE0F9A3E0FAA3E0C9
:1039050090016BC9F0A3EAF0A3E9F0A37401F0A359
:103915007401F0A37439F07B017A0079BB124588F4
:103925009000B2E0FF9000B6E0FBA3E0FAA3E0F957
:10393500EF1220BA9000B6E0FBA3E0FAA3E0F9127B
:103945002074FF7E009000B3E0FBA3E0FAA3E0F84B
:0F395500AC02AD037B017A01793912204E7F005D
:013964002240
:0B3B84009000ACEBF0A3EAF0A3E9F026
:103B8F0078B57C007D017BFF7A0579EE7E007F8022
:103B9F0012204E78357C017D017BFF7A06796E7E8F
:103BAF00007F0812204E9000B574A0F0E4A3F0A39C
:103BBF00F0A37408F078B97C007D019000AFE0FBB2
:103BCF00A3E0FAA3E0F97E007F0812204E7B017A72
:103BDF000079B59001C7740CF0E4FF12439DE433F4
:103BEF0060037F01227B017A0079B59001C7740AC7
:103BFF00F07F01124313E433700B9000B5E0B490E3
:103C0F0004A3E060037F0122E4FF9000AFE0FBA379
:103C1F00E0FAA3E0F98F8275830012208DFE74B74E
:103C2F002FF582E43400F583E06EFE74352FF582B4
:103C3F00E43401F583EEF00FEFB408CE9000ACE062
:103C4F00F9A3E0FAA3E0900142C9F0A3EAF0A3E9D7
:103C5F00F09000B2E0F9A3E0FAA3E0900145C9F0BB
:103C6F00A3EAF0A3E9F07B017A0179351241F77FDE
:013C7F000044
:013C80002221
:0B3A79009000ACEBF0A3EAF0A3E9F032
:103A840078B67C007D017BFF7A0679767E007F80A4
:103A940012204E78367C017D017BFF7A0679F67E12
:103AA400007F0812204E9000B674A2F0E4A3F0A3A5
:103AB400F0A37408F09000B2E0FF7E0078367C0139
:103AC4007D019000AFE0FBA3E0FAA3E0F912204EE1
:103AD4009000ACE0F9A3E0FAA3E090016BC9F0A375
:103AE400EAF0A3E9F0A37401F0A37400F0A374BA9C
:103AF400F07B017A0179361245537B017A0079B65D
:103B04009001C7740CF0E4FF12439DE43360037F1B
:103B140001227B017A0079B69001C7740AF07F0113
:103B2400124313E433FF700B9000B6E0B49004A387
:103B3400E060037F01229000ACE0F9A3E0FAA3E087
:103B440090016BC9F0A3EAF0A3E9F0A37401F0A318
:103B54007401F0A37436F07B017A0079B8124588B9
:103B64009000B2E0FF7E00A3E0FBA3E0FAA3E0F83C
:0F3B7400AC02AD037B017A01793612204E7F003F
:013B8300221F
:0300000002465D58
:0C465D00787FE4F6D8FD75812702462620
:101F7E00E709F608DFFA8046E709F208DFFA803E45
:101F8E0088828C83E709F0A3DFFA8032E309F60832
:101F9E00DFFA8078E309F208DFFA807088828C839A
:101FAE00E309F0A3DFFA806489828A83E0A3F6084E
:101FBE00DFFA805889828A83E0A3F208DFFA804C28
:101FCE0080D280FA80C680D4806980F280338010FF
:101FDE0080A680EA809A80A880DA80E280CA803368
:101FEE0089828A83ECFAE493A3C8C582C8CCC583E0
:101FFE00CCF0A3C8C582C8CCC583CCDFE9DEE780B0
:10200E000D89828A83E493A3F608DFF9ECFAA9F02E
:10201E00EDFB2289828A83ECFAE0A3C8C582C8CC84
:10202E00C583CCF0A3C8C582C8CCC583CCDFEADE9D
:10203E00E880DB89828A83E493A3F208DFF980CCFF
:10204E0088F0EF60010E4E60C388F0ED2402B404F8
:10205E000050B9F582EB2402B4040050AF2323459F
:06206E008223901FCE73D7
:10207400BB010689828A83E0225002E722BBFE026A
:09208400E32289828A83E493229D
:10208D00BB010CE58229F582E5833AF583E0225008
:10209D0006E92582F8E622BBFE06E92582F8E22252
:0D20AD00E58229F582E5833AF583E493226C
:1020BA00BB010689828A83F0225002F722BBFE0105
:0220CA00F322FF
:1020CC00F8BB010DE58229F582E5833AF583E8F04A
:1020DC00225006E92582C8F622BBFE05E92582C8F6
:0220EC00F222DE
:0D20EE00CFF4CFCEF4CECDF4CDCCF4CC2287
:1020FB00EB9FF5F0EA9E42F0E99D42F0E89C45F03B
:01210B0022B1
:10210C00E8600FECC313FCED13FDEE13FEEF13FFB1
:03211C00D8F122D5
:10211F00E8600FEFC333FFEE33FEED33FDEC33FC1E
:03212F00D8F122C2
:10213200BB010789828A830224615005E9F80224DF
:1021420055BBFE05E9F802246D89828A830224794F
:10215200BB010DE58229F582E5833AF5830224610C
:102162005007E92582F8022455BBFE07E92582F8CB
:1021720002246DE58229F582E5833AF5830224790A
:10218200BB010789828A830221F05005E9F8022403
:0A219200BFBBFE05E9F80224CB22D2
:10219C00BB010DE58229F582E5833AF5830221F036
:1021AC005007E92582F80224BFBBFE07E92582F817
:0421BC000224CB220C
:1021C000BB010DE58229F582E5833AF58302249669
:1021D0005007E92582F8022489BBFE07E92582F829
:1021E0000224A2E58229F582E5833AF5830224AF31
:0C21F000ECF0A3EDF0A3EEF0A3EFF02262
:1021FC00A8828583F0D083D082122213122213126C
:10220C002213122213E473E493A3C583C5F0C58390
:10221C00C8C582C8F0A3C583C5F0C583C8C582C82C
:01222C00228F
:10222D00BB010789828A830221FC5005E9F802244B
:0A223D00D7BBFE05E9F80224F022E9
:10224700BB010DE58229F582E5833AF5830221FC7E
:102257005007E92582F80224D7BBFE07E92582F853
:042267000224F0223B
:1044C2009002651224617810EC4D4E4F70047CA569
:1044D2007DA5C3EC13FCED13FDEE13FEEF13FF50AD
:1044E20010EC64CCFCED644CFDEE644EFEEF64CE49
:1044F200FFD8DF9002651221F0EE547FFE22900277
:0D45020065EEF0EFA3F0A374A5F0A3F02286
:10226B00E3F5F009E208B5F06BDFF58067E3F5F015
:10227B0009E608B5F05EDFF5805A87F009E608B588
:10228B00F052DFF6804E87F009E208B5F046DFF634
:10229B00804288828C8387F009E0A3B5F036DFF6A5
:1022AB00803288828C8387F009E493A3B5F025DF15
:1022BB00F5802188828C83E3F5F009E0A3B5F01457
:1022CB00DFF5801088828C83E3F5F009E493A3B5E6
:1022DB00F002DFF402239A808780E9809080D4801B
:1022EB003E8015806E807E809D80B7808D80A38020
:1022FB00518074803C0223A689828A83ECFAE49392
:10230B00F5F0A3C8C582C8CCC583CCE493A3C8C5DC
:10231B0082C8CCC583CCB5F076DFE3DEE180708973
:10232B00828A83E493F5F0A3E208B5F062DFF480D0
:10233B005E89828A83E0F5F0A3E608B5F051DFF5FC
:10234B00804D89828A83E0F5F0A3E208B5F040DF87
:10235B00F5803C89828A83E493F5F0A3E608B5F017
:10236B002EDFF4802A8002805789828A83ECFAE47C
:10237B0093F5F0A3C8C582C8CCC583CCE0A3C8C570
:10238B0082C8CCC583CCB5F006DFE4DEE280007FEB
:10239B00FFB5F0020F2240027F012289828A83EC73
:1023AB00FAE0F5F0A3C8C582C8CCC583CCE0A3C8BE
:1023BB00C582C8CCC583CCB5F0D5DFE5DEE380CFD5
:1023CB0089828A83ECFAE0F5F0A3C8C582C8CCC534
:1023DB0083CCE493A3C8C582C8CCC583CCB5F0AF7E
:1023EB00DFE4DEE280A988F0EF60010E4E60ABED1A
:1023FB002402B404005098F582EB2402B40400507C
:0A240B008E23234582239022E27302
:10241500EF4E6012EF60010EEDBB010B89828A83DE
:10242500F0A3DFFCDEFA2289F05007F709DFFCA9EB
:0C243500F022BBFEFCF309DFFCA9F02242
:10244100EF08800C33CE33CECD33CDCC33CC92E0FC
:04245100D8F2FF229C
:0C245500E6FC08E6FD08E6FE08E6FF22B3
:0C246100E0FCA3E0FDA3E0FEA3E0FF22EE
:0C246D00E2FC08E2FD08E2FE08E2FF22AB
:10247900E493FC740193FD740293FE740393FF22A9
:0D248900E6FB08E6F908E6FA08E6CBF822C3
:0C249600E0F8A3E0F9A3E0FAA3E0FB22C9
:0D24A200E2FB08E2F908E2FA08E2CBF822BA
:1024AF00E493F8740193F9740293FA740393FB2283
:0C24BF00ECF608EDF608EEF608EFF62249
:0C24CB00ECF208EDF208EEF208EFF2224D
:1024D700D083D082E493F608740193F608740293CC
:0924E700F608740393F674047303
:1024F000D083D082E493F208740193F208740293BB
:09250000F208740393F2740473F1
:00000001FF
