:10029F00070B0D0E0E0D0B070603090C0C090306B9
:1002AF000607030B090D0C0E0E0C0D090B030706A9
:0402BF0002080080B1
:1002570012008F12027D1200DB12027D120127129B
:10026700027D12017312027D1201BF12027D12027A
:060277000B12027D80DA8B
:04027D007FC87E00B8
:10028100D3EF9400EE940040147D6E7C00ED1D7060
:0D029100011CED4C70F7EF1F70E61E80E3BE
:01029E00223D
:10008F00E4F50EF50FC3E50F9509E50E9508503B06
:10009F00E4F50CF50DF50AF50BE50D90029F93F5C0
:1000AF00907F057E00120281050DE50D7002050C93
:1000BF00050BE50B7002050AC39404E50A94004092
:0C00CF00D8050FE50F70BE050E80BA22A8
:1000DB00E4F50EF50FC3E50F9509E50E9508503BBA
:1000EB00E4F50CF50DF50AF50BE50D9002A393F570
:1000FB00907F057E00120281050DE50D7002050C47
:10010B00050BE50B7002050AC39404E50A94004045
:0C011B00D8050FE50F70BE050E80BA225B
:10012700E4F50EF50FC3E50F9509E50E9508503B6D
:10013700E4F50CF50DF50AF50BE50D9002A793F51F
:10014700907F087E00120281050DE50D7002050CF7
:10015700050BE50B7002050AC39404E50A940040F9
:0C016700D8050FE50F70BE050E80BA220F
:10017300E4F50EF50FC3E50F9509E50E9508503B21
:10018300E4F50CF50DF50AF50BE50D9002AB93F5CF
:10019300907F087E00120281050DE50D7002050CAB
:1001A300050BE50B7002050AC39404E50A940040AD
:0C01B300D8050FE50F70BE050E80BA22C3
:1001BF00E4F50EF50FC3E50F9509E50E9508503BD5
:1001CF00E4F50CF50DF50AF50BE50D9002AF93F57F
:1001DF00907F027E00120281050DE50D7002050C65
:1001EF00050BE50B7002050AC39408E50A9400405D
:0C01FF00D8050FE50F70BE050E80BA2277
:10020B00E4F50EF50FC3E50F9509E50E9508503B88
:10021B00E4F50CF50DF50AF50BE50D9002B793F52A
:10022B00907F027E00120281050DE50D7002050C18
:10023B00050BE50B7002050AC39408E50A94004010
:0C024B00D8050FE50F70BE050E80BA222A
:03000000020003F8
:0C000300787FE4F6D8FD75810F02004AFA
:10000F00020257E493A3F8E493A34003F68001F2AE
:10001F0008DFF48029E493A3F85407240CC8C333F2
:10002F00C4540F4420C8834004F456800146F6DFC1
:10003F00E4800B01020408102040809002BFE47E90
:10004F00019360BCA3FF543F30E509541FFEE493B6
:10005F00A360010ECF54C025E060A840B8E493A37D
:10006F00FAE493A3F8E493A3C8C582C8CAC583CAA8
:10007F00F0A3C8C582C8CAC583CADFE9DEE780BE60
:0102C300003A
:00000001FF
