:020000040800F2
:1000000000A3002055020008E3090008B905000814
:10001000DF0900081D0400082D140008000000007E
:100020000000000000000000000000009D0100082A
:10003000E104000800000000F1010008F50C0008D0
:100040006F0200086F0200086F0200086F020008CC
:100050006F0200086F0200086F0200086F020008BC
:100060006F0200086F0200086F0200086F020008AC
:100070006F0200086F0200086F0200086F0200089C
:100080006F0200086F0200086F0200086F0200088C
:100090006F0200086F0200086F0200086F0200087C
:1000A0006F0200086F0200086F0200086F0200086C
:1000B000910D00086F0200086F0200086F0200082F
:1000C0006F0200086F0200086F0200086F0200084C
:1000D0006F020008F10F000801100008111000085D
:1000E0006F0200086F0200086F0200086F0200082C
:1000F0006F0200086F0200086F0200086F0200081C
:100100006F0200086F0200086F0200086F0200080B
:100110006F0200086F0200082D0E00086F02000831
:100120006F0200086F0200086F0200086F020008EB
:100130006F0200086F0200086F0200086F020008DB
:100140006F0200086F0200086F0200086F020008CB
:100150006F0200086F0200086F02000821100008FB
:100160006F0200086F0200086F0200086F020008AB
:100170006F0200086F0200086F0200086F0200089B
:100180006F0200086F020008DFF80CD000F0BEF824
:1001900000480047A11E000800A300202A4B196850
:1001A0000868B0E8F04F80F30988BFF36F8F4FF015
:1001B000000080F3118870470000000006480068C6
:1001C000006880F3088862B661B6BFF34F8FBFF353
:1001D0006F8F00DF00BF00BF08ED00E0DFF80C000C
:1001E000016841F470010160704700BF88ED00E0D4
:1001F000EFF30980BFF36F8F134B1A681EF0100FD7
:1002000008BF20ED108A20E9F04F106008B44FF0CD
:10021000100080F31188BFF34F8FBFF36F8F02F090
:1002200095FD4FF0000080F3118808BC196808683C
:10023000B0E8F04F1EF0100F08BFB0EC108A80F34A
:100240000988BFF36F8F704758000020EFF30580D7
:10025000704700000648804706480047FEE7FEE773
:10026000FEE7FEE7FEE7FEE7FEE7FEE7FEE7FEE766
:10027000290D00088901000840EA01039B0703D00B
:1002800009E008C9121F08C0042AFAD203E011F8D5
:10029000013B00F8013B521EF9D27047D2B201E097
:1002A00000F8012B491EFBD270470022F6E710B57B
:1002B00013460A4604461946FFF7F0FF204610BDD4
:1002C000421C10F8011B0029FBD1801A704703461D
:1002D00011F8012B00F8012B002AF9D118467047BC
:1002E00030B50B46014600202022012409E021FA06
:1002F00002F59D4205D303FA02F5491B04FA02F503
:100300002844151EA2F10102F1DC30BD064C074D58
:1003100006E0E06840F0010394E8070098471034D5
:10032000AC42F6D3FFF734FF68390008883900087B
:1003300010B5002201210A2002F0A0FE0449086045
:10034000002204210A2002F099FE0249086010BD33
:1003500010000020140000201FB500201B4A0123BC
:10036000CDE901200093039003464FF4007218A1D9
:100370001A4803F081F80020194A0223CDE9012030
:100380000093039003464FF4007216A1184803F03F
:1003900073F80020174A0323CDE90120009303904E
:1003A00003464FF4007214A1164803F065F80020CC
:1003B000154A0423CDE901200093039003464FF42E
:1003C000007212A1144803F057F81FBD000000206E
:1003D000765461736B55736572494600192E000897
:1003E00004000020765461736B4C4544000000000B
:1003F000F129000808000020765461736B4D736783
:1004000050726F00952B00080C0000207654617329
:100410006B53746172740000A92C000800BFFEE7E2
:10042000014609B90B487047012901D10A48FAE78A
:10043000022901D10948F6E7032901D10020F2E79A
:10044000042901D10020EEE7052901D10448EAE79B
:100450000020E8E780010020A8090020D01100203A
:10046000F819002008B525208DF8000001208DF82E
:10047000010000208DF8020001208DF8030068467D
:1004800000F0B0FA26208DF8000001208DF8010060
:1004900000208DF8020001208DF80300684600F06E
:1004A000A1FA27208DF8000001208DF8010000201E
:1004B0008DF8020001208DF80300684600F092FAE2
:1004C00047208DF8000001208DF8010000208DF8F4
:1004D000020001208DF80300684600F083FA08BD91
:1004E0007047F0B50A4600210023002400BF3DE01C
:1004F000012505FA01F3156805EA03049C4234D18D
:1005000005684F000326BE40B543056015794E00CF
:10051000B5400668354305601579012D02D015797F
:10052000022D16D185684F000326BE40B543856075
:1005300055794E00B540866835438560456801268B
:100540008E40B5434560456896798E40B6B23543D6
:100550004560C5684F000326BE40B543C560D579E8
:100560004E00B540C6683543C560491C1029BFD34D
:10057000F0BDF0B5002300244D07ED0E02FA05F39F
:10058000CE1000F1200555F826504E07F70E0F2625
:10059000BE40B543CF1000F1200646F82750CE10DC
:1005A00000F1200555F8265045EA0304CE1000F16D
:1005B000200545F82640F0BD08A100200AE00A5CAD
:1005C000114B9A8000BF104A128812F0400FFAD0E7
:1005D000421CD0B22A28F2D300BFFEE70D0A456EB6
:1005E00074657220486172644661756C745F48611D
:1005F0006E646C65722C2053797374656D2048614C
:100600006C742E0D0A0000000010014000B587B088
:100610000121084600F02CFA0121102000F048FAD0
:1006200007220921AA48FFF7A4FF07220A21A848A8
:10063000FFF79FFF00208DF81A0001208DF81B00A6
:1006400002208DF818000002059002208DF8190094
:1006500005A99F48FFF745FF02208DF818004002CA
:10066000059005A99A48FFF73CFF4FF4E13001904F
:100670000020ADF80800ADF80A00ADF80C00ADF8A8
:1006800010000C20ADF80E0001A9924800F034FDD6
:10069000012240F225518F4800F009FD01218D48CB
:1006A00000F0CFFC40218B4800F0C2FC012108463D
:1006B00000F0DEF90121480400F0EAF907220321E5
:1006C0008348FFF756FF00208DF81A0001208DF8AF
:1006D0001B0002208DF818008DF8180008200590E6
:1006E00002208DF8190005A97948FFF7FAFE4FF4AA
:1006F000165001900020ADF80800ADF80A00ADF8E2
:100700000C00ADF810000420ADF80E0001A97248ED
:1007100000F0F2FC012240F225516F4800F0C7FCC6
:1007200001216D4800F08DFC40216B4800F080FCF9
:100730000121022000F09CF901208DF81800002012
:100740008DF81A008DF81B0003208DF81900042085
:10075000059005A96148FFF7C4FE0121022000F0C1
:1007600087F90121880400F093F907220A215B48E8
:10077000FFF7FFFE07220B215848FFF7FAFE002083
:100780008DF81A0001208DF81B0002208DF818004A
:100790004002059002208DF8190005A94F48FFF787
:1007A000A0FE02208DF818008002059005A94B4894
:1007B000FFF797FE4FF4165001900020ADF80800A7
:1007C000ADF80A00ADF80C00ADF810000C20ADF843
:1007D0000E0001A9424800F08FFC012240F2255191
:1007E0003F4800F064FC01213D4800F02AFC402114
:1007F0003B4800F01DFC0121442000F039F90121A3
:10080000202000F055F908220E213648FFF7B1FEEE
:10081000082207213448FFF7ACFE08221146314870
:10082000FFF7A7FE08220F212E48FFF7A2FE0020A7
:100830008DF81A0001208DF81B0002208DF8180099
:100840004003059002208DF8190005A92548FFF7FF
:1008500048FE02208DF818008020059005A9224846
:10086000FFF73FFE02208DF81800C001059005A992
:100870001C48FFF736FE02208DF818008003059013
:1008800005A91848FFF72DFE4FF4E1300190002034
:10089000ADF80800ADF80A00ADF80C00ADF8100096
:1008A0000C20ADF80E0001A9104800F025FC012233
:1008B00040F225510D4800F0FAFB01210B4800F0F1
:1008C000C0FB4021094800F0B3FB07B000BD0000A9
:1008D00000000240001001400044004000040240BB
:1008E0000048004000180240000802400014014087
:1008F0000448006910F4807F01D101207047002076
:10090000FCE700000020024010B5FFF7F1FF20B126
:1009100000F006F808B1012010BD0020FCE700003F
:100920000448006810F4005F01D1012070470020E6
:10093000FCE70000100802400448006910F4006F52
:1009400001D1012070470020FCE700000020024098
:100950000448006810F0040F01D101207047002006
:10096000FCE70000101C02400448006810F0080F6B
:1009700001D1012070470020FCE70000101C02405C
:100980000448006810F4006F01D101207047002076
:10099000FCE70000101402400448006810F0800FCB
:1009A00001D1012070470020FCE700001018024030
:1009B0000448006810F4004F01D101207047002066
:1009C000FCE70000101C024010B5FFF791FF20B1BA
:1009D000FFF7A6FF08B1012010BD0020FCE700BF13
:1009E000FEE7704770B5002100230F22C47824B3BE
:1009F000174C246804F4E064C4F5E064C4F30721F0
:100A0000C1F10404E3B20A4144789C40E1B2847825
:100A1000144021430C07210E0E4C057861550478D3
:100A200004F01F050124AC4005786D114FF0E0265D
:100A300006EB8505C5F8004109E0047804F01F04C1
:100A40000125A540044C0678761144F8265070BD67
:100A50000CED00E000E400E080E100E00249014329
:100A6000024A1160704700000000FA050CED00E03A
:100A700029B1064A12680243044B1A6004E0034A93
:100A800012688243014B1A60704700003038024000
:100A900029B1064A12680243044B1A6004E0034A73
:100AA00012688243014B1A607047000040380240D0
:100AB00029B1064A12680243044B1A6004E0034A53
:100AC00012688243014B1A607047000044380240AC
:100AD000F0B5002100220024022500260223324F17
:100AE0003F6807F00C0121B1042905D0082937D14E
:100AF00005E02E4F076036E02D4F076033E02A4FA8
:100B00003F1F3F68C7F38056274F3F1F3F6807F0DE
:100B10003F036EB1264FB7FBF3F7DFF88CC0ACF1A3
:100B2000040CDCF800C0CCF3881C07FB0CF40CE0D0
:100B30001E4FB7FBF3F7DFF870C0ACF1040CDCF824
:100B400000C0CCF3881C07FB0CF4174F3F1F3F6815
:100B5000C7F301477F1C7D00B4FBF5F7076002E097
:100B6000124F076000BF00BF0F4F3F6807F0F00152
:100B70000909104F7A5C0768D74047600A4F3F6801
:100B800007F4E051890A0B4F7A5C4768D7408760C9
:100B9000054F3F6807F46041490B064F7A5C476890
:100BA000D740C760F0BD0000083802400024F400C0
:100BB00040787D01310000201CB501210220FFF7A3
:100BC00057FF01208DF8040000208DF806008DF8F5
:100BD000070003208DF805000420009069460248B4
:100BE000FFF77FFC1CBD00000004024070470000BE
:100BF000042001490880704718040240042001497C
:100C0000088070471A0402400CB500200190009043
:100C10003448006840F480303249086000BF3148F1
:100C2000006800F4003000900198401C019000988A
:100C300018B90198B0F5A04FF1D12A48006810F416
:100C4000003F02D00120009001E0002000900098B9
:100C5000012845D123484030006840F080502149A8
:100C6000403108602048006840F440401E49086058
:100C70001C48083000681B490831086008460068B5
:100C800040F4004008600846006840F4A050086046
:100C90001648091F0860081F006840F08070091F8F
:100CA000086000BF0F48006810F0007FFAD040F2E3
:100CB00005700F4908600B480830006820F00300F9
:100CC0000849083108600846006840F002000860E2
:100CD00000BF04480830006800F00C000828F8D174
:100CE0000CBD00000038024000700040195440075D
:100CF000003C024010B500BF1020EFF3118180F3DB
:100D00001188BFF34F8FBFF36F8F00BF02F06CFCF1
:100D100018B14FF0805003490860002080F311881B
:100D200000BF10BD04ED00E010B51548006840F4A8
:100D30007000134908601348006840F00100114931
:100D4000086000200F49083108600E4800680E490D
:100D500008400C4908600D48091D0860081F00681C
:100D600020F48020091F0860002006490C3108602B
:100D7000FFF74AFF4FF0006001498039086010BD5D
:100D800088ED00E000380240FFFFF6FE103000243E
:100D900010B50221480700F0C7F858B102214807F2
:100DA00000F0B0F800220221480700F0CEF81B48FE
:100DB000006880470421080700F0B6F858B1042104
:100DC000080700F09FF800220421080700F0BDF892
:100DD0001348006880470821C80600F0A5F858B1FC
:100DE0000821C80600F08EF800220821C80600F08D
:100DF000ACF80C48006880471021880600F094F891
:100E000058B11021880600F07DF8002210218806D4
:100E100000F09BF804480068804710BD20000020C7
:100E200024000020280000202C00002010B5012103
:100E3000064800F079F840B105480068401C0449B4
:100E400008600121014800F05DF810BD001000406D
:100E50001C00002021B1028842F08002028004E0E0
:100E600002884FF67F731A400280704708B5002051
:100E700000900B480068401C0949086000236A463E
:100E80000848006802F03AFA009838B14FF08050F4
:100E900005490860BFF34F8FBFF36F8F08BD000097
:100EA000180000201000002004ED00E01CB5002018
:100EB00000901148019001980078401C0199087039
:100EC00001988068401C0199886001984088401C06
:100ED0000199488000236A4601A90848006802F089
:100EE0000DFA009838B14FF0805005490860BFF303
:100EF0004F8FBFF36F8F1CBDC00000201400002077
:100F000004ED00E0CA430282704721B1028842F03A
:100F10000102028004E002884FF6FE731A4002804C
:100F200070470146486A704730B5024600200023EA
:100F30000024158A05EA0103958905EA010413B125
:100F40000CB1012000E0002030BD1AB183890B43B1
:100F5000838102E083898B438381704741637047BB
:100F600081637047C1637047016470470022028843
:100F7000184B98420ED0184B98420BD0B0F1804FCE
:100F800008D0164B984205D0154B984202D0154B0D
:100F9000984204D14FF68F731A404B881A43124B74
:100FA000984207D0114B984204D04FF6FF431A40A5
:100FB0000B891A4302804B68C3620B880385054B7B
:100FC000984202D0044B984201D18B7A03860123C8
:100FD000838270470000014000040140000400408B
:100FE00000080040000C00400010004000140040C9
:100FF00010B5024800F0F3F810BD00008001002099
:1010000010B5024800F0EBF810BD0000A809002060
:1010100010B5024800F0E3F810BD0000D011002028
:1010200010B5024800F0DBF810BD0000F8190020F0
:1010300001F40072B2F5007F00D100BFCA43028004
:10104000704721B1828942F40052828104E0828992
:101050004DF6FF731A408281704770B50246002436
:10106000002300250020A1F510666A3E00D100BFD4
:10107000C1F3421501F01F03012606FA03F3012D07
:1010800002D19689334006E0022D02D1168A334000
:1010900001E0968A33400C12012606FA04F4168801
:1010A000344013B10CB1012000E0002070BDF0B558
:1010B00003460024002600250020A1F510676A3FA2
:1010C00000D100BF1846C1F3421401F01F060127EA
:1010D00007FA06F5012C01D10C3004E0022C01D1F5
:1010E000103000E014301AB107682F43076002E0A7
:1010F0000768AF430760F0BD2DE9FF4705460E4680
:101100000024A14600BFA046B08900B100BF2C8AD0
:1011100024F44054F08804432C82AC8941F20C60E2
:101120008443B08831890843718908430443AC8102
:10113000AC8A24F44074B0890443AC826846FFF75B
:10114000C7FC2048854202D01F48854202D1DDF805
:101150000C9001E0DDF80890A88910F4004F08D049
:1011600009EBC90000EB091031684900B0FBF1F749
:1011700007E009EBC90000EB091031688900B0FBFA
:10118000F1F76420B7FBF0F004012009642101FBB2
:101190001078A88910F4004F08D0322000EBC80066
:1011A000B0FBF1F000F00700044308E0322000EB50
:1011B00008106421B0FBF1F000F00F0004432C8113
:1011C000BDE8FF87001001400014014001468888F7
:1011D000C0F308007047C1F308028280704770B501
:1011E000044640F225512068FFF737FFE0B1206840
:1011F000FFF7ECFFC5B2E18AA0684554E08A401CC5
:1012000080B2E082E189884201DB0020E082608BCD
:10121000E189884202DA608B401C6083606A10B109
:101220002846616A884700BF40F227712068FFF7AF
:1012300014FF08B3A08A60B9002240F22771206829
:10124000FFF735FF012240F226612068FFF72FFFEC
:1012500037E0638A6268D15C2068FFF7BCFF608A70
:10126000401C80B26082A189884201DB002060823C
:10127000A08A401EA08224E040F226612068FFF789
:10128000ECFEF0B1A08A50B9002240F2266120683D
:10129000FFF70DFF206AA0B1206A804711E0638A42
:1012A0006268D15C2068FFF796FF608A401C80B2BC
:1012B0006082A189884201DB00206082A08A401EF2
:1012C000A08270BDF8B504460E461746002525E0FD
:1012D0000CE001F001FAA08A009001F029FAA0893F
:1012E000BDF80010884200DD01E000BFF1E700BF5B
:1012F000705D228A6168885401F0EEF9208A401CF2
:1013000080B22082A189884201DB00202082A08A4D
:10131000401CA08201F00CFA681C85B2BD42D7DBEC
:10132000012240F227712068FFF7C1FEF8BD0000DE
:101330002B482C4908602C4848602C4888604FF4A2
:1013400080608881C881002008824882C882088322
:1013500048838882C8610862486225482549086038
:10136000254848602548886001208881C002C881DE
:10137000002008824882C882088348838882C86126
:10138000086248621E481F4908601F4848601F489D
:1013900088604FF480608881C8810020088248827C
:1013A000C8820883488388821948C861194808623E
:1013B0001948486219481A4908601A4848601A488A
:1013C00088604FF480608881C8810020088248824C
:1013D000C882088348838882C8610862486270476F
:1013E0000010014080010020A8010020A805002075
:1013F00000440040A809002030000020D00900204F
:1014000000480040D0110020F8110020F8150020FD
:10141000F10B0008FD0B0008ED0B00080014014063
:10142000F8190020201A0020201E002000BFFEE72F
:101430000FB4054B10B503A9044A029800F02CF82C
:1014400010BC5DF814FB00008F1E0008BC000020DB
:101450000FB4084B10B504A902AA039800F01CF8B9
:10146000044602A9002000F0F3F8204610BC5DF805
:1014700014FB00005116000802E008C8121F08C142
:10148000002AFAD170477047002001E001C1121F05
:10149000002AFBD1704700002DE9FF4F8BB09A4620
:1014A0000F4605460026C9E0252837D100246D1CCB
:1014B0006649A04601222B78203B02FA03F008423D
:1014C00002D004436D1CF6E728782E2817D115F8B2
:1014D000010F44F004042A280ED06FF02F02287860
:1014E000A0F1300109290AD808EB880102EB41017B
:1014F00000EB01086D1CF2E757F8048B6D1C28788F
:1015000069283FD006DC002871D063280CD06428FD
:1015100004D137E0732811D075284ED052460D996A
:10152000904706F1010688E017F8040B8DF80000DB
:1015300000208DF80100E946012003E057F8049BE4
:101540004FF0FF3061074FF0000401D40AE0641C43
:1015500044450DDA8442FADB19F804100029F6D16B
:1015600006E0641C8442FCDB19F804100029F8D161
:10157000264404E019F8010B52460D999047641E69
:10158000F8D25AE001CF4FF00A0B002804DAC0F17C
:1015900000004FF02D0102E0210504D52B218DF82C
:1015A0002410012103E0E10705D02021F7E70DF128
:1015B000200908910CE00021F9E701CF4FF00A0B58
:1015C000F9E75946FEF78CFE01F1300209F8012DCA
:1015D0000028F6D1ADEB090000F1200B600701D423
:1015E0004FF00108D84503DDA8EB0B0001E029E02E
:1015F00000208046002406E009A85246005D0D99AF
:101600009047761C641C08988442F5DB04E0302087
:1016100052460D999047761CB8F10001A8F10108D7
:10162000F5DC05E019F8010B52460D999047761C40
:10163000BBF10001ABF1010BF4DC6D1C2878002834
:101640007FF432AF0FB03046BDE8F08F09280100BB
:101650000A68531C0B6010707047000070B5054697
:10166000304800EB05142068804700283ED02079E0
:10167000052802DA0520207152E020790A2803DAD1
:101680002079401C20714BE0A07A38B90120A0726B
:1016900005EB4501491CC8B200F066FA2089002814
:1016A0003EDDE088218988420DDAE088401C80B266
:1016B000E0802189884233D105EB4501C91CC8B2BD
:1016C00000F052FA2CE0E07A002829DD207B401C53
:1016D000C0B22073E17A884222DB0020207305EB40
:1016E0004501491CC8B200F03FFA19E020790528ED
:1016F00002DD0520207110E0207918B12079401E0C
:1017000020710AE0A07A012807D10020A07205EB21
:101710004501891CC8B200F027FA0020E080207340
:1017200070BD0000D00000200B48807A0A4AD27AAF
:10173000904201D1002070470748807A064A115C28
:101740001046807A401CC0B290720A2801DB00204B
:1017500090720846EFE7000070010020014600206B
:10176000244A914201D1012042E0234A914201D111
:1017700002203DE0214A914202D14FF4803037E00F
:101780001F4A914202D14FF4003031E01D4A91428C
:1017900002D14FF480202BE0B1F1804F01D1012024
:1017A00026E0194A914201D1022021E0174A9142D4
:1017B00001D104201CE0164A914201D1082017E013
:1017C000144A914201D1102012E0134A914201D1F2
:1017D00020200DE0114A914201D1402008E0104A3A
:1017E000914201D1802003E00E4A914200D1881538
:1017F000704700000000014000040140004001402B
:10180000004401400048014000040040000800403E
:10181000000C004000100040001400400018004080
:10182000001C00400020004010B54FF44070FFF74E
:1018300015F900F039F900F039F800F0F7F800F088
:1018400001F810BD7FB501210846FFF721F91548C1
:10185000006846081448B6FBF0F085B24FF0FF343C
:101860000294ADF804500020ADF80C00ADF806006D
:1018700001A94FF08040FFF779FB01218807FFF7AE
:1018800044FB1C208DF8000004208DF8010000208E
:101890008DF8020001208DF803006846FFF7A2F8DA
:1018A0007FBD00004400002040420F0010B500F052
:1018B00053F800F001F810BD1CB501214FF4F2708F
:1018C000FFF7D6F800208DF804008DF806008DF89B
:1018D000070002208DF80500C001009069461948F4
:1018E000FEF7FFFD4FF40050009069461648FEF7E2
:1018F000F8FD4FF40060009069461248FEF7F1FDD4
:101900000420009069461148FEF7EBFD0820009086
:1019100069460E48FEF7E5FD4FF400600090694609
:101920000B48FEF7DEFD8020009069460948FEF76F
:10193000D8FD4FF40040009069460448FEF7D1FD01
:101940001CBD00000020024000080240001C0240B4
:1019500000140240001802400021284A9172D172FE
:101960001173002018E06421254A02EB0012118156
:101970000221234A02EB001211710021204A02EBDE
:10198000001291721E4A02EB0012D1721C4A02EB45
:1019900000121173411CC8B20A28E4DB6422184902
:1019A0000A87052281F83B206422A1F848200522FD
:1019B00081F84B206422A1F85820052281F85B2091
:1019C0006422A1F86820052281F86B200D490C4A99
:1019D00011600D4911610D4911620D4911630D49E5
:1019E00011640D4911650D4911660D4911670D49C5
:1019F000C2F880100C49C2F89010704770010020A6
:101A0000D0000020F1080008210900083909000869
:101A100051090008690900088109000899090008AE
:101A2000B1090008C9090008090900081CB501210D
:101A30004FF49270FFF71CF8012000F04BF80220E1
:101A400000F048F8032000F045F8042000F042F8C8
:101A500001208DF8040000208DF806008DF80700A5
:101A600003208DF805004FF48060009069460B4814
:101A7000FEF737FD8020009069460948FEF731FDEA
:101A80004FF48070009069460548FEF72AFD042057
:101A9000009069460348FEF724FD1CBD002002406B
:101AA000001402400008024010B5FFF741FCFEF7A9
:101AB000ADFDFFF781F8FEF7D5FC10BD10B5002491
:101AC00004E02046FFF7CAFD601CC4B20A2CF8DB14
:101AD00010BD0000411EC8B220B94FF480610A4A0F
:101AE000118310E0012803D18021084A11800AE007
:101AF000022803D1C101054A118004E0032802D164
:101B00000421034A1180704700200240181402404B
:101B100018080240012806D11049496981F4806102
:101B20000E4A516119E0022806D10D49096881F079
:101B300080010B4A116010E0032806D108490968AA
:101B400081F48071064A116007E0042805D1054937
:101B5000096881F00401034A1160704700200240C7
:101B600014140240140802400649C97A054A505428
:101B70001146C97A491CC9B2D1720A2901DB002178
:101B8000D1727047700100202DE9FF5F04460D46B9
:101B900091469A466F4884420BD06F48844208D0E1
:101BA0006E48844205D06E48844202D06D4884421B
:101BB00007D12046FFF7D2FD83460121FEF778FFCB
:101BC00006E02046FFF7CAFD83460121FEF760FFCD
:101BD0002DB900212046FFF798F9BDE8FF9F5D4829
:101BE00084420BD05C48844208D05C48844205D0D3
:101BF0005B48844202D05B48844202D15A4806685E
:101C000002E0594800684608642D0AD242F20F7873
:101C100042F21070B6FBF0F0B0FBF5F0401E87B258
:101C200013E040F6B830854209D24FF063086420D3
:101C3000B6FBF0F0B0FBF5F0401E87B205E04FF0C8
:101C40000008B6FBF5F0401E87B20297ADF804809D
:101C50000020ADF80C00ADF806008DF80E0001A9CB
:101C60002046FFF783F901212046FFF7F3F8012210
:101C700011462046FFF769F901212046FFF745F993
:101C80004FF0000B3348844202D03548844202D1E1
:101C90004FF0190B4FE0B4F1804F02D14FF01C0B05
:101CA00049E03248844202D14FF01D0B43E03048F6
:101CB000844202D14FF01E0B3DE02E48844202D1F7
:101CC0004FF0320B37E02C48844202D14FF0360BF4
:101CD00031E02A48844202D14FF0370B2BE02748ED
:101CE000844202D14FF0370B25E02448844202D1D0
:101CF0004FF0370B1FE01848844202D0204884423E
:101D000002D14FF02C0B16E01448844202D14FF060
:101D1000180B10E01348844202D14FF01A0B0AE06E
:101D20001848844202D14FF02B0B04E0154884423E
:101D300001D14FF02D0B8DF800B08DF801908DF88A
:101D400002A001208DF803006846FEF74BFE00BF9D
:101D500043E7000000000140000401400040014052
:101D600000440140004801404400002000040040BD
:101D700000080040000C004000100040001400402B
:101D8000001C0040001800402DE9F04104460E46BA
:101D90001546052E00D3761F4FF08040FFF7C1F89F
:101DA000074607EB0608012C0FD125480560414680
:101DB000A007FFF7D3F802214807FFF7A3F8012295
:101DC00002214807FFF7C1F838E0022C0FD11D4867
:101DD000056041466007FFF7C3F804210807FFF7D5
:101DE00091F8012204210807FFF7AFF826E0032C41
:101DF00010D11548056041464FF08040FFF7B2F81A
:101E00000821C806FFF77EF801220821C806FFF75F
:101E10009CF813E0042C0FD10C48056041462007C4
:101E2000FFF7A2F810218806FFF76CF801221021B5
:101E30008806FFF78AF801E0BDE8F08100BFFBE704
:101E40002000002024000020280000202C0000207A
:101E50002DE9F04105460E4617462846FEF7E0FA02
:101E600004460CB9BDE8F081E06908B1E06980473B
:101E70003A4631462046FFF725FA00BFF2E713B590
:101E80000446012201A92046FFF7E2FF1CBD70B500
:101E900004460D46E1B20020FFF7F1FF204670BD79
:101EA000012080F3108800BFFFF7BEFC00F0EEFCBD
:101EB000FEF752FAFEF73CFA00F0FEFE00BFFEE726
:101EC00010B504460E48006844600E48006884421D
:101ED00007D20B480168091D0B48006800F0D6FBCB
:101EE0000CE007480168091D0848006800F0CEFBB7
:101EF00007480068844201D20548046010BD000014
:101F00005800002064000020940000209000002071
:101F1000800000202DE9F04105460F461FB9A800BA
:101F200000F08CFA00E03846064656B1582000F022
:101F300085FA04460CB1266304E0304600F016FC36
:101F400000E0002424B1A900A522206BFEF7A6F929
:101F50002046BDE8F081000070B523E000F0EEFE01
:101F60001348006808B9012000E00020054601F090
:101F70002DFCBDB900F0B0FB0D48C068C468201D41
:101F800000F00EFB0B480068401E0A4908600A4832
:101F90000068401E0849086000F0CAFB204600F0B7
:101FA00059F800BF044800680028D7D170BD000070
:101FB000D4220020600000205C00002070B50446A0
:101FC0000D46206C70B1216CE0680844E0606168E7
:101FD000E068884201D32068E0602846226CE1680E
:101FE000FEF74AF970BD2DE9F04104460E4615464C
:101FF0000027206C40B37DB93146226CA068FEF703
:102000003BF9216CA0680844A060D4E90110884223
:102010001AD32068A06017E03146226CE068FEF712
:102020002BF9216CE068401AE0602168E068884282
:1020300003D2216C6068401AE060022D04D1A06BCD
:1020400010B1A06B401EA063A06B401CA06338467B
:10205000BDE8F08110B50446206B00F087FB2046F8
:1020600000F084FB10BD000030B54FF4F04317487A
:1020700010F0070F05D0C01D20F00700134C041B03
:102080001B1B0246124C22600024114D6C60D018BC
:10209000083820F007000F4C206000240D4D2D68FB
:1020A0006C600C4D2D682C601146441A4C60094C34
:1020B00024680C60084D4C682C60084D4C682C60FE
:1020C0004FF00044064D2C6030BD0000FC22002083
:1020D000A800002098000020A00000209C00002004
:1020E000A400002000BFFFF737FF06480068012862
:1020F000F9D94FF0805004490860BFF34F8FBFF308
:102100006F8FF0E72022002004ED00E02DE9F0477A
:1021100004460F4616469946DDF82080002507E064
:10212000795D04F134004155785D00B902E06D1C21
:10213000102DF5D300BF002143200155062E00D3FA
:102140000526E662201D00F09EFA04F1180000F05A
:102150009AFA2461C6F10600A06164620020E0647E
:10216000206584F85400BDE8F087000010B5002415
:1021700007E004EB84010F4A02EB810000F076FADD
:10218000641C062CF5D30C4800F070FA0B4800F0E4
:102190006DFA0B4800F06AFA0A4800F067FA0A483C
:1021A00000F064FA044809490860044808490860D6
:1021B00010BD00002022002098220020AC22002028
:1021C000C0220020D4220020E8220020900000201D
:1021D0009400002010B50146164800E0006803682E
:1021E0008B42FBD30246436813448B4204D14368BD
:1021F0004C682344436001460A464B681344046814
:10220000A34211D10C4C03682468A34208D04B6848
:102210000468646823444B6003681B680B6005E036
:10222000054B1B680B6001E003680B60884200D01F
:10223000016010BDA80000209800002070B5054680
:1022400000F04AFAA86B08B9012400E0002400F06D
:102250006FFA204670BD2DE9F04706460C469046C1
:102260000025206800284BD020464168496841601D
:1022700000F1080142688A4202D141684968416020
:102280004168D1F80C9000BF204641684968416020
:1022900000F1080142688A4202D141684968416000
:1022A0004168CF6806EB4510076007F1340006EB84
:1022B00045114860786C06EB4511886006EB4510C7
:1022C00080F80C80F86A06EB45110861B8F1030F3D
:1022D00005D1B86A18B1022006EB45110873002039
:1022E00006EB45114861F86C06EB45118861386BC7
:1022F00000F024F806EB451188836D1C4F45C3D1CF
:102300002846BDE8F08700000A490968096809B94C
:10231000012100E0002121B14FF0FF31064A116098
:1023200006E004490968C968C868034A4168116041
:10233000704700009000002080000020024600212D
:1023400001E0521C491C1078A528FAD0890888B2EF
:10235000704700000E480068401C01D1012000E0D9
:10236000002050B900BF102080F31188BFF34F8FB9
:10237000BFF36F8F00BF00BFFEE700BF102080F3E8
:102380001188BFF34F8FBFF36F8F00BF00BFFEE711
:10239000B000002010B5044600F09EF911E0606A1C
:1023A00008B9012000E0002038B904F1240001F050
:1023B000C1F918B100F0E8FB00E005E0A06C401E98
:1023C000A064A06C0028EADC00BF4FF0FF30A064DE
:1023D00000F0AEF900F080F911E0206908B90120A1
:1023E00000E0002050B904F1100001F0A3F908B199
:1023F00000F0CAFB606C401E606400E002E0606CAC
:102400000028EADC00BF4FF0FF30606400F090F974
:1024100010BD70B505460E4631462846FDF757FFFC
:102420002846FDF74DFF044602E020202855641C95
:102430000F2CFAD300202855281970BD2DE9F04142
:1024400004464FF0000800F079FC4648006808B9DF
:10245000FFF70AFE4448006804426BD1D4B1083447
:1024600014F0070F16D004F00700C0F10800044470
:1024700014F0070F01D1012000E0002050B900BF87
:10248000102080F31188BFF34F8FBFF36F8F00BF11
:1024900000BFFEE7002C4DD034480068844249D884
:1024A000334E3046056801E02E462D686868A0422C
:1024B00002D228680028F7D12A480068854239D01E
:1024C000306800F10808286830606868001B102830
:1024D00019D92F1917F0070F01D1012000E00020B2
:1024E00050B900BF102080F31188BFF34F8FBFF3A6
:1024F0006F8F00BF00BFFEE76868001B78606C60EC
:102500003846FFF767FE194968680968081A1749CD
:1025100008600846006817490968884203D21348D2
:1025200000681449086010496868096808436860D1
:102530000020286001F04AF918F0070F01D10120AE
:1025400000E0002050B900BF102080F31188BFF3D5
:102550004F8FBFF36F8F00BF00BFFEE74046BDE85F
:10256000F081000098000020A40000209C000020C2
:10257000A8000020A0000020001F4FF0807303601F
:10258000001F0160001F054B036014380260001F2C
:102590006FF00203036020387047000055230008E5
:1025A00001460A69D1E901309860D1E90103586018
:1025B0005068884201D18868506000200861106826
:1025C000401E1060106870472DE9F04105468846AE
:1025D00016460024062700F0B1FB1D480068804520
:1025E00030D300BF7F1E07EB87021A4B03EB82013B
:1025F00005EB44100122FFF72EFE0444002FF1D119
:1026000005EB4410022214490968FFF724FE044434
:1026100005EB4410022211490968FFF71CFE04442F
:1026200005EB441004220E49FFF715FE044405EBA8
:10263000441003220B49FFF70EFE044416B10A486A
:102640000068306001F0C2F82046BDE8F08100006B
:102650006000002020220020900000209400002034
:10266000D4220020E82200201C00002000F10801F4
:1026700041604FF0FF31816000F10801C1600161EC
:1026800000210160704700210161704710B50246CA
:102690000B685C1C01D1106907E002F1080000E042
:1026A0004068446824689C42FAD944684C604C688D
:1026B000A160886041600A611468641C146010BDE8
:1026C00042684A6093688B609368596091600861C2
:1026D00003685B1C0360704700BF102080F3118803
:1026E000BFF34F8FBFF36F8F00BF0F480068401CD0
:1026F0000D49086008460068012813D10B4800689E
:1027000010F0FF0F01D1012000E0002050B900BF00
:10271000102080F31188BFF34F8FBFF36F8F00BF7E
:1027200000BFFEE770470000B000002004ED00E0AD
:102730000D48006850B900BF102080F31188BFF326
:102740004F8FBFF36F8F00BF00BFFEE706480068E2
:10275000401E054908600846006820B9002080F343
:10276000118800BF00BF7047B000002070B506465A
:102770003546002E3FD0083D2C461F496068096849
:10278000084201D0012000E0002050B900BF102015
:1027900080F31188BFF34F8FBFF36F8F00BF00BF6F
:1027A000FEE7206808B9012000E0002050B900BF12
:1027B000102080F31188BFF34F8FBFF36F8F00BFDE
:1027C00000BFFEE70C4960680968084213D0206822
:1027D00088B90949606809688843606000F0AEFA0A
:1027E0000649606809680844044908602046FFF704
:1027F000F1FC00F0EBFF70BDA40000209C00002065
:1028000003484FF0E021486107200861704700004D
:102810003F90020070B5FDF719FD0446102C17D348
:102820004FF0E020204490F8F0531548007885429E
:1028300001DB012000E0002050B900BF102080F330
:102840001188BFF34F8FBFF36F8F00BF00BFFEE74C
:102850000C48006800F4E0600B490968884201D820
:10286000012000E0002050B900BF102080F3118843
:10287000BFF34F8FBFF36F8F00BF00BFFEE770BD88
:10288000B40000200CED00E0B800002010B50023DB
:10289000022244F620610248FFF776F910BD0000DD
:1028A0000010004070B5044600266CB31B48006859
:1028B00008B9012000E0002050B900BF102080F3CB
:1028C0001188BFF34F8FBFF36F8F00BF00BFFEE7CC
:1028D00000F034FA12480068051912480068001D1B
:1028E000FFF75EFE50B90F48006890F82C100120E9
:1028F00088400D49096881430B4801602846FFF76D
:10290000DFFA00F063FF06463EB94FF080500749FA
:102910000860BFF34F8FBFF36F8F70BD840000203E
:1029200064000020580000206800002004ED00E052
:10293000FEB505460020287026480068029025490B
:1029400009684801FFF77AFD0446002C40D06A462A
:1029500020460299FFF738FE029064210098B0FBF0
:10296000F1F00090009800282FD00020019028E07E
:10297000019804EB401080690099B0FBF1F60198D2
:1029800004EB401041682846FFF743FD05464EB171
:10299000019804EB401033460FA182692846FEF7E8
:1029A00057FD07E0019804EB40100EA1826928460C
:1029B000FEF74EFD2846FDF783FC05440198401CB8
:1029C0000190DDE901018842D2D32046FFF7CEFE17
:1029D000FEBD000060000020092575090925752548
:1029E000250D0A0009257509093C3125250D0A0028
:1029F00008B500BF1FE00023C82269460E480068E2
:102A000000F080FB0446012C0FD1009801780BA048
:102A1000FEF70EFD0098816813A0FEF709FD0098EF
:102A200041881CA0FEF704FD05E00220FFF772F8C4
:102A30000320FFF76FF8DEE714000020BDD3CAD5EE
:102A4000B5BDCFFBCFA2B6D3C1D0CAFDBEDD707479
:102A50004D73672D3E75634D6573736167654944BA
:102A6000203D2025640D0A00BDD3CAD5B5BDCFFBDE
:102A7000CFA2B6D3C1D0CAFDBEDD70744D73672D31
:102A80003E756C446174615B305D203D2025640DB2
:102A90000A000000BDD3CAD5B5BDCFFBCFA2B6D3C7
:102AA000C1D0CAFDBEDD70744D73672D3E75734491
:102AB0006174615B305D203D2025640D0A000000DB
:102AC0007FB50546002028702A48006803902949F0
:102AD00009684801FFF7B2FC0446002C49D00022E7
:102AE00020460399FFF770FD03900020029039E023
:102AF000029804EB4010007B012806D0022806D083
:102B0000032806D0042808D105E0522607E0422613
:102B100005E0532603E0442601E0002600BF00BF85
:102B2000029804EB401041682846FFF772FC054606
:102B3000029804EB40108068029904EB4111898BE4
:102B4000CDE90010029804EB401032460AA1036957
:102B50002846FEF77DFC2846FDF7B2FB05440298A7
:102B6000401C0290DDE902018842C1D32046FFF7F4
:102B7000FDFD7FBD6000002009256309257509253D
:102B8000750925750D0A000001200149086070478C
:102B90007400002008B500BF16E000234FF49672C1
:102BA00069460A48006800F0ADFA0446012C05D1D8
:102BB0009DF8001006A0FEF73BFC05E00120FEF7A3
:102BC000A9FF0420FEF7A6FFE7E7000010000020A1
:102BD000BDD3CAD5B5BDCFFBCFA2B6D3C1D0CAFD38
:102BE000BEDD756351756575654D736756616C75AE
:102BF00065203D2025640D0A0000000070B50546E3
:102C00000C4655B900BF102080F31188BFF34F8FD9
:102C1000BFF36F8F00BF00BFFEE713480168183194
:102C20002846FFF733FD10480068001DFFF7B8FC89
:102C300050B90D48006890F82C10012088400B49CD
:102C40000968814309480160601C06D10648016893
:102C5000091D0748FFF734FD05E00648006806191E
:102C60003046FFF72DF970BD5800002068000020A5
:102C7000E82200206400002050B900BF102181F339
:102C80001188BFF34F8FBFF36F8F00BF00BFFEE708
:102C90000349096801600349096841607047000001
:102CA000780000206400002004E0FEF707FF0A20FF
:102CB000FFF7F8FDF9E700001FB500200090019034
:102CC00002900346802216A10390174800F0D4FB1F
:102CD0000446012C17D100BF102080F31188BFF3E8
:102CE0004F8FBFF36F8F00BF4FF0FF300F49086069
:102CF00001200F49086000200E4908600E49086055
:102D000000F01EF90BE054B900BF102080F31188C9
:102D1000BFF34F8FBFF36F8F00BF00BFFEE71FBD34
:102D200049444C4500000000E520000880000020D8
:102D30006C000020640000201C0000200248006895
:102D4000401C014908607047840000202A48006840
:102D500018B10120294908604CE00020274908608B
:102D6000274800682749086008460068264909681E
:102D700088420BD92549096801F14C00C96C214AE8
:102D80001268214B1B68D21A114401601D4800686B
:102D90001D4908601E480068B0FA80F0C0F11F01AC
:102DA00001EB81001B4A52F8200008B1012000E02D
:102DB000002050B900BF102080F31188BFF34F8F5F
:102DC000BFF36F8F00BF00BFFEE701EB8102114B25
:102DD00003EB820042685268426000F108024368D7
:102DE000934202D14268526842604268D268074BFF
:102DF0001A6000BF704700008400002074000020AB
:102E00001C0000208C0000208800002058000020BA
:102E10006800002020220020FEB03DE0FEF784FC88
:102E20000446002C35D0012C04D0042C1AD0072CD9
:102E30002DD121E019A0FEF7FBFA25A0FEF7F8FA44
:102E400001A8FFF73DFE01A92DA0FEF7F1FA2EA083
:102E5000FEF7EEFA01A8FFF76BFD01A928A0FEF727
:102E6000E7FA15E03348FEF7E3FA334A4CF2503103
:102E70000120FEF789FF0BE02E484C30FEF7D8FA10
:102E80002E4A4CF250310220FEF77EFF00E000BFD8
:102E900000BF1420FFF706FDC0E700003D3D3D3DAB
:102EA0003D3D3D3D3D3D3D3D3D3D3D3D3D3D3D3D52
:102EB0003D3D3D3D3D3D3D3D3D3D3D3D3D3D3D3D42
:102EC0003D3D3D3D3D3D3D3D3D3D3D3D3D0D0A00D2
:102ED000C8CECEF1C3FB202020202020C8CECEF1CA
:102EE000D7B4CCAC20D3C5CFC8BCB6202020CAA351
:102EF000D3E0D5BB20C8CECEF1D0F2BAC50D0A00C2
:102F000025730D0A000000000D0AC8CECEF1C3FBE8
:102F100020202020202020D4CBD0D0BCC6CAFD2029
:102F20002020202020202020CAB9D3C3C2CA0D0AE5
:102F300000000000D03800086D0E0008AD0E00083B
:102F40001CB5474800684749884201D0012000E08D
:102F5000002050B900BF102080F31188BFF34F8FBD
:102F6000BFF36F8F00BF00BFFEE73D4800683D49DB
:102F7000491E884201D0012000E0002050B900BF66
:102F8000102080F31188BFF34F8FBFF36F8F00BF06
:102F900000BFFEE73449084600780190FF200A464A
:102FA00010700846007800909DF8000000F0F000D6
:102FB0009DF80020904201D1012000E0002050B98E
:102FC00000BF102080F31188BFF34F8FBFF36F8FC6
:102FD00000BF00BFFEE79DF8000000F01000234A8C
:102FE00010700720224A106009E021480068401E46
:102FF0001F4A10609DF800004006000E00909DF8EA
:10300000000000F080008028EFD01948006800021E
:10301000174A10601046008800F4E0601060124A01
:10302000019810700E482030006840F470000C4980
:10303000203108600846006840F070400860FFF7E3
:10304000DFFB00200B490860FDF7C8F80A4800685C
:1030500040F0404008490860FDF7B0F800201CBD72
:1030600000ED00E071C20F4100E400E0B400002078
:10307000B8000020B000002034EF00E02DE9F04758
:1030800006460D4690464FF000090EB1012000E0C3
:10309000002050B900BF102080F31188BFF34F8F7C
:1030A000BFF36F8F00BF00BFFEE70DB9002702E03E
:1030B00006FB05F0471C07F15400FFF7BFF9044673
:1030C00074B10DB9246002E004F154002060E6639D
:1030D00025640121204600F0C7F884F85080A146FD
:1030E000B9F1000F0AD100BF102080F31188BFF39F
:1030F0004F8FBFF36F8F00BF00BFFEE74846BDE8AC
:10310000F08700002DE9FF4383B005460E461F46B9
:103110004FF000092C4654B900BF102080F31188ED
:10312000BFF34F8FBFF36F8F00BF00BFFEE70EB935
:10313000206C08B9012000E0002050B900BF102029
:1031400080F31188BFF34F8FBFF36F8F00BF00BFB5
:10315000FEE700BFFFF7C0FAA06BC0B3D4F80C8045
:1031600031462046FEF72AFFB7B9A06B401EA06388
:10317000206908B9012000E0002010BB04F1100014
:1031800000F0D8FA01281CD1000736490860BFF3C7
:103190004F8FBFF36F8F14E0C4F80C80606A08B9DA
:1031A000012000E0002060B904F1240000F0C2FA20
:1031B00038B14FF080502B490860BFF34F8FBFF3F9
:1031C0006F8FFFF7B5FA012007B0BDE8F083FFE786
:1031D000059818B9FFF7ACFA0020F5E7B9F1000F30
:1031E00004D101A8FFF748FD4FF00109FFF7A0FA4D
:1031F000FFF7A4FDFFF770FA606C401C00D160641B
:10320000A06C401C00D1A064FFF792FA05A901A8A8
:1032100000F0ECF8F0B92046FFF710F8A0B104F187
:1032200024000599FFF7EAFC2046FFF7B3F800F009
:10323000CDFA00288ED14FF080500A490860BFF3C4
:103240004F8FBFF36F8F85E72046FFF7A3F800F09D
:10325000BDFA7FE72046FFF79DF800F0B7FA00209F
:10326000B2E7000004ED00E070B505460E462C46BE
:1032700054B900BF102080F31188BFF34F8FBFF304
:103280006F8F00BF00BFFEE7FFF726FAD4E90F12E9
:10329000206801FB020060600020A0632068A0603D
:1032A000E06B401E226C216800FB0210E0604FF0D2
:1032B000FF306064A0649EB9206908B9012000E075
:1032C0000020A8B904F1100000F034FA01280FD151
:1032D000000709490860BFF34F8FBFF36F8F07E006
:1032E00004F11000FFF7C2F904F12400FFF7BEF962
:1032F000FFF71EFA012070BD04ED00E02DE9F04754
:1033000007468A4690461E463C4654B900BF1020E8
:1033100080F31188BFF34F8FBFF36F8F00BF00BFE3
:10332000FEE7BAF1000F01D1206C08B9012000E0DE
:10333000002050B900BF102080F31188BFF34F8FD9
:10334000BFF36F8F00BF00BFFEE7022E02D1E06B1C
:10335000012801D1012000E0002050B900BF102059
:1033600080F31188BFF34F8FBFF36F8F00BF00BF93
:10337000FEE7FFF74FFA00BF1021EFF3118081F352
:103380001188BFF34F8FBFF36F8F00BF0546A06B4F
:10339000E16B884201D3022E1FD1324651462046AE
:1033A000FEF721FEA06C401C11D1606A08B9012013
:1033B00000E0002070B904F1240000F0BBF948B12E
:1033C000B8F1000F06D00120C8F8000002E0A06CA0
:1033D000401CA0644FF0010901E04FF0000900BF5C
:1033E00085F3118800BF4846BDE8F08770B50446F4
:1033F0000D4654B900BF102080F31188BFF34F8FE2
:10340000BFF36F8F00BF00BFFEE755B900BF1020AC
:1034100080F31188BFF34F8FBFF36F8F00BF00BFE2
:10342000FEE7FFF759F9124803682868401C01D1EC
:10343000002619E00F4920680968884204D06068B6
:10344000984201D801260FE06068181A296888425E
:1034500009D228686168591A401A28602046FFF787
:103460000BFC002600E00126FFF762F9304670BD34
:1034700064000020780000202DE9FF4F81B08046D5
:1034800016469A46DDE90E5BB8F1000F0AD100BF7F
:10349000102080F31188BFF34F8FBFF36F8F00BFF1
:1034A00000BFFEE7062D01D2012000E0002050B948
:1034B00000BF102080F31188BFF34F8FBFF36F8FD1
:1034C00000BF00BFFEE730461099FEF723FD04461B
:1034D000002C64D0701E216B01EB800929F00709D4
:1034E00019F0070F01D1012000E0002050B900BF02
:1034F000102080F31188BFF34F8FBFF36F8F00BF91
:1035000000BFFEE700962A462046119B0299FEF76F
:10351000FDFD524641464846FFF72EF82060BBF1BC
:10352000000F01D0CBF80040FFF7D6F8274800681D
:10353000401C264908602648006840B924480460B9
:103540000846006801280CD1FEF710FE09E021486A
:10355000006830B91E480068C06AA84201D81C48FB
:1035600004601D480068401C1B490860084600684C
:10357000606494F82C1001208840184909680843B9
:1035800016490860E16A01EB8101154A02EB8100EE
:10359000211DFFF795F80127FFF7CAF801E04FF06A
:1035A000FF37012F0ED10B48006858B1084800685A
:1035B000C06AA84206D238070A490860BFF34F8F95
:1035C000BFF36F8F384605B0BDE8F08F6000002074
:1035D000580000206C0000207C00002068000020C3
:1035E0002022002004ED00E02DE9F0414FF000081A
:1035F00045480068002879D144480068401C434988
:1036000008600846066816BB41480068006808B9AB
:10361000012000E0002050B900BF102080F3118885
:10362000BFF34F8FBFF36F8F00BF00BFFEE7384877
:1036300007683848006836490860364807603648E9
:103640000068401C34490860FEF75EFE00BF334846
:10365000006886423CD300BF2D480068006808B966
:10366000012000E0002020B14FF0FF302B4908601E
:103670002DE027480068C068C4686568AE4202D281
:103680002648056023E0201DFEF78AFFA06A18B1D6
:1036900004F11800FEF784FF94F82C1001208840F4
:1036A0001F49096808431E490860E16A01EB81016E
:1036B0001C4A02EB8100211DFFF702F81A49E06A5B
:1036C0000968C96A8842C7D34FF00108C4E700BF40
:1036D00015480068C06A00EB8000124951F82000CC
:1036E000012808D94FF0010805E0FFE70F480068FE
:1036F000401C0E4908600E48006808B14FF00108F0
:103700004046BDE8F08100008400002064000020F5
:10371000900000209400002078000020800000200D
:1037200068000020202200205800002070000020A7
:103730007400002070B50646F068C46854B900BF34
:10374000102080F31188BFF34F8FBFF36F8F00BF3E
:1037500000BFFEE704F11800FEF722FF15480068DD
:10376000A8B9201DFEF71CFF94F82C1001208840FA
:1037700011490968084310490860E16A01EB8101B9
:103780000E4A02EB8100211DFEF79AFF04E004F1CE
:1037900018010B48FEF794FF0A49E06A0968C96AF4
:1037A000884204D9012501200749086000E000256E
:1037B000284670BD840000206800002020220020E0
:1037C000C0220020580000207400002070B50025A1
:1037D0003648006850B900BF102080F31188BFF34D
:1037E0004F8FBFF36F8F00BF00BFFEE7FEF774FF80
:1037F0002E480068401E2D490860084600680028D1
:1038000050D12B48006800284CD024E02948C068DB
:10381000C46804F11800FEF7C3FE201DFEF7C0FEC9
:1038200094F82C1001208840234909680843224954
:103830000860E16A01EB8101204A02EB8100211D51
:10384000FEF73EFF1E49E06A0968C96A884202D352
:1038500001201C4908601748006808B9012000E0F1
:1038600000200028D2D01848006878B10AE0FFF79D
:10387000BBFE10B101201349086013480068401EC8
:1038800011490860104800680028F0D10D48006810
:10389000012807D1012500070C490860BFF34F8FAD
:1038A000BFF36F8FFEF744FF284670BD84000020F1
:1038B00060000020C022002068000020202200209C
:1038C00058000020740000207000002004ED00E08B
:1038D0004B32BCFCB0B4CFC2A3ACC6F4B6AFB5A5F6
:1038E000B4CEB6A8CAB1C6F7D6D0B6CFA3AC3530E1
:1038F0006D73BAF3D4DAB6A8CAB1C6F7D6D0B6CFCC
:10390000B8F8C8CECEF1765461736B4D73675072C0
:103910006FB7A2CBCDCFFBCFA20D0A004B33BCFCBF
:10392000B0B4CFC2A3ACC6F4B6AFB5A5B4CEB6A8FA
:10393000CAB1C6F7D6D0B6CFA3AC35306D73BAF3E3
:10394000D4DAB6A8CAB1C6F7D6D0B6CFB8F8C8CEC2
:10395000CEF1765461736B4C4544B7A2CBCDCFFB0F
:10396000CFA20D0A000000008839000800000020E6
:10397000C000000078140008483A0008C000002089
:1039800040A20000881400080000000000000000B1
:103990000000000000000000000000000000000027
:1039A0000000000000000000000000000000000017
:1039B0000000000000000000000000000001020301
:1039C000040102030406070809000000007A030A44
:1039D00000000000000000000102030406070809BF
:1039E00000000000000000000000000000000000D7
:1039F00000000000000000000000000000000000C7
:103A000000000000000000000000000000000000B6
:103A100000000000000000000000000000000000A6
:103A20000000000000000000000000000000000096
:103A30000000000000000000AAAAAAAA00000000DE
:083A400000000000000000007E
:040000050800018965
:00000001FF
